:020000040800F2
:10000000A08800209D010008A5010008210A000821
:10001000A9010008AB010008AD01000800000000C4
:10002000000000000000000000000000AF01000818
:10003000B101000800000000B3010008B50100088C
:10004000B7010008B7010008B7010008B7010008B0
:10005000B7010008B7010008B7010008B7010008A0
:10006000B7010008B7010008B7010008B701000890
:10007000B7010008B7010008B7010008B701000880
:10008000B7010008B7010008B7010008B701000870
:10009000B7010008B7010008B7010008B701000860
:1000A000B7010008B7010008B7010008B701000850
:1000B000B7010008B7010008B7010008B701000840
:1000C000B7010008B7010008B7010008B701000830
:1000D000B7010008B7010008B7010008CD3E0008CD
:1000E000B7010008B7010008B7010008B701000810
:1000F000B7010008B7010008B7010008B701000800
:10010000B7010008B7010008B70100084D1E00083C
:10011000B7010008B7010008B7010008B7010008DF
:10012000B7010008B7010008B7010008B7010008CF
:10013000B7010008B7010008B7010008B7010008BF
:10014000B7010008B7010008B7010008B7010008AF
:10015000B7010008B7010008B7010008B70100089F
:10016000B7010008B7010008B7010008B70100088F
:10017000B7010008B7010008B7010008B70100087F
:10018000B7010008B7010008DFF80CD000F052F802
:1001900000480047AD4C0008A08800200648804772
:1001A00006480047FEE7FEE7FEE7FEE7FEE7FEE75C
:1001B000FEE7FEE7FEE7FEE7F525000889010008F7
:1001C00040EA01039B0703D009E008C9121F08C0D9
:1001D000042AFAD203E011F8013B00F8013B521E59
:1001E000F9D27047D2B201E000F8012B491EFBD2D0
:1001F00070470022F6E710B513460A460446194632
:10020000FFF7F0FF204610BD30B50B460146002039
:100210002022012409E021FA02F59D4205D303FAC8
:1002200002F5491B04FA02F52844151EA2F1010249
:10023000F1DC30BD064C074D06E0E06840F00103FC
:1002400094E8070098471034AC42F6D3FFF7A0FFBC
:100250001C5900083C59000870B58D1810F8014B66
:1002600014F0030201D110F8012B231106D110F86C
:10027000013B03E010F8016B01F8016B521EF9D14C
:10028000ABB110F8012B04F00C048A1A0C2C03D02B
:10029000A2EB84129B1C08E010F8014BA2EB042295
:1002A000F8E712F8014B01F8014B5B1EF9D5A942A2
:1002B000D4D3002070BD00001CB500200090019038
:1002C0000121032001F050FC4FF400400090022077
:1002D0008DF804006946154800F088F806220F21C1
:1002E000124800F063F9202000906946104800F0A1
:1002F0007DF8062205210E4800F058F908200090EC
:1003000069460B4800F072F806220321084800F005
:100310004DF91020009000208DF8040001208DF888
:1003200007006946024800F061F81CBD0000024069
:100330000004024010B5FFF7BFFF00F001F810BD48
:1003400000B587B0142102A8FFF753FF00200190E9
:100350000121C80301F04AFC0020ADF80800ADF807
:100360000A00ADF80C00ADF80E000120ADF8100049
:100370000020ADF812008020ADF816000720ADF87F
:10038000180002A90E4801F0C9FF01210C4801F034
:100390007DFD012260210A4801F0B6FE33208DF870
:1003A000040001208DF8050000208DF806000120D2
:1003B0008DF8070001A800F079FF07B000BD00002C
:1003C000003C004030B502460B460021002004E00E
:1003D000145C0C44A1B2441CE0B29842F8D34C42E5
:1003E000A1B20C1214541518697030BD2DE9F041FA
:1003F00004460D4600260027B046544884421DD0CE
:10040000534884421AD05348844217D052488442F9
:1004100014D05248844211D0514884420ED05148E1
:1004200084420BD05048844208D05048844205D0C2
:100430004F48844202D04F48844200D103E0CF218C
:100440004DA004F011FC288880B200B103E0D02157
:1004500049A004F009FC287940B12879012805D089
:100460002879022802D02879032800D103E0D1217D
:1004700041A004F0F9FBE87928B1E879012802D01D
:10048000E879022800D103E0D2213BA004F0ECFB84
:10049000002657E0012000FA06F7286800EA07085E
:1004A000B8454ED1206872000321914088432060F6
:1004B0002879710088402168084320602879012844
:1004C00002D02879022830D1687940B168790128B2
:1004D00005D06879022802D06879032800D103E0AA
:1004E000E42125A004F0C0FBA06872000321914024
:1004F0008843A060687971008840A1680843A060C3
:10050000A87910B1A879012800D103E0EB211AA045
:1005100004F0AAFB61680120B0408143616061681A
:10052000A879B04080B201436160E06872000321A5
:1005300091408843E060E87971008840E1680843B1
:10054000E060761C102EA5D3BDE8F08100000240CB
:100550000004024000080240000C0240001002406B
:100560000014024000180240001C0240002002401B
:1005700000240240002802402E2E5C53544D33329A
:10058000463478785F5374645065726970685F446C
:1005900072697665725C7372635C73746D33326614
:1005A0003478785F6770696F2E6300002DE9F04141
:1005B00006460D4614460027B846544886421DD0CC
:1005C000534886421AD05348864217D05248864232
:1005D00014D05248864211D0514886420ED051481C
:1005E00086420BD05048864208D05048864205D0FB
:1005F0004F48864202D04F48864200D104E040F284
:1006000049214DA004F030FBEDB1012D1BD0022D8E
:1006100019D0032D17D0042D15D0052D13D0062D7C
:1006200011D0072D0FD0082D0DD0092D0BD00A2D7C
:1006300009D00B2D07D00C2D05D00D2D03D00E2D7C
:1006400001D00F2D00D104E040F24A213AA004F07D
:100650000BFBA4B3092C32D08CB384B37CB374B33A
:10066000012C2CD02BD0022C29D028D027D0032C21
:1006700025D0042C23D022D021D0052C1FD01ED071
:10068000092C1CD0062C1AD0092C18D0072C16D0F7
:1006900015D014D0082C12D011D010D0092C0ED0A7
:1006A0000DD00A2C0BD00AD00B2C08D00C2C06D065
:1006B00005D00D2C03D00F2C01D00C2C00D104E060
:1006C00040F24B211CA004F0CFFA6807C00E04FAD8
:1006D00000F7E91006F1200050F821006907CA0E62
:1006E0000F2191408843EA1006F1200141F82200D1
:1006F000E91006F1200050F8210040EA0708E9104F
:1007000006F1200040F82180BDE8F08100000240A1
:100710000004024000080240000C024000100240A9
:100720000014024000180240001C02400020024059
:1007300000240240002802402E2E5C53544D3332D8
:10074000463478785F5374645065726970685F44AA
:1007500072697665725C7372635C73746D33326652
:100760003478785F6770696F2E63000070B5054656
:100770000C4600262E4885421DD02E4885421AD0B0
:100780002D48854217D02D48854214D02C488542EB
:1007900011D02C4885420ED02B4885420BD02B48D7
:1007A000854208D02A48854205D02A48854202D091
:1007B0002948854200D104E04FF4A47127A004F039
:1007C00053FA012C25D0022C23D0042C21D0082C44
:1007D0001FD0102C1DD0202C1BD0402C19D0802CC9
:1007E00017D0B4F5807F14D0B4F5007F11D0B4F5E4
:1007F000806F0ED0B4F5006F0BD0B4F5805F08D0D9
:10080000B4F5005F05D0B4F5804F02D0B4F5004FC9
:1008100000D104E040F2491110A004F025FA286943
:10082000204008B1012600E00026304670BD0000DF
:10083000000002400004024000080240000C024098
:10084000001002400014024000180240001C024048
:100850000020024000240240002802402E2E5C535B
:10086000544D3332463478785F53746450657269FE
:1008700070685F4472697665725C7372635C7374EE
:100880006D3332663478785F6770696F2E6300006D
:1008900070B504460D46184884421DD0174884425E
:1008A0001AD01748844217D01648844214D01648EC
:1008B000844211D0154884420ED0154884420BD092
:1008C0001448844208D01448844205D01348844216
:1008D00002D01348844200D104E04FF4DA7111A031
:1008E00004F0C2F9A8B200B104E040F2B5110DA0C5
:1008F00004F0BAF9658370BD0000024000040240B4
:1009000000080240000C02400010024000140240A7
:1009100000180240001C0240002002400024024057
:10092000002802402E2E5C53544D333246347878E2
:100930005F5374645065726970685F44726976656C
:10094000725C7372635C73746D3332663478785F93
:100950006770696F2E63000070B504460D46184835
:1009600084421DD0174884421AD01748844217D0B9
:100970001648844214D01648844211D01548844247
:100980000ED0154884420BD01448844208D0144835
:10099000844205D01348844202D01348844200D1D7
:1009A00004E040F29F1111A004F05EF9A8B200B17A
:1009B00004E04FF4D0710DA004F056F9258370BD0A
:1009C000000002400004024000080240000C024007
:1009D000001002400014024000180240001C0240B7
:1009E0000020024000240240002802402E2E5C53CA
:1009F000544D3332463478785F537464506572696D
:100A000070685F4472697665725C7372635C73745C
:100A10006D3332663478785F6770696F2E630000DB
:100A200002A004F025F800BFFEE7000048617264F0
:100A3000204572726F72210D0A00000010B51B482C
:100A4000007810B101282DD119E010211848FFF7C6
:100A50008DFE98B91748007980B11648007815497D
:100A600049780844FF2803D1124880781249087059
:100A700000201049087101200C49087012E0102173
:100A80000B48FFF773FE38B90B480078442803D0B1
:100A900009480078402804D100200449087006491C
:100AA000087000BF00BF0448007810BD4328002034
:100AB000000402403D2800204228002010B5FFF726
:100AC000BDFF0446182C1AD008DC082C2BD00D2CA6
:100AD0000DD0102C4FD0142C61D156E01C2C36D0E8
:100AE000522C16D05A2C28D05E2C58D139E003F065
:100AF000DFF900BFFFF7A2FF0D28FBD052E000BFD7
:100B000001220021032003F007FF00BF00F0C8F816
:100B100048E000BF02220021032003F0FDFE00BFD9
:100B200000F088F83EE000BF03220021104603F0E9
:100B3000F3FE00BF00F03AF934E000BF04220021C8
:100B4000032003F0E9FE00BF00F066F92AE000BFD1
:100B500005220021032003F0DFFE00BF00F098FA19
:100B600020E000BF06220021032003F0D5FE00BFD5
:100B700000F0C4FA16E000BF07220021032003F0B2
:100B8000CBFE00BF00F026FB0CE000BF08220021D6
:100B9000032003F0C1FE00BF00F052FB02E000F0B2
:100BA000E3FA00BF00BF10BD1CB50020009001900B
:100BB0000121022000F0D8FF4FF480700090002047
:100BC0008DF804008DF8070069460548FFF70EFC14
:100BD0004FF40070009069460148FFF707FC1CBD08
:100BE000000402401CB5002000900190012110205B
:100BF00000F0BAFF0420009001208DF804000020CE
:100C00008DF8060002208DF8050069460848FFF7B8
:100C1000EDFB0820009069460548FFF7E7FB04213B
:100C20000348FFF799FE08210148FFF795FE1CBD18
:100C30000010024010B500BF4FF400611648FFF7E6
:100C400027FE4FF480611448FFF786FE00BF00BF07
:100C50004FF480711048FFF71BFE4FF400710E48EF
:100C6000FFF77AFE00BF00BF4FF400410B48FFF7CB
:100C70000FFE4FF480410948FFF76EFE00BF00BF32
:100C80004FF480510548FFF767FE4FF400610348B9
:100C9000FFF7FEFD00BF10BD000C02400010024037
:100CA00010B500BF4FF400611648FFF755FE4FF432
:100CB00080611448FFF7ECFD00BF00BF4FF4807166
:100CC0001048FFF749FE4FF400710E48FFF7E0FDB2
:100CD00000BF00BF4FF400410B48FFF73DFE4FF44B
:100CE00080410948FFF7D4FD00BF00BF4FF4805199
:100CF0000548FFF7CDFD4FF400610348FFF72CFED8
:100D000000BF10BD000C0240001002401CB50020C6
:100D1000009001900121022000F026FF012108200F
:100D200000F022FF0121102000F01EFF01208DF8AD
:100D3000040000208DF806008DF8070002208DF8D1
:100D400005004FF47060009069460C48FFF74EFBB9
:100D50004FF45840009069460948FFF747FB4FF4AD
:100D60008040009069460548FFF740FB4FF4005073
:100D7000009069460248FFF739FB1CBD000C024099
:100D80000010024010B5FFF7C1FF00F07BF84FF4F0
:100D900080410448FFF7E0FD4FF400510248FFF79F
:100DA000DBFD10BD000C02400010024010B500BF7A
:100DB0004FF400611648FFF76BFD4FF48061144853
:100DC000FFF7CAFD00BF00BF4FF480711048FFF766
:100DD000C3FD4FF400710E48FFF75AFD00BF00BF7E
:100DE0004FF400410B48FFF7B7FD4FF4804109482D
:100DF000FFF74EFD00BF00BF4FF480510548FFF7DD
:100E0000ABFD4FF400610348FFF742FD00BF10BD8A
:100E1000000C02400010024010B500BF4FF400610A
:100E20001648FFF799FD4FF480611448FFF730FD35
:100E300000BF00BF4FF480711048FFF729FD4FF449
:100E400000710E48FFF788FD00BF00BF4FF400415E
:100E50000B48FFF71DFD4FF480410948FFF77CFD6B
:100E600000BF00BF4FF480510548FFF711FD4FF45C
:100E700000610348FFF770FD00BF10BD000C024089
:100E80000010024000B58BB0002009900A90069037
:100E900007900890142101A8FFF7ABF90121022067
:100EA00000F062FE0121082000F05EFE0121022018
:100EB00000F09CFE0121042000F098FE02208DF835
:100EC000280000208DF82A000320099000208DF8CA
:100ED0002B0002208DF8290009A93648FFF786FA71
:100EE000022200213348FFF761FB02220121314831
:100EF000FFF75CFB4FF44050099009A92E48FFF71B
:100F000075FA02220C212C48FFF750FB02220D211A
:100F10002948FFF74BFB0020ADF82000ADF81A0080
:100F20005320ADF818006420079006A9234802F06A
:100F3000B1FD06A9224802F0ADFD6020ADF8040025
:100F40000120ADF806000020ADF81000322003901B
:100F500001A91A4802F0D0F801A9184802F008FACD
:100F60000821164802F0B4F90821144802F0B6FA34
:100F70000121124801F09CFB01A9114801F000FE7B
:100F800001A90F4801F062FF08210D4801F0F0FEB1
:100F900008210B4802F052F80121094801F088FBB2
:100FA0000121064801F06AFC0121054801F066FCB8
:100FB0000BB000BD00040240000C024000040040E1
:100FC0000008004010B50446012C06D0022C15D0B4
:100FD000032C24D0042C44D132E01921244802F0FF
:100FE00029FC1921224802F085FC1921214802F030
:100FF000CDFC19211F4802F00BFD37E032211C48BF
:1010000002F018FC32211A4802F074FC322119480F
:1010100002F0BCFC3221174802F0FAFC26E04B211A
:10102000134802F007FC4B21114802F063FC4B21EE
:10103000104802F0ABFC4B210E4802F0E9FC15E031
:1010400064210B4802F0F6FB6421094802F052FCCF
:101050006421084802F09AFC6421064802F0D8FC9A
:1010600004E0054905A003F003FD00BF00BF10BD6B
:101070000008004000040040D64E000825733A20C6
:10108000617267206973206572726F720D0A0000C9
:1010900010B500BF4FF400611648FFF7F9FB4FF49D
:1010A00080611448FFF758FC00BF00BF4FF4807107
:1010B0001048FFF7EDFB4FF400710E48FFF74CFCB2
:1010C00000BF00BF4FF400410B48FFF745FC4FF451
:1010D00080410948FFF7DCFB00BF00BF4FF480519F
:1010E0000548FFF7D5FB4FF400610348FFF734FCD8
:1010F00000BF10BD000C02400010024010B500BF40
:101100004FF400611648FFF727FC4FF48061144844
:10111000FFF7BEFB00BF00BF4FF480711048FFF720
:101120001BFC4FF400710E48FFF7B2FB00BF00BF7D
:101130004FF400410B48FFF7ABFB4FF480410948E7
:10114000FFF70AFC00BF00BF4FF480510548FFF7CE
:1011500003FC4FF400610348FFF79AFB00BF10BD8A
:10116000000C02400010024010B500BF4FF40071A7
:101170001648FFF7F1FB4FF480711448FFF7ECFBC2
:1011800000BF00BF4FF480611048FFF7E5FB4FF44C
:1011900000610E48FFF7E0FB00BF00BF4FF4804145
:1011A0000B48FFF7D9FB4FF400410948FFF7D4FB88
:1011B00000BF00BF4FF480510548FFF7CDFB4FF44F
:1011C00000610348FFF7C8FB00BF10BD000C0240E0
:1011D0000010024010B500BF4FF400711648FFF731
:1011E000BBFB4FF480711448FFF7B6FB00BF00BF94
:1011F0004FF480611048FFF7AFFB4FF400610E48D9
:10120000FFF7AAFB00BF00BF4FF400410B48FFF7F8
:10121000A3FB4FF480410948FFF73AFB00BF00BF32
:101220004FF480510548FFF733FB4FF4006103484A
:10123000FFF792FB00BF10BD000C024000100240FF
:1012400010B500BF4FF400611648FFF785FB4FF45F
:1012500080611448FFF71CFB00BF00BF4FF4807192
:101260001048FFF779FB4FF400710E48FFF710FBB1
:1012700000BF00BF4FF480410B48FFF76DFB4FF4F8
:1012800000410948FFF768FB00BF00BF4FF48051E1
:101290000548FFF761FB4FF400610348FFF75CFB73
:1012A00000BF10BD000C0240001002402DE9F041CB
:1012B0000446002500270F26E07810B1E0780128C9
:1012C00000D103E08D2122A003F0CEFC607810282D
:1012D00000DA03E08E211EA003F0C6FCA0781028DF
:1012E00000DA03E08F211AA003F0BEFCE07818B307
:1012F0002248006800F4E060C0F5E060C0F3072514
:10130000C5F10400C7B22E416078B840C5B2A078DC
:10131000304005432807050E1948217845542078A8
:1013200000F01F010120884021784911890001F156
:10133000E021C1F8000109E0207800F01F01012040
:10134000884010492278521141F82200BDE8F0810E
:101350002E2E5C53544D3332463478785F53746488
:101360005065726970685F4472697665725C737209
:10137000635C6D6973632E63000000000CED00E098
:1013800000E400E080E100E010B50446B4F5E06F51
:101390000BD0B4F5C06F08D0B4F5A06F05D0B4F58C
:1013A000806F02D0B4F5407F00D103E0792104A022
:1013B00003F05AFC0D4820430D49086010BD0000A1
:1013C0002E2E5C53544D3332463478785F53746418
:1013D0005065726970685F4472697665725C737299
:1013E000635C6D6973632E63000000000000FA0502
:1013F0000CED00E070B500240CE00021204600F068
:101400001DF9002503E0002000F04AF96D1C802D35
:10141000F9DD641C072CF0DD70BD2DE9F05F054699
:101420000E4617469846DDF828A04FF0000B3446CC
:1014300014E02146284603F099FCA9460AE05946E3
:101440000BF1010B1AF8010000F02AF909F1010073
:1014500000F0FF09B945F2DB601CC4B24445E8DB8B
:10146000BDE8F09F1CB500200090019001212120D3
:1014700000F07AFB4FF48060009002208DF80500A8
:1014800001208DF8040000208DF8060069461748F9
:10149000FEF7ACFF4FF40070009069461348FEF76A
:1014A000A5FF4FF48070009069461048FEF79EFF3C
:1014B0002020009002208DF8040069460C48FEF7B9
:1014C00095FF052211460A48FFF770F8802000902A
:1014D00002208DF8040069460548FEF787FF0522C3
:1014E00007210348FFF762F81CBD0000001402400A
:1014F0000000024010B5FFF7B5FF00F06DF800BF27
:101500004FF480713348FFF7C3F900BF642002F045
:1015100079FC00BF4FF480712E48FFF71DFA00BF21
:10152000AE2000F09FF8002000F09CF8102000F0A2
:1015300099F8402000F096F8812000F093F8CF2031
:1015400000F090F8A12000F08DF8C82000F08AF893
:10155000A62000F087F8A82000F084F83F2000F0D3
:1015600081F8D32000F07EF8002000F07BF8D52031
:1015700000F078F8802000F075F8D92000F072F8BB
:10158000F12000F06FF8DA2000F06CF8122000F083
:1015900069F8DB2000F066F8402000F063F82020B6
:1015A00000F060F8022000F05DF88D2000F05AF89D
:1015B000142000F057F8A42000F054F8A62000F002
:1015C00051F8AF2000F04EF8AF2000F04BF8FFF7D5
:1015D00011FF10BD0014024000B585B0142168460B
:1015E000FEF707FE0121080300F040FB0020ADF8E4
:1015F00000004FF48270ADF802000020ADF8040046
:101600000220ADF806000120ADF808004002ADF858
:101610000A000020ADF80C00ADF80E000120ADF876
:1016200010006946044800F079FE0121024800F0EC
:101630002DFC05B000BD00000030014070B505462E
:101640000C4605F1B001C8B200F00CF8C4F3031168
:1016500041F0100000F006F804F00F0000F002F86E
:1016600070BD000010B5044600BF4FF480610B4808
:10167000FFF70EF900BF00BF4FF400710748FFF7F6
:1016800007F900BF204600F027FF00BF4FF480613C
:101690000248FFF761F900BF10BD000000140240CE
:1016A00010B5044600BF4FF480610B48FFF7F0F817
:1016B00000BF00BF4FF400710748FFF74DF900BFAE
:1016C000204600F009FF00BF4FF480610248FFF799
:1016D00043F900BF10BD0000001402402DE9FF4196
:1016E000074688461446A4F12000C4B20F4800EB18
:1016F000041110226846FEF763FD002512E07819F8
:101700004146FFF79BFF002608E0082101FB056129
:101710001DF80100FFF7C4FF701CC6B2082EF4DBF1
:10172000681CC5B2022DEADBBDE8FF81E54E00086A
:101730002DE9F04389B0804689461646202101A84C
:10174000FEF757FD00242EE03078194911F81410E7
:10175000884226D17078012101EB4401144A515C82
:1017600088421ED11348202202FB040101A8FEF783
:1017700027FD002513E008EB05004946FFF75EFF53
:10178000002708E0102101FB057101AA505CFFF75A
:1017900087FF781CC7B2102FF4DB681CC5B2022D7E
:1017A000E9DB601CC4B21E2CCEDB09B0BDE8F083BF
:1017B000E5540008225500082DE9F04107460D4682
:1017C000164600241FE0305DA0280EDC325D29465D
:1017D0003846FFF783FF05F10800C5B2641C7F2D72
:1017E00011DB0025B81CC7B20DE032192946384676
:1017F000FFF79EFF05F11000C5B2A41C7F2D02DB90
:101800000025B81CC7B2305D0028DCD1BDE8F081EE
:10181000002004E00021034A1154411CC8B20928E9
:10182000F8DB70476028002038B50446012000909E
:101830000020224948700120009037E0BDF80000E8
:10184000204028B14FF400411D48FFF785F804E01F
:101850004FF400411A48FFF71BF84FF400511848A5
:10186000FFF77AF80A2002F0F9FA4FF40051144811
:10187000FFF70EF80A2002F0F1FA4FF40051104879
:10188000FFF76AF84FF480410D48FEF76FFF30B163
:101890000A484078BDF80010084308494870BDF870
:1018A00000004FF6FF7101EA40000090BDF8000013
:1018B000FF28C3DD102002F0D1FA38BD60280020D7
:1018C0000004024010B5FFF7A3FF00F077F81C48B2
:1018D000C0781B49097940EA01201A490880084666
:1018E000008808B9002010BD002422E0164810F836
:1018F0001400401E012101FA00F012490988084035
:10190000A8B9601C012806D11048007818B9012038
:101910000E49087008E0601C012805D10B480078CA
:10192000012801D10020DEE7601CC0B2DBE7601CAB
:10193000C4B2102CDADB00200449087000BFD2E7E3
:101940006028002014280020182800203C280020AF
:101950001CB50020009001900121022000F004F944
:101960004FF48040009000208DF8040002208DF894
:10197000070069461048FEF739FD4FF4004000901B
:1019800001208DF8040000208DF8060002208DF85B
:10199000050069460848FEF729FD4FF40050009005
:1019A00069460548FEF722FD4FF4805000906946D5
:1019B0000148FEF71BFD1CBD000402401CB50020C1
:1019C00001900120009001032948FEF761FF294999
:1019D0000878FFF729FF27494878FFF725FF0220FD
:1019E00001903BE0012000902CE04FF40051204892
:1019F000FEF7B2FF0A2002F031FA4FF400511C4802
:101A0000FEF746FF0A2002F029FA4FF40051184869
:101A1000FEF7A2FF4FF480411548FEF7A7FE50B134
:101A200015489DF80410405CBDF8001008431249A9
:101A30009DF804208854BDF800004FF6FF7101EABC
:101A400040000090BDF80000FF28CEDD102002F01D
:101A500005FA9DF80400401CC0B201909DF80400F6
:101A60000928BFDB4FF480510148FEF775FF1CBD0C
:101A700000040240162800206028002010B503F062
:101A800097F90A21B0FBF1F201FB120000B110BD81
:101A9000FFF718FF04460D2C60D2DFE804F05F0763
:101AA0005F5F5F0F2D1923554B41370002F000FA9D
:101AB00000BFFFF707FF0128FBD052E000BF012263
:101AC0000021032002F028FF00BFFFF7E9F848E0FB
:101AD00000BF02220021032002F01EFF00BFFFF71B
:101AE000A9F83EE000BF03220021104602F014FFD7
:101AF00000BFFFF75BF934E000BF042200210320A0
:101B000002F00AFF00BFFFF787F92AE000BF0822B2
:101B10000021032002F000FF00BFFFF791FB20E04F
:101B200000BF07220021032002F0F6FE00BFFFF7EE
:101B300051FB16E000BF06220021032002F0ECFE5C
:101B400000BFFFF7DBFA0CE000BF052200210320F5
:101B500002F0E2FE00BFFFF79BFA02E0FFF704FB92
:101B600000BF00BF00BF92E770B504460D461048A5
:101B7000204008B904B104E040F63B010DA003F099
:101B800073F80DB1012D00D104E040F63D0109A02C
:101B900003F06AF82DB11448006820431249086028
:101BA00004E011480068A0430F49086070BD0000C0
:101BB00000E80B012E2E5C53544D333246347878B6
:101BC0005F5374645065726970685F4472697665CA
:101BD000725C7372635C73746D3332663478785FF1
:101BE0007263632E630000003038024070B5044613
:101BF0000D4604F4585008B904B104E040F6B201AF
:101C00000CA003F031F80DB1012D00D104E040F635
:101C1000B30108A003F028F82DB113480068204351
:101C20001149086004E010480068A0430E490860AC
:101C300070BD00002E2E5C53544D333246347878FC
:101C40005F5374645065726970685F447269766549
:101C5000725C7372635C73746D3332663478785F70
:101C60007263632E630000004038024070B5044682
:101C70000D461048204008B904B104E040F6E601E2
:101C80000DA002F0F1FF0DB1012D00D104E040F6EE
:101C9000E70109A002F0E8FF2DB1144800682043D5
:101CA0001249086004E011480068A0430F49086029
:101CB00070BD00000C0008F02E2E5C53544D3332E2
:101CC000463478785F5374645065726970685F4415
:101CD00072697665725C7372635C73746D333266BD
:101CE0003478785F7263632E6300000044380240EA
:101CF000F0B5002100220024022500260223324FE5
:101D00003F6807F00C0121B1042905D0082937D11B
:101D100005E02E4F076036E02D4F076033E02A4F75
:101D20003F1F3F68C7F38056274F3F1F3F6807F0AC
:101D30003F036EB1264FB7FBF3F7DFF88CC0ACF171
:101D4000040CDCF800C0CCF3881C07FB0CF40CE09E
:101D50001E4FB7FBF3F7DFF870C0ACF1040CDCF8F2
:101D600000C0CCF3881C07FB0CF4174F3F1F3F68E3
:101D7000C7F301477F1C7D00B4FBF5F7076002E065
:101D8000124F076000BF00BF0F4F3F6807F0F00120
:101D90000909104F7A5C0768D74047600A4F3F68CF
:101DA00007F4E051890A0B4F7A5C4768D740876097
:101DB000054F3F6807F46041490B064F7A5C47685E
:101DC000D740C760F0BD0000083802400024F4008E
:101DD00040787D01000000201CB50020009001909B
:101DE00001213820FFF7C0FE4020009001208DF82F
:101DF000040000208DF8060002208DF805006946D9
:101E00000F48FEF7F3FA4FF40070009069460D4852
:101E1000FEF7ECFA4FF40040009069460A48FEF7DE
:101E2000E5FA40210648FEF733FD4FF400710548FE
:101E3000FEF72EFD4FF400410348FEF78DFD1CBD5B
:101E40000014024000100240000C024010B5602156
:101E50000C4800F0DDF898B10A4800F0C9F9C1B2A9
:101E60000948C278C078401C074BD8701846815486
:101E7000C078032804DB00201946C87001200871CF
:101E800010BD0000003C00403D28002070B5044615
:101E90000D46164884420ED0154884420BD0154892
:101EA000844208D01448844205D01448844202D0A9
:101EB0001348844200D104E040F22B2111A002F02B
:101EC000D3FE0DB1012D00D104E04FF40B710DA034
:101ED00002F0CAFE25B1208840F04000208004E0D6
:101EE00020884FF6BF710840208070BD003001404F
:101EF00000380040003C00400034014000500140E8
:101F0000005401402E2E5C53544D333246347878C1
:101F10005F5374645065726970685F447269766576
:101F2000725C7372635C73746D3332663478785F9D
:101F30007370692E6300000070B505460C460026DC
:101F40001F48854214D01F48854211D01E48854243
:101F50000ED01E4885420BD01D48854208D01D4832
:101F6000854205D01C48854202D0B5F1402F00D1F2
:101F700004E040F29C4119A002F076FE802C10D0C3
:101F8000402C0ED0202C0CD0102C0AD0082C08D0BD
:101F9000042C06D0022C04D0012C02D0B4F5807F92
:101FA00000D104E040F29D410CA002F05DFE2889C2
:101FB000204008B1012600E00026304670BD000038
:101FC0000030014000380040003C00400034014037
:101FD0000050014000540140003400402E2E5C535C
:101FE000544D3332463478785F5374645065726967
:101FF00070685F4472697665725C7372635C737457
:102000006D3332663478785F7370692E6300000038
:102010002DE9F04704460D460027B8460026B14694
:102020002548844214D02548844211D02448844253
:102030000ED0244884420BD02348844208D0234841
:10204000844205D02248844202D0B4F1402F00D10E
:1020500004E04FF49C611FA002F006FE602D0BD03F
:10206000712D09D0542D07D0552D05D0562D03D0F4
:10207000532D01D0582D00D104E040F2E14115A0CC
:1020800002F0F2FD05F00F01012088401FFA80F8F0
:102090002E110120B04086B2A08800EA06092089EE
:1020A00000EA080020B1B9F1000F01D0012700E0DB
:1020B00000273846BDE8F087003001400038004076
:1020C000003C0040003401400050014000540140F9
:1020D000003400402E2E5C53544D33324634787811
:1020E0005F5374645065726970685F4472697665A5
:1020F000725C7372635C73746D3332663478785FCC
:102100007370692E630000002DE9F04104460D460E
:1021100016464FF0000800272148844214D0214879
:10212000844211D0204884420ED0204884420BD0F3
:102130001F48844208D01F48844205D01E4884426C
:1021400002D0B4F1402F00D104E040F271411BA055
:1021500002F08AFD0EB1012E00D104E040F272417E
:1021600016A002F081FD712D03D0602D01D0502DFD
:1021700000D104E040F2734110A002F075FD4FEA77
:102180002518012000FA08F087B21EB1A088384354
:10219000A08002E0A088B843A080BDE8F0810000E4
:1021A0000030014000380040003C00400034014055
:1021B0000050014000540140003400402E2E5C537A
:1021C000544D3332463478785F5374645065726985
:1021D00070685F4472697665725C7372635C737475
:1021E0006D3332663478785F7370692E6300000057
:1021F00010B504460F48844214D00F48844211D0D1
:102200000E4884420ED00E4884420BD00D488442C2
:1022100008D00D48844205D00C48844202D0B4F165
:10222000402F00D104E040F2333109A002F01CFD40
:10223000A08910BD0030014000380040003C004043
:10224000003401400050014000540140003400407F
:102250002E2E5C53544D3332463478785F53746479
:102260005065726970685F4472697665725C7372FA
:10227000635C73746D3332663478785F7370692E83
:102280006300000070B504460D461048844214D027
:102290000F48844211D00F4884420ED00E48844229
:1022A0000BD00E48844208D00D48844205D00D481A
:1022B000844202D0B4F1402F00D104E040F2433117
:1022C00009A002F0D1FCA58170BD000000300140E2
:1022D00000380040003C0040003401400050014004
:1022E00000540140003400402E2E5C53544D3332D4
:1022F000463478785F5374645065726970685F44DF
:1023000072697665725C7372635C73746D33326686
:102310003478785F7370692E6300000070B50546ED
:102320000C460026594885420ED0594885420BD0AC
:102330005848854208D05848854205D057488542BC
:1023400002D05748854200D104E040F2211155A047
:1023500002F08AFC208858B12088B0F5806F07D041
:102360002088B0F5004F03D02088B0F5404F00D151
:1023700004E04FF492714BA002F076FC6088B0F557
:10238000827F01D0608800B904E040F2251145A0A9
:1023900002F06AFCA088B0F5006F01D0A08800B9F7
:1023A00004E04FF493713FA002F05EFCE08810B1AE
:1023B000E088022800D104E040F2271139A002F0A1
:1023C00053FC208910B12089012800D104E04FF48A
:1023D000947134A002F048FC6089B0F5007F01D010
:1023E000608900B904E040F229112EA002F03CFC03
:1023F000A089A0B1A089082811D0A08910280ED0EA
:10240000A08918280BD0A089202808D0A0892828C6
:1024100005D0A089302802D0A089382800D104E056
:102420004FF495711FA002F01FFCE08910B1E08904
:10243000802800D104E040F22B111AA002F014FC15
:10244000208A012800DB04E04FF4967115A002F009
:102450000BFC2E8806F44156208861880843A18829
:102460000843E18808432189084361890843A18919
:102470000843E189084306432E80A88B4FF2FF7181
:102480000840A883208A288270BD000000300140E7
:1024900000380040003C0040003401400050014042
:1024A000005401402E2E5C53544D3332463478781C
:1024B0005F5374645065726970685F4472697665D1
:1024C000725C7372635C73746D3332663478785FF8
:1024D0007370692E6300000070B50446002505E0A6
:1024E000681CC5B2C82D01DDFF2070BD0221054862
:1024F000FFF722FD0028F3D021460248FFF7C2FE75
:102500000020F2E7003001400CB50020019000905F
:102510003448006840F480303249086000BF3148D8
:10252000006800F4003000900198401C0190009871
:1025300018B90198B0F5A04FF1D12A48006800F40D
:10254000003010B10120009001E0002000900098C0
:10255000012846D123484030006840F0805021498E
:10256000403108602048006840F440401E4908603F
:102570001C48083000681B4908310860084600689C
:1025800040F4004008600846006840F4A05008602D
:102590001648091F0860081F006840F08070091F76
:1025A000086000BF0F48006800F000700028F9D0F4
:1025B00040F205700E4908600A480830006820F0B3
:1025C00003000849083108600846006840F002002E
:1025D000086000BF03480830006800F00C000828BD
:1025E000F8D10CBD0038024000700040195440077B
:1025F000003C024010B51548006840F470001349D3
:1026000008601348006840F001001149086000208C
:102610000F49083108600E4800680E4908400C490F
:1026200008600D48091D0860081F006820F480201C
:10263000091F0860002006490C310860FFF764FF9D
:102640004FF0006001498039086010BD88ED00E05E
:1026500000380240FFFFF6FE103000240EB50020C7
:1026600000900190029001211020FFF7BFFA002096
:10267000ADF80800ADF8020069460C4801F00AFA0E
:1026800001210A4800F014F80021084800F0EEFF8C
:102690000021064801F03AFB0021044801F0BAFA93
:1026A0000021024800F0EAF80EBD000000100040D2
:1026B00070B504460D462248844226D0B4F1804FBE
:1026C00023D02048844220D01F4884421DD01F4878
:1026D00084421AD01E48844217D01E48844214D027
:1026E0001D48844211D01D4884420ED01C488442AB
:1026F0000BD01C48844208D01B48844205D01B489C
:10270000844202D01A48844200D104E040F20D21F4
:1027100018A002F0A9FA0DB1012D00D104E040F299
:102720000E2114A002F0A0FA25B1208840F080000C
:10273000208004E020884FF67F710840208070BD23
:10274000000001400004004000080040000C004070
:10275000001000400014004000040140004001400F
:10276000004401400048014000180040001C0040A7
:10277000002000402E2E5C53544D3332463478787E
:102780005F5374645065726970685F4472697665FE
:10279000725C7372635C73746D3332663478785F25
:1027A00074696D2E6300000070B504460D4619482B
:1027B000844226D0B4F1804F23D01748844220D0E1
:1027C000164884421DD0164884421AD015488442C7
:1027D00017D01548844214D01448844211D01448AC
:1027E00084420ED0134884420BD01348844208D050
:1027F0001248844205D01248844202D011488442D3
:1028000000D104E040F6B8110FA002F02DFAE84321
:10281000208270BD0000014000040040000800401C
:10282000000C004000100040001400400004014073
:1028300000400140004401400048014000180040B1
:10284000001C0040002000402E2E5C53544D3332BB
:10285000463478785F5374645065726970685F4479
:1028600072697665725C7372635C73746D33326621
:102870003478785F74696D2E6300000070B504468B
:102880000D462248844226D0B4F1804F23D0204800
:10289000844220D01F4884421DD01F4884421AD051
:1028A0001E48844217D01E48844214D01D488442DA
:1028B00011D01D4884420ED01C4884420BD01C48C5
:1028C000844208D01B48844205D01B48844202D071
:1028D0001A48844200D104E040F2532118A002F0CB
:1028E000C3F90DB1012D00D104E04FF4157114A00E
:1028F00002F0BAF925B1208840F00100208004E000
:1029000020884FF6FE710840208070BD0000014015
:102910000004004000080040000C0040001000408F
:102920000014004000040140004001400044014008
:102930000048014000180040001C004000200040FA
:102940002E2E5C53544D3332463478785F53746482
:102950005065726970685F4472697665725C737203
:10296000635C73746D3332663478785F74696D2E8E
:102970006300000070B504460D461E48844226D010
:10298000B4F1804F23D01C48844220D01B4884429D
:102990001DD01B4884421AD01A48844217D01A48C6
:1029A000844214D01948844211D0194884420ED070
:1029B000184884420BD01848844208D017488442F3
:1029C00005D01748844202D01648844200D104E062
:1029D00040F66D1114A002F047F905F47F4008B9E4
:1029E00005B104E040F66E110FA002F03DF9A5829A
:1029F00070BD0000000001400004004000080040DD
:102A0000000C004000100040001400400004014091
:102A100000400140004401400048014000180040CF
:102A2000001C0040002000402E2E5C53544D3332D9
:102A3000463478785F5374645065726970685F4497
:102A400072697665725C7372635C73746D3332663F
:102A50003478785F74696D2E6300000070B50446A9
:102A60000D4600262C48844226D0B4F1804F23D056
:102A70002A48844220D02A4884421DD029488442D2
:102A80001AD02948844217D02848844214D02848B4
:102A9000844211D0274884420ED0274884420BD06C
:102AA0002648844208D02648844205D025488442DE
:102AB00002D02548844200D104E040F68F1123A0C3
:102AC00002F0D2F8012D19D0022D17D0042D15D007
:102AD000082D13D0102D11D0202D0FD0402D0DD04A
:102AE000802D0BD0B5F5007F08D0B5F5806F05D0EF
:102AF000B5F5006F02D0B5F5805F00D104E04FF46A
:102B0000196112A002F0B0F8208A284008B101260D
:102B100000E00026304670BD000001400004004087
:102B200000080040000C004000100040001400406D
:102B300000040140004001400044014000480140C1
:102B400000180040001C0040002000402E2E5C5366
:102B5000544D3332463478785F53746450657269EB
:102B600070685F4472697665725C7372635C7374DB
:102B70006D3332663478785F74696D2E63000000BF
:102B80002DE9F04105460C464FF0000800260027CD
:102B90005F48854220D0B5F1804F1DD05D48854209
:102BA0001AD05D48854217D05C48854214D05C48F5
:102BB000854211D05B4885420ED05B4885420BD0E0
:102BC0005A48854208D05A48854205D0594885421E
:102BD00002D05948854200D104E040F2A62157A016
:102BE00002F042F8208870B1208810280BD020888D
:102BF000202808D02088302805D02088602802D0DE
:102C00002088702800D104E040F2A7214BA002F0F8
:102C10002BF8608810B16088012800D104E04FF4DF
:102C20002A7146A002F020F8A08910B1A0890228DC
:102C300000D104E040F2A92140A002F015F8288C50
:102C40004FF6FE71084028842E8CAF88B5F81880A6
:102C50004FF68F7008EA0008881E08EA00082088EE
:102C600040EA0808481E0640A089064360880643DB
:102C70002748854202D02A48854241D1A08810B118
:102C8000A088042800D104E040F2C6212BA001F066
:102C9000EBFFE08910B1E089082800D104E040F2A0
:102CA000C72126A001F0E0FF608AB0F5007F01D0C7
:102CB000608A00B904E04FF4327120A001F0D4FF23
:102CC000208AB0F5807F01D0208A00B904E040F26C
:102CD000C9211AA001F0C8FF4FF6F7700640E0893D
:102CE00006434FF6FB700640A08806434FF6FF6090
:102CF00007404FF6FF500740208A0743608A07438A
:102D0000AF80A5F81880A06868632E84BDE8F081C4
:102D1000000001400004004000080040000C00409A
:102D200000040140004001400044014000480140CF
:102D300000180040001C0040002000402E2E5C5374
:102D4000544D3332463478785F53746450657269F9
:102D500070685F4472697665725C7372635C7374E9
:102D60006D3332663478785F74696D2E63000000CD
:102D700070B504460D4600261C48844220D0B4F1AC
:102D8000804F1DD01A4884421AD01A48844217D066
:102D90001948844214D01948844211D018488442FA
:102DA0000ED0184884420BD01748844208D01748E8
:102DB000844205D01648844202D01648844200D18D
:102DC00004E040F2DB4114A001F04EFF082D00D0DA
:102DD00005B904E040F2DC410FA001F045FF268B6D
:102DE0004FF6F77006402E43268370BD0000014069
:102DF0000004004000080040000C004000040140B6
:102E000000400140004401400048014000180040DB
:102E1000001C0040002000402E2E5C53544D3332E5
:102E2000463478785F5374645065726970685F44A3
:102E300072697665725C7372635C73746D3332664B
:102E40003478785F74696D2E630000002DE9F041DD
:102E500005460C464FF000080026002763488542CF
:102E600014D0B5F1804F11D0614885420ED0614831
:102E700085420BD06048854208D06048854205D025
:102E80005F48854202D05F48854200D104E040F2AD
:102E9000F7215DA001F0E8FE208870B1208810289D
:102EA0000BD02088202808D02088302805D0208802
:102EB000602802D02088702800D104E04FF43E71D1
:102EC00051A001F0D1FE608810B16088012800D1C6
:102ED00004E040F2F9214CA001F0C6FEA08910B137
:102EE000A089022800D104E040F2FA2146A001F0B6
:102EF000BBFE288C4FF6EF71084028842E8CAF88DB
:102F0000B5F8188048F6FF7008EA00084FF6FF4051
:102F100008EA000820884FF6FF7101EA002040EA25
:102F200008084FF6DF700640A08901EA001006434A
:102F3000608801EA001006432C48854202D02F48E1
:102F400085424BD1A08810B1A088042800D104E0AC
:102F50004FF446712CA001F087FEE08910B1E089A2
:102F6000082800D104E040F2193127A001F07CFECE
:102F7000608AB0F5007F01D0608A00B904E040F2B9
:102F80001A3121A001F070FE208AB0F5807F01D0B7
:102F9000208A00B904E040F21B311BA001F064FE5E
:102FA0004FF67F700640E0894FF6FF7101EA00108E
:102FB00006434FF6BF700640A08801EA00100643A2
:102FC0004FF6FF3007404FF2FF700740208A01EABA
:102FD00080000743608A01EA80000743AF80A5F8BC
:102FE0001880A068A8632E84BDE8F081000001402D
:102FF0000004004000080040000C004000040140B4
:1030000000400140001800402E2E5C53544D3332D6
:10301000463478785F5374645065726970685F44B1
:1030200072697665725C7372635C73746D33326659
:103030003478785F74696D2E6300000070B50446C3
:103040000D4600261848844214D0B4F1804F11D0A8
:10305000164884420ED0164884420BD0154884424C
:1030600008D01548844205D01448844202D0144840
:10307000844200D104E040F2F94112A001F0F4FDD5
:10308000082D00D005B904E040F2FA410DA001F08E
:10309000EBFD268B4FF2FF7006404FF6FF7000EA03
:1030A00005200643268370BD000001400004004057
:1030B00000080040000C00400004014000400140B6
:1030C000001800402E2E5C53544D3332463478782D
:1030D0005F5374645065726970685F4472697665A5
:1030E000725C7372635C73746D3332663478785FCC
:1030F00074696D2E630000002DE9F04105460C4611
:103100004FF00008002600275F4885420ED0B5F139
:10311000804F0BD05D48854208D05D48854205D080
:103120005C48854202D05C48854200D104E04FF4FF
:1031300052715AA001F098FD208870B120881028A3
:103140000BD02088202808D02088302805D020885F
:10315000602802D02088702800D104E040F2493174
:103160004EA001F081FD608810B16088012800D177
:1031700004E040F24A3149A001F076FDA08910B187
:10318000A089022800D104E040F24B3143A001F0B5
:103190006BFD288C4FF6FF61084028842E8CAF8889
:1031A000B5F81C804FF68F7008EA00084FF6FC70E7
:1031B00008EA0008208840EA08084FF6FF50064059
:1031C000A0894FF6FF7101EA00200643608801EAFA
:1031D000002006432C48854202D02F4885424BD11F
:1031E000A08810B1A088042800D104E04FF45A71DF
:1031F0002AA001F039FDE08910B1E089082800D14A
:1032000004E040F2693125A001F02EFD608AB0F59E
:10321000007F01D0608A00B904E040F26A311FA04B
:1032200001F022FD208AB0F5807F01D0208A00B90C
:1032300004E040F26B3119A001F016FD4FF2FF706F
:103240000640E0894FF6FF7101EA002006434FF681
:10325000FF300640A08801EA002006434EF6FF70CA
:1032600007404DF6FF700740208A01EA001007432F
:10327000608A01EA00100743AF80A5F81C80A068AF
:10328000E8632E84BDE8F0810000014000040040A6
:1032900000080040000C0040000401402E2E5C534A
:1032A000544D3332463478785F5374645065726994
:1032B00070685F4472697665725C7372635C737484
:1032C0006D3332663478785F74696D2E6300000068
:1032D00070B504460D460026134884420ED0B4F162
:1032E000804F0BD01148844208D01148844205D049
:1032F0001048844202D01048844200D104E040F2D9
:1033000016510EA001F0B0FC082D00D005B904E064
:1033100040F2175109A001F0A7FCA68B4FF6F770F9
:1033200006402E43A68370BD00000140000400400B
:1033300000080040000C0040000401402E2E5C53A9
:10334000544D3332463478785F53746450657269F3
:1033500070685F4472697665725C7372635C7374E3
:103360006D3332663478785F74696D2E63000000C7
:103370002DE9F04104460D4600270026B046454899
:1033800084420ED0B4F1804F0BD04348844208D021
:103390004248844205D04248844202D04148844297
:1033A00000D104E04FF466713FA001F05DFC288875
:1033B00070B1288810280BD02888202808D02888A9
:1033C000302805D02888602802D02888702800D1AD
:1033D00004E040F2993134A001F046FC688810B155
:1033E0006888012800D104E040F29A312EA001F053
:1033F0003BFCA88910B1A889022800D104E040F262
:103400009B3129A001F030FC208C4EF6FF71084062
:103410002084268CB4F80480A78B48F6FF70074000
:103420004FF6FF40074028884FF6FF7101EA002061
:1034300007434DF6FF700640A88901EA00300643B5
:10344000688801EA003006431248844202D01548D9
:10345000844216D1288AB0F5807F01D0288A00B92D
:1034600004E040F2B93110A001F0FEFB4BF6FF7012
:1034700008EA0008288A4FF6FF7101EA801040EA46
:103480000808A4F80480A783A86820642684BDE8FF
:10349000F0810000000001400004004000080040EE
:1034A000000C0040000401402E2E5C53544D33327A
:1034B000463478785F5374645065726970685F440D
:1034C00072697665725C7372635C73746D333266B5
:1034D0003478785F74696D2E6300000070B504461F
:1034E0000D460026154884420ED0B4F1804F0BD013
:1034F0001348844208D01348844205D012488442BD
:1035000002D01248844200D104E040F2335110A0AE
:1035100001F0AAFB082D00D005B904E040F23451B7
:103520000BA001F0A1FBA68B4FF2FF7006404FF6F7
:10353000FF7000EA05200643A68370BD000001402D
:103540000004004000080040000C0040000401405E
:103550002E2E5C53544D3332463478785F53746466
:103560005065726970685F4472697665725C7372E7
:10357000635C73746D3332663478785F74696D2E72
:103580006300000070B504460E4615461D4884428F
:1035900026D0B4F1804F23D01B48844220D01B4852
:1035A00084421DD01A4884421AD01A48844217D047
:1035B0001948844214D01948844211D018488442D2
:1035C0000ED0184884420BD01748844208D01748C0
:1035D000844205D01648844202D01648844200D165
:1035E00004E040F26B1114A001F03EFB0DB1012D7F
:1035F00000D104E04FF4B6710FA001F035FB268531
:10360000A58270BD00000140000400400008004099
:10361000000C004000100040001400400004014075
:1036200000400140004401400048014000180040B3
:10363000001C0040002000402E2E5C53544D3332BD
:10364000463478785F5374645065726970685F447B
:1036500072697665725C7372635C73746D33326623
:103660003478785F74696D2E6300000070B504468D
:103670000D462148844226D0B4F1804F23D01F4804
:10368000844220D01E4884421DD01E4884421AD055
:103690001D48844217D01D48844214D01C488442DF
:1036A00011D01C4884420ED01B4884420BD01B48CA
:1036B000844208D01A48844205D01A48844202D075
:1036C0001948844200D104E04FF40A7117A001F0B8
:1036D000CBFA082D00D005B904E040F2292113A04F
:1036E00001F0C2FA20884FF6F77108402080208848
:1036F0002843208070BD000000000140000400400D
:1037000000080040000C0040001000400014004081
:1037100000040140004001400044014000480140D5
:1037200000180040001C0040002000402E2E5C537A
:10373000544D3332463478785F53746450657269FF
:1037400070685F4472697665725C7372635C7374EF
:103750006D3332663478785F74696D2E63000000D3
:1037600070B504460D461948844226D0B4F1804F06
:1037700023D01748844220D0164884421DD01648D2
:1037800084421AD01548844217D01548844214D078
:103790001448844211D0144884420ED01348844205
:1037A0000BD01348844208D01248844205D01248F6
:1037B000844202D01148844200D104E040F2AB11AF
:1037C0000FA001F051FAE56270BD00000000014059
:1037D0000004004000080040000C004000100040C1
:1037E000001400400004014000400140004401403A
:1037F0000048014000180040001C0040002000402C
:103800002E2E5C53544D3332463478785F537464B3
:103810005065726970685F4472697665725C737234
:10382000635C73746D3332663478785F74696D2EBF
:103830006300000070B504460D461648844220D04F
:10384000B4F1804F1DD0144884421AD013488442EA
:1038500017D01348844214D01248844211D0124821
:1038600084420ED0114884420BD01148844208D0C3
:103870001048844205D01048844202D00F48844248
:1038800000D104E040F227410DA001F0EDF965639D
:1038900070BD00000000014000040040000800402E
:1038A000000C004000040140004001400044014081
:1038B0000048014000180040001C0040002000406B
:1038C0002E2E5C53544D3332463478785F537464F3
:1038D0005065726970685F4472697665725C737274
:1038E000635C73746D3332663478785F74696D2EFF
:1038F0006300000070B504460D461048844214D0A1
:10390000B4F1804F11D00E4884420ED00D4884424D
:103910000BD00D48844208D00C48844205D00C4896
:10392000844202D00B48844200D104E040F2374187
:1039300009A001F099F9A56370BD000000000140E5
:103940000004004000080040000C0040000401405A
:1039500000400140001800402E2E5C53544D33327D
:10396000463478785F5374645065726970685F4458
:1039700072697665725C7372635C73746D33326600
:103980003478785F74696D2E6300000070B504466A
:103990000D460D4884420ED0B4F1804F0BD00B4839
:1039A000844208D00A48844205D00A48844202D0A2
:1039B0000948844200D104E040F2464107A001F0EA
:1039C00053F9E56370BD00000000014000040040B1
:1039D00000080040000C0040000401402E2E5C5303
:1039E000544D3332463478785F537464506572694D
:1039F00070685F4472697665725C7372635C73743D
:103A00006D3332663478785F74696D2E6300000020
:103A100070B504460D460D4884420ED0B4F1804F77
:103A20000BD00B48844208D00A48844205D00A488B
:103A3000844202D00948844200D104E040F255415A
:103A400007A001F011F9256470BD000000000140DD
:103A50000004004000080040000C00400004014049
:103A60002E2E5C53544D3332463478785F53746451
:103A70005065726970685F4472697665725C7372D2
:103A8000635C73746D3332663478785F74696D2E5D
:103A90006300000070B504460D460026434884428A
:103AA00026D0B4F1804F23D04148844220D04148F1
:103AB00084421DD0404884421AD04048844217D0E6
:103AC0003F48844214D03F48844211D03E4884424B
:103AD0000ED03E4884420BD03D48844208D03D4839
:103AE000844205D03C48844202D03C48844200D104
:103AF00004E040F225113AA001F0B6F8688858B108
:103B00006888102808D06888202805D06888402850
:103B100002D06888602800D104E04FF4937130A08F
:103B200001F0A2F8288938B12889B0F5807F03D048
:103B30002889B0F5007F00D104E040F2271128A0C9
:103B400001F092F82688194884420ED01D4884421C
:103B50000BD0B4F1804F08D01548844205D01548E9
:103B6000844202D01448844204D14FF68F7006403C
:103B7000688806431148844207D01148844204D023
:103B80004FF6FF4006402889064326806868E062B9
:103B9000288820850548844202D00A48844201D101
:103BA000A87A20860120A08270BD0000000001409C
:103BB0000004004000080040000C004000100040DD
:103BC0000014004000040140004001400044014056
:103BD0000048014000180040001C00400020004048
:103BE0002E2E5C53544D3332463478785F537464D0
:103BF0005065726970685F4472697665725C737251
:103C0000635C73746D3332663478785F74696D2EDB
:103C10006300000070B504460D462248844226D059
:103C2000B4F1804F23D02048844220D01F488442E2
:103C30001DD01F4884421AD01E48844217D01E4807
:103C4000844214D01D48844211D01D4884420ED0B5
:103C50001C4884420BD01C48844208D01B48844234
:103C600005D01B48844202D01A48844200D104E0A7
:103C700040F2D71118A000F0F7FF0DB1012D00D1CF
:103C800004E04FF4EC7114A000F0EEFF25B12088A1
:103C900040F00200208004E020884FF6FD710840CB
:103CA000208070BD0000014000040040000800407A
:103CB000000C0040001000400014004000040140CF
:103CC000004001400044014000480140001800400D
:103CD000001C0040002000402E2E5C53544D333217
:103CE000463478785F5374645065726970685F44D5
:103CF00072697665725C7372635C73746D3332667D
:103D00003478785F74696D2E6300000070B50446E6
:103D10000D462248844226D0B4F1804F23D020485B
:103D2000844220D01F4884421DD01F4884421AD0AC
:103D30001E48844217D01E48844214D01D48844235
:103D400011D01D4884420ED01C4884420BD01C4820
:103D5000844208D01B48844205D01B48844202D0CC
:103D60001A48844200D104E04FF4FA7118A000F020
:103D70007BFF0DB1012D00D104E040F2F51114A03C
:103D800000F072FF25B1208840F00400208004E09C
:103D900020884FF6FB710840208070BD0000014074
:103DA0000004004000080040000C004000100040EB
:103DB0000014004000040140004001400044014064
:103DC0000048014000180040001C00400020004056
:103DD0002E2E5C53544D3332463478785F537464DE
:103DE0005065726970685F4472697665725C73725F
:103DF000635C73746D3332663478785F74696D2EEA
:103E00006300000010B50446002242F2CF011248C0
:103E1000FFF7B8FB04EB840041000F48FFF7A0FC5C
:103E200001210D48FEF7A6FD01210B48FEF7BCFC61
:103E300001210948FEF722FD00BF01210648FEF7D7
:103E40000DFE0028F9D001210348FEF7ADFC00214A
:103E50000148FEF713FD10BD0010004010B50446E8
:103E6000002253211148FFF78DFB21460F48FFF731
:103E700077FC01210D48FEF77DFD01210B48FEF77F
:103E800093FC01210948FEF7F9FC00BF0121074816
:103E9000FEF7E4FD0028F9D001210448FEF784FC78
:103EA00000210248FEF7EAFC10BD000000100040AF
:103EB0000548007818B901200349087002E0002085
:103EC00001490870704700004428002010B540F2F6
:103ED0002551134800F0B2F980B1114800F056FCAA
:103EE000C1B2104802780078401C0E4B18700E4882
:103EF000815440F225510A4800F01AF840F224415A
:103F0000074800F09BF950B10020064908700120D5
:103F100006490870024800880148001D008810BD4D
:103F200000480040102800205628002011280020BA
:103F30002DE9F04104460D46002600272B48844217
:103F40001AD02B48844217D02A48844214D02A48D9
:103F5000844211D0294884420ED0294884420BD093
:103F60002848844208D02848844205D02748844203
:103F700002D02748844200D104E04FF4B66125A066
:103F800000F072FE40F2266085420BD040F22550D0
:103F9000854207D040F64600854203D040F66A10BD
:103FA000854200D104E040F2B1511AA000F05CFE5D
:103FB00040F66A10854211D10C48844208D00C4862
:103FC000844205D00B48844202D00D48844200D17F
:103FD00004E040F2B6510FA000F046FE2E12012080
:103FE000B04087B2F8432080BDE8F0810010014066
:103FF0000044004000480040004C00400050004099
:104000000014014000780040007C0040001801408E
:10401000001C01402E2E5C53544D333246347878C8
:104020005F5374645065726970685F447269766545
:10403000725C7372635C73746D3332663478785F6C
:1040400075736172742E630070B504460D461C488A
:1040500084421AD01B48844217D01B48844214D093
:104060001A48844211D01A4884420ED0194884421A
:104070000BD01948844208D01848844205D018480B
:10408000844202D01748844200D104E04FF4D77133
:1040900015A000F0E9FD0DB1012D00D104E040F2C2
:1040A000AF1111A000F0E0FD25B1A08940F400504F
:1040B000A08104E0A0894DF6FF710840A08170BD89
:1040C000001001400044004000480040004C004007
:1040D000005000400014014000780040007C004087
:1040E00000180140001C01402E2E5C53544D333209
:1040F000463478785F5374645065726970685F44C1
:1041000072697665725C7372635C73746D33326668
:104110003478785F75736172742E630070B50446ED
:104120000D4600262E4884421AD02E48844217D0CD
:104130002D48844214D02D48844211D02C4884420A
:104140000ED02C4884420BD02B48844208D02B48F8
:10415000844205D02A48844202D02A48844200D1B1
:1041600004E040F2135128A000F07EFD012D13D091
:10417000802D11D0402D0FD0202D0DD0102D0BD023
:10418000B5F5807F08D0B5F5007F05D0082D03D0A8
:10419000042D01D0022D00D104E040F214511AA0E8
:1041A00000F062FDB5F5007F11D10D48844208D0C2
:1041B0000C48844205D00C48844202D00D48844209
:1041C00000D104E040F219510FA000F04DFD20880D
:1041D000284008B1012600E00026304670BD0000EE
:1041E000001001400044004000480040004C0040E6
:1041F000005000400014014000780040007C004066
:1042000000180140001C01402E2E5C53544D3332E7
:10421000463478785F5374645065726970685F449F
:1042200072697665725C7372635C73746D33326647
:104230003478785F75736172742E63002DE9F047EE
:1042400004460D4600270026B046B1464748844242
:104250001AD04748844217D04648844214D0464872
:10426000844211D0454884420ED0454884420BD048
:104270004448844208D04448844205D0434884429C
:1042800002D04348844200D104E040F2675141A08B
:1042900000F0EAFC282D27D040F22770854223D079
:1042A00040F2266085421FD040F2255085421BD047
:1042B00040F22440854217D040F64600854213D094
:1042C00040F66A1085420FD0B5F5587F0CD040F209
:1042D0002530854208D0B5F5587F05D0B5F5187F53
:1042E00002D0B5F5B07F00D104E04FF4AD6129A054
:1042F00000F0BAFC40F66A10854211D11B48844296
:1043000008D01B48844205D01A48844202D01C4879
:10431000844200D104E040F26D511EA000F0A4FCE4
:10432000C5F3421805F01F06012000FA06F6B8F1A1
:10433000010F02D1A089064007E0B8F1020F02D1B7
:10434000208A064001E0A08A06402F12012000FAD0
:1043500007F7208807401EB117B14FF0010901E0AF
:104360004FF000094846BDE8F0870000001001400A
:104370000044004000480040004C00400050004015
:104380000014014000780040007C0040001801400B
:10439000001C01402E2E5C53544D33324634787845
:1043A0005F5374645065726970685F4472697665C2
:1043B000725C7372635C73746D3332663478785FE9
:1043C00075736172742E63002DE9F04704460D4643
:1043D00017464FF00008C246C146002641488442B5
:1043E0001AD04148844217D04048844214D04048F3
:1043F000844211D03F4884420ED03F4884420BD0C3
:104400003E48844208D03E48844205D03D4884421C
:1044100002D03D48844200D104E040F2D4413BA0A8
:1044200000F022FC282D19D040F22770854215D0CB
:1044300040F22660854211D040F2255085420DD0D1
:1044400040F22440854209D040F64600854205D01E
:1044500040F66A10854201D0602D00D104E040F2A0
:10446000D5412AA000F000FC0FB1012F00D104E0DB
:1044700040F2D64125A000F0F7FB40F66A108542D5
:1044800011D11848844208D01748844205D01748F3
:10449000844202D01848844200D104E040F2DB415B
:1044A0001AA000F0E1FB2646C5F3421805F01F0AEA
:1044B000012000FA0AF9B8F1010F01D10C3605E02C
:1044C000B8F1020F01D1103600E0143627B1306880
:1044D00040EA0900306003E0306820EA09003060FB
:1044E000BDE8F08700100140004400400048004053
:1044F000004C004000500040001401400078004093
:10450000007C004000180140001C01402E2E5C532E
:10451000544D3332463478785F5374645065726911
:1045200070685F4472697665725C7372635C737401
:104530006D3332663478785F75736172742E630000
:104540002DE9FF4704460D460026B14600BFB046A0
:10455000764884421AD07648844217D075488442FF
:1045600014D07548844211D0744884420ED07448E7
:1045700084420BD07348844208D07348844205D0EB
:104580007248844202D07248844200D103E0FE2186
:1045900070A000F069FB286820B17B492868884238
:1045A00000D203E0FF216BA000F05EFBA88818B1E9
:1045B000A888B0F5805F00D104E04FF4807165A059
:1045C00000F052FBE88858B1E888B0F5805F07D06A
:1045D000E888B0F5005F03D0E888B0F5405F00D10F
:1045E00004E040F201115BA000F03EFB288938B1E5
:1045F0002889B0F5806F03D02889B0F5C06F00D14D
:1046000004E04FF4817153A000F02EFB68894FF64F
:10461000F371084010B9688900B104E040F2031159
:104620004CA000F021FBA88958B1A889B0F5807F83
:1046300007D0A889B0F5007F03D0A889B0F5407FE6
:1046400000D104E04FF4827142A000F00DFBA88974
:1046500088B13648844208D03548844205D0354870
:10466000844202D03648844200D104E040F209116D
:1046700038A000F0F9FA268A26F44056E888064366
:104680002682A68941F20C608643A88829890843BE
:10469000698908430643A681A68A26F44076A8893C
:1046A0000643A6826846FDF723FB2048844202D0D9
:1046B0002348844202D1DDF80C9001E0DDF8089037
:1046C000A08900F4004040B109EBC90000EB0910DB
:1046D00029684900B0FBF1F707E009EBC90000EBDE
:1046E000091029688900B0FBF1F76420B7FBF0F0EE
:1046F00006013009642101FB1078A08900F4004014
:1047000040B1322000EBC800B0FBF1F000F0070030
:10471000064308E0322000EB08106421B0FBF1F002
:1047200000F00F0006432681BDE8FF87001001401E
:104730000044004000480040004C00400050004051
:104740000014014000780040007C00400018014047
:10475000001C01402E2E5C53544D33324634787881
:104760005F5374645065726970685F4472697665FE
:10477000725C7372635C73746D3332663478785F25
:1047800075736172742E6300E170720010B5044697
:10479000134884421AD01348844217D012488442E6
:1047A00014D01248844211D0114884420ED01148CE
:1047B00084420BD01048844208D01048844205D06F
:1047C0000F48844202D00F48844200D104E04FF4E5
:1047D00010710DA000F048FAA088C0F3080010BDC9
:1047E000001001400044004000480040004C0040E0
:1047F000005000400014014000780040007C004060
:1048000000180140001C01402E2E5C53544D3332E1
:10481000463478785F5374645065726970685F4499
:1048200072697665725C7372635C73746D33326641
:104830003478785F75736172742E630070B50446C6
:104840000D46184884421AD01748844217D017489A
:10485000844214D01648844211D0164884420ED0A7
:10486000154884420BD01548844208D0144884422D
:1048700005D01448844202D01348844200D104E099
:104880004FF40C7111A000F0EFF9B5F5007F00DADC
:1048900004E040F231210DA000F0E6F9C5F3080074
:1048A000A08070BD0010014000440040004800405E
:1048B000004C0040005000400014014000780040CF
:1048C000007C004000180140001C01402E2E5C536B
:1048D000544D3332463478785F537464506572694E
:1048E00070685F4472697665725C7372635C73743E
:1048F0006D3332663478785F75736172742E63003D
:104900004FF41651016000218180C18001810C218A
:1049100041810021818170472DE9F04106460F4613
:10492000144600257E2014490870FF204870062098
:1049300088700846C6700771201248718C71062174
:104940000D48401CFBF73EFDEF200B49487200BFAD
:104950000DE000BF80210948FFF7E0FB0028F9D0F7
:104960000548415D0548FFF769FF681CC5B20A2D7F
:10497000EFDBBDE8F08100004C280020004800403B
:104980001CB500200090019001210220FDF7ECF8F9
:1049900007220A211548FBF709FE07220B211348BD
:1049A000FBF704FE4FF48060009002208DF80400B5
:1049B0008DF8050000208DF8060069460B48FBF7CE
:1049C00015FD07220A210948FBF7F0FD4FF40060AE
:1049D000009000208DF8070069460448FBF706FDAB
:1049E00007220B210148FBF7E1FD1CBD000402403A
:1049F00010B5FFF7C5FF00F001F810BD00B585B098
:104A000000200190029003900490009001218804FE
:104A1000FDF7ECF84FF4165001900C20ADF80E00A5
:104A20000020ADF80C00ADF80A00ADF80800ADF8B4
:104A3000100001A90D48FFF783FD27208DF8000025
:104A400001208DF803008DF801008DF80200684602
:104A5000FCF72CFC012240F225510448FFF7B4FC7E
:104A600001210248FFF7F0FA05B000BD0048004000
:104A70000FB4054B10B503A9044A029800F018F8CA
:104A800010BC5DF814FB00009D4C00084828002075
:104A900002E008C8121F08C1002AFAD17047704707
:104AA000002001E001C1121F002AFBD17047000065
:104AB0002DE9FF4F8BB09A460F460546002606E0CB
:104AC00025280BD052460D9990476D1C761C2878EE
:104AD0000028F5D10FB03046BDE8F08F0024A04685
:104AE0000122604900E0044315F8013F203B02FA2F
:104AF00003F00842F7D128782E2817D115F8010FB6
:104B000044F004042A280ED06FF02F022878A0F178
:104B1000300109290AD808EB880102EB410100EBBA
:104B200001086D1CF2E757F8048B6D1C2878692882
:104B30003ED006DC0028CDD063280BD0642804D1F9
:104B400036E0732810D075284BD052460D99904707
:104B5000761C85E017F8040B8DF8000000208DF816
:104B60000100E946012003E057F8049B4FF0FF30B5
:104B700061074FF0000401D40AE0641C44450DDADB
:104B80008442FADB19F804100029F6D106E0641C0F
:104B90008442FCDB19F804100029F8D1264404E013
:104BA00019F8010B52460D999047641EF8D257E050
:104BB00001CF4FF00A0B002802DA40422D2102E01B
:104BC000210504D52B218DF82410012103E0E107F4
:104BD00005D02021F7E70DF1200908910CE0002114
:104BE000F9E701CF4FF00A0BF9E75946FBF70CFB49
:104BF00001F1300209F8012D0028F6D1ADEB0900D2
:104C000000F1200B600701D44FF00108D84502DD08
:104C1000A8EB0B0000E000208046002406E009A875
:104C20005246005D0D999047641C761C089884429A
:104C3000F5DB04E0302052460D999047761CB8F120
:104C40000001A8F10108F5DC05E019F8010B524656
:104C50000D999047761CBBF10001ABF1010BF4DC20
:104C60006D1C34E70928010004460D462B462246F8
:104C7000024903A0FFF7FCFEAFF30080C84E000816
:104C800025733A2066696C65202573206F6E206C51
:104C9000696E652025640D0A0000000070B50446A9
:104CA0000D46E0B200F0CCF8204670BD9CB04FF449
:104CB000A060FCF769FBFBF795FFFDF78DF8FDF7AA
:104CC000CDFCFBF771FFFCF75DF80120FCF77AF9EA
:104CD0004FF4E13000F072F8FBF72CFBFFF788FE91
:104CE00000BF032200211046FFF716FE00BFFCF7AD
:104CF00001FCFCF72DFE4C221B4909A8FBF760FACA
:104D0000132500240FE0FCF775FB09A850F82400D8
:104D100008234022002100900846FCF77EFBC820B3
:104D2000FFF770F8641CAC42EDDB1C220E494C31DD
:104D300002A8FBF745FA002410E0FCF75BFB0A2011
:104D4000FFF760F802A850F8242000210846FCF77D
:104D500033FD4FF47A70FFF755F8641C072CECDB39
:104D600001E000F019F8FCE7604E000870B5044659
:104D70000D46A01CC4B2102141EA1410FCF772FCCD
:104D8000102141EA1410FCF76DFC05F1B001C8B226
:104D9000FCF768FC70BD000010B50448007810B93D
:104DA000FCF76CFE01E0FBF789FE10BD44280020F3
:104DB00001480068704700003828002010B586B010
:104DC000044600200490059000900190029003900A
:104DD00001210846FCF7C8FE01211020FCF746FF20
:104DE000072209211448FBF7E1FB07220A21124898
:104DF000FBF7DCFB02208DF8140000208DF8160074
:104E00004FF4C060049000208DF8170003208DF847
:104E1000150004A90848FBF7E9FA6846FFF770FD9A
:104E2000009469460548FFF78BFB01210348FFF713
:104E30000BF906B010BD0000000002400010014058
:104E400010B5044600BF80210448FFF767F9002829
:104E5000F9D021460148FFF7F1FC10BD00100140D8
:104E6000100200201004002010060020100800206E
:104E7000100A0020100C0020100E0020101000203E
:104E8000101200201014002010160020101800200E
:104E9000101A0020101C0020101E002010200020DE
:104EA000102200201024002010260020E4580008C2
:104EB0001459000804590008FC580008EC58000870
:104EC0000C590008F45800086173736572745F66CA
:104ED00061696C6564004D6F746F725F53657453E4
:104EE0007065656400000000000000000000000024
:104EF0000000000000000000F800000000000000BA
:104F0000330000000000100C02100C020000000032
:104F100000000000000040C07840C0780000043F5E
:104F200004043F040000708888FC0830000018204A
:104F300020FF211E00F008F0806018000000310CF6
:104F4000031E211E0000F00888700000001E2123AF
:104F50002C1927211000120E000000000000000094
:104F60000000000000000000E01804020000000043
:104F7000071820400000020418E000000000402054
:104F80001807000000404080F0804040000202010D
:104F90000F0102020000000000E00000000001011B
:104FA000010F0101010000000000000000009070EE
:104FB00000000000000000000000000000000101EF
:104FC000010101010000000000000000000030307D
:104FD000000000000000000000C03804000060185D
:104FE000070000000000E010080810E000000F10AB
:104FF0002020100F0000001010F80000000000201A
:10500000203F202000007008080808F00000302829
:105010002422213000003008080888700000182081
:105020002121221C000000804030F800000006050D
:1050300024243F242400F8888888080800001920C8
:105040002020110E0000E0108888900000000F1151
:105050002020201F000018080888681800000000A1
:105060003E010000000070880808887000001C22C3
:105070002121221C0000F008080810E000000112A5
:105080002222110F00000000C0C00000000000003C
:105090003030000000000000800000000000000030
:1050A000E000000000000080402010080000010225
:1050B0000408102000004040404040400000020230
:1050C00002020202000008102040800000002010B0
:1050D0000804020100007048080888700000000001
:1050E0003037000000C030C828E810E0000718275B
:1050F000282F2817000000C038E0000000203C23C3
:10510000020227382008F8888888700000203F2095
:105110002020110E00C030080808083800071820A9
:10512000202010080008F808080810E000203F20A0
:105130002020100F0008F88888E8081000203F2081
:10514000202320180008F88888E8081000203F2055
:105150000003000000C030080808380000071820CD
:1051600020221E020008F808000008F808203F214D
:105170000101213F20000808F80808000000202055
:105180003F2020000000000808F8080800C08080C8
:10519000807F00000008F888C028180800203F2001
:1051A000012638200008F8080000000000203F20F9
:1051B000202020300008F8F800F8F80800203F010F
:1051C0003E013F200008F830C00008F808203F20CA
:1051D0000007183F00E01008080810E0000F10203A
:1051E0002020100F0008F808080808F000203F21D0
:1051F0000101010000E01008080810E0000F10286D
:105200002830504F0008F8888888887000203F2098
:1052100000030C302000708808080838000038208F
:105220002121221C00180808F80808180000002096
:105230003F2000000008F808000008F808001F20C0
:105240002020201F000878880000C83808000007C8
:10525000380E01000008F800F800F8080000033ECE
:10526000013E030000081868808068180820302C70
:1052700003032C30200838C800C83808000000207C
:105280003F2000000010080808C838080020382611
:105290002120201800000000FE0202020000000091
:1052A0007F40404000000438C000000000000000C3
:1052B000010638C00000020202FE0000000040406B
:1052C000407F000000000004020204000000000013
:1052D000000000000000000000000000008080804E
:1052E0008080808080000202040000000000000036
:1052F00000000000000000808080000000001924F1
:1053000024123F200010F0008080000000003F11B8
:105310002020110E000000008080800000000E118F
:105320002020201100000080808090F000001F20CD
:105330002020103F200000808080800000001F247B
:105340002424241700008080E0909020000020207A
:105350003F202000000000808080808000006B944F
:10536000949493600010F0008080800000203F2122
:105370000000203F200080989800000000002020BE
:105380003F20200000000000809898000000C080AE
:1053900080807F000010F0000080808000203F248B
:1053A0000629302000001010F80000000000202026
:1053B0003F202000008080808080808000203F206F
:1053C000003F20003F8080008080800000203F213F
:1053D0000000203F200000808080800000001F200F
:1053E0002020201F00808000808000000080FF912E
:1053F0002020110E000000008080008000000E11AF
:10540000202091FF80808080008080800020203FCD
:105410002120000100000080808080800000332473
:105420002424241900008080E08080000000000017
:105430001F202010008080000000808000001F20BE
:105440002020103F20808080008080800000030C9E
:10545000300C0300008080008080008080010E30CE
:105460000C07380601008080800080800000203119
:105470000E2E312000808080000080808000818698
:105480007818060100008080808080800000213034
:105490002C222130000000000000FC02020000006D
:1054A00000013E404000000000FF0000000000003E
:1054B00000FF0000000202FC000000000040403E2F
:1054C00001000000000002010202040200000000CE
:1054D00000000000000000000000000000000000CC
:1054E0000000000000BCC3C4CFD0C5D3AFB4EFC32D
:1054F000F7CCECC4E3BAC3D5C5BEB0B3ACCDF5DCD4
:10550000E7D4F3D1A6ECCFE8DFB5A5CFB2C7BFB4DF
:10551000DECFFED4F3C5EDBCCECEF5CCB7C3F7BD20
:10552000DC001060028C00040C94A546A4940C04CA
:10553000040004047E010081611E000000FE0101E0
:10554000010004E4242464A4243F24A4642424E467
:10555000040000FF00080909097F09090948807F44
:105560000000008060F80700042424252624242459
:105570000400010000FF000000F94949494949F9C8
:105580000000000082621E0AAA4ABA021A9610F0AF
:10559000000040417C44447D4444447D44447D407B
:1055A0004000404042CC00101010907F901010102E
:1055B00010000040201F2048444241404041424CDE
:1055C000400000FC444444FC0000FE22222222FE53
:1055D0000000000F0404048F40300F020242827F5B
:1055E000000040404242424242FE42424242424069
:1055F000400080804020100C0300030C10204080ED
:105600008000008060F8074020180F08C8080828AC
:105610001800010000FF00100C0340807F0001060D
:1056200018001010F01F10F000808282E2928A862B
:105630008000402215081661000040807F000000B5
:10564000000002E222223E8080FF80A090888680B7
:105650008000004382423E0000FF402106081020E7
:1056600040004040405F555555755555555F404089
:1056700040000040200F094989790909090F20409D
:10568000000040484848FF484842A29E82A2C2BE4D
:10569000000080601F207F4444404F484848484FE6
:1056A000400000028282828282FE828282828202A4
:1056B0000000404040404040407F4040404040402B
:1056C00040002424242424EF242424EF242424240C
:1056D00024000000FF5149474141414F5151FF0013
:1056E00000001060028C0082864A52A2524A8680D4
:1056F000800004047E010010121212FF1212121018
:10570000000004E424342FE40444C4546F44C4442B
:10571000040000FF494949F902121213FE13121244
:105720000200807000FF1008007E2AAA2A2A2A7E22
:105730000000806018070850424A52424342524AD1
:1057400042001010D0FF901000028E5222528A06A2
:105750000000040300FF0001414544447F444445E8
:1057600041000000F8494A4C48F8484C4A49F800C2
:10577000000010101312121212FF12121212131044
:1057800010000002EAAAAAAAAAAFAAAAAAAAEA0232
:1057900000000202FA4A4B4A4A4A4A4A4B4AFA0273
:1057A000020002E222223E00809E9292F292929E9B
:1057B0008000004382423E40474444447F44445476
:1057C000E700000684E43C24242FF4242424242627
:1057D0000000020100FF494949497F4949494940C0
:1057E000000000FC8484FC0088884F58245484E422
:1057F0000000003F10103F8042320E02023E424243
:1058000072001060028C0082864A52A2524A868040
:10581000800004047E010010121212FF12121210F6
:10582000000004A4A4A4BFA4A4A40400201008861B
:10583000600040C7546444243427208084422110EF
:105840000C0002020AEAAAAAAAAFAAAAAAEA0A02B3
:105850000200824A2A1E0B4A8A7A02FA4B4A4AFA04
:10586000020000FE02F2929E92F200FE2222223EEE
:10587000000080473404041764041463040414E42F
:105880000700404042CC00003AAAAABEAABEAAAA7B
:105890003A000000003F1008202F2A2AFA2A2A2F57
:1058A000200000FC444444FC0000FE22222222FE90
:1058B0000000000F0404048F40300F020242827F78
:1058C000000000080888482818FF18284888080899
:1058D000000082423100001060071060000011E2F9
:1058E00002000000D5C5BEB0B3AC0000B5A5CFB274
:1058F000C7BF0000CCB7C3F7BDDC0000D1A6ECCF1A
:10590000E8DF0000CDF5DCE7D4F30000B4DECFFE25
:10591000D4F30000C5EDBCCECEF500003C59000824
:10592000000000204C28000058020008B85A000867
:105930004C28002054600000A04A000812000120FA
:1059400005010203040400069106070809FF01503F
:10595000067F3F1F0F1F01000A250F07070F1F3F7C
:105960003F3F7F3B10057FFFE781E3500D060600B8
:105970000C0C0E0C0C02070200010223437D0007F1
:1059800013FEFCF9F18000010006210878F3F3F71B
:1059900043E0089F8780C0E0E0F0010009FFE0C01D
:1059A00080CFFFFBFBFF010925007B3F3F000A275B
:1059B0001F0015C26BC78000BA0600062207FE0B47
:1059C00018FEFC000807220078F9F9FDFD000A1511
:1059D000C0000AFFC7000D24010459000A333F002C
:1059E0004A83003C04060C0E00046A03000E2003E8
:1059F000FD0312FD01040415F9F9F9FF0C0820005C
:105A000038F8FCFCFCFE00042E800004E9011EE0D6
:105A100000040AFFE3000DFF000409FF000DFF0072
:105A20000801FF010DFF000401FF010DFF00080147
:105A3000FF010DFF000401FF010DFF000801FF0140
:105A40000DFF000401FF010DFF000801FF010DFF24
:105A5000000401FF010DFF000801FF010DFF00041C
:105A600001FF010DFF000801FF010DFF000401FF10
:105A7000010DFF000801FF010DFF000401FF010DF2
:105A8000FF000801FF010DFF00040D6E6B034D1CAC
:105A9000030C221301420100020003000400050070
:105AA00006000700080009000A000B000C000D00AA
:085AB0000E000F0010130300AB
:040000050800018965
:00000001FF
