:020000040800F2
:10000000B86500209D010008A5010008A9080008A6
:10001000A9010008AB010008AD01000800000000C4
:10002000000000000000000000000000AF01000818
:10003000B101000800000000B3010008B50100088C
:10004000B7010008B7010008B7010008B7010008B0
:10005000B7010008B7010008B7010008B7010008A0
:10006000B7010008B7010008B7010008B701000890
:10007000B7010008B7010008B7010008B701000880
:10008000B7010008B7010008B7010008B701000870
:10009000B7010008B7010008B7010008B701000860
:1000A000B7010008B7010008B7010008B701000850
:1000B000B7010008B7010008B7010008B701000840
:1000C000B7010008B7010008B7010008B701000830
:1000D000B7010008B7010008B70100088D33000818
:1000E000B7010008B7010008B7010008B701000810
:1000F000B7010008B7010008B7010008B701000800
:10010000B7010008B7010008B70100087D13000817
:10011000B7010008B7010008B7010008B7010008DF
:10012000B7010008B7010008B7010008B7010008CF
:10013000B7010008B7010008B7010008B7010008BF
:10014000B7010008B7010008B7010008B7010008AF
:10015000B7010008B7010008B7010008B70100089F
:10016000B7010008B7010008B7010008B70100088F
:10017000B7010008B7010008B7010008B70100087F
:10018000B7010008B7010008DFF80CD000F040F814
:10019000004800479D3E0008B8650020064880479B
:1001A00006480047FEE7FEE7FEE7FEE7FEE7FEE75C
:1001B000FEE7FEE7FEE7FEE7251B000889010008D1
:1001C000D2B201E000F8012B491EFBD27047002299
:1001D000F6E710B513460A4604461946FFF7F0FF46
:1001E000204610BD30B50B460146002020220124D8
:1001F00009E021FA02F59D4205D303FA02F5491BF5
:1002000004FA02F52844151EA2F10102F1DC30BD0A
:10021000064C074D06E0E06840F0010394E8070053
:1002200098471034AC42F6D3FFF7B2FFDC3F00082A
:10023000FC3F000870B58C1810F8015B15F007033F
:1002400001D110F8013B2A1106D110F8012B03E06F
:1002500010F8016B01F8016B5B1EF9D12B0705D477
:100260000023521E0DD401F8013BFAE710F8013BC0
:10027000CB1A921C03E013F8015B01F8015B521EDC
:10028000F9D5A142D8D3002070BD00001CB50020D4
:10029000009001900121032000F0FEFE4FF4004089
:1002A000009002208DF804006946154800F074F8AB
:1002B00006220F21124800F04FF9202000906946D5
:1002C000104800F069F8062205210E4800F044F9B4
:1002D0000820009069460B4800F05EF806220321D2
:1002E000084800F039F91020009000208DF8040033
:1002F00001208DF807006946024800F04DF81CBD4A
:10030000000002400004024010B5FFF7BFFF00F0FC
:1003100001F810BD00B587B0142102A8FFF757FF00
:10032000002001900121C80300F0F8FE0020ADF884
:100330000800ADF80A00ADF80C00ADF80E00012081
:10034000ADF810000020ADF812008020ADF81600C6
:100350000720ADF8180002A90E4801F077FA012134
:100360000C4801F02BF8012260210A4801F064F9E1
:1003700033208DF8040001208DF8050000208DF851
:10038000060001208DF8070001A800F037FC07B037
:1003900000BD0000003C00402DE9F04104460D4640
:1003A00000260027B046544884421DD0534884425A
:1003B0001AD05348844217D05248844214D052482D
:1003C000844211D0514884420ED0514884420BD00F
:1003D0005048844208D05048844205D04F48844257
:1003E00002D04F48844200D103E0CF214DA003F05A
:1003F00033FD288880B200B103E0D02149A003F08A
:100400002BFD287940B12879012805D028790228C8
:1004100002D02879032800D103E0D12141A003F0C4
:100420001BFDE87928B1E879012802D0E879022893
:1004300000D103E0D2213BA003F00EFD002657E0DF
:10044000012000FA06F7286800EA0708B8454ED1EF
:100450002068720003219140884320602879710050
:1004600088402168084320602879012802D0287933
:10047000022830D1687940B16879012805D06879BF
:10048000022802D06879032800D103E0E42125A0E6
:1004900003F0E2FCA0687200032191408843A06051
:1004A000687971008840A1680843A060A87910B1FC
:1004B000A879012800D103E0EB211AA003F0CCFCBD
:1004C00061680120B040814361606168A879B040F3
:1004D00080B201436160E06872000321914088436B
:1004E000E060E87971008840E1680843E060761CCC
:1004F000102EA5D3BDE8F0810000024000040240A8
:1005000000080240000C02400010024000140240AB
:1005100000180240001C024000200240002402405B
:10052000002802402E2E5C53544D333246347878E6
:100530005F5374645065726970685F447269766570
:10054000725C7372635C73746D3332663478785F97
:100550006770696F2E6300002DE9F04106460D4675
:1005600014460027B846544886421DD05348864258
:100570001AD05348864217D05248864214D0524867
:10058000864211D0514886420ED0514886420BD047
:100590005048864208D05048864205D04F4886428F
:1005A00002D04F48864200D104E040F249214DA0DC
:1005B00003F052FCEDB1012D1BD0022D19D0032DFB
:1005C00017D0042D15D0052D13D0062D11D0072DD1
:1005D0000FD0082D0DD0092D0BD00A2D09D00B2DD1
:1005E00007D00C2D05D00D2D03D00E2D01D00F2DD1
:1005F00000D104E040F24A213AA003F02DFCA4B35C
:10060000092C32D08CB384B37CB374B3012C2CD0BE
:100610002BD0022C29D028D027D0032C25D0042C75
:1006200023D022D021D0052C1FD01ED0092C1CD0C5
:10063000062C1AD0092C18D0072C16D015D014D09F
:10064000082C12D011D010D0092C0ED00DD00A2CAD
:100650000BD00AD00B2C08D00C2C06D005D00D2CBA
:1006600003D00F2C01D00C2C00D104E040F24B2120
:100670001CA003F0F1FB6807C00E04FA00F7E910B4
:1006800006F1200050F821006907CA0E0F219140A1
:100690008843EA1006F1200141F82200E91006F132
:1006A000200050F8210040EA0708E91006F1200078
:1006B00040F82180BDE8F0810000024000040240C3
:1006C00000080240000C02400010024000140240EA
:1006D00000180240001C024000200240002402409A
:1006E000002802402E2E5C53544D33324634787825
:1006F0005F5374645065726970685F4472697665AF
:10070000725C7372635C73746D3332663478785FD5
:100710006770696F2E63000070B504460D46184877
:1007200084421DD0174884421AD01748844217D0FB
:100730001648844214D01648844211D01548844289
:100740000ED0154884420BD01448844208D0144877
:10075000844205D01348844202D01348844200D119
:1007600004E04FF4DA7111A003F076FBA8B200B1F7
:1007700004E040F2B5110DA003F06EFB658370BD7F
:10078000000002400004024000080240000C024049
:10079000001002400014024000180240001C0240F9
:1007A0000020024000240240002802402E2E5C530C
:1007B000544D3332463478785F53746450657269AF
:1007C00070685F4472697665725C7372635C73749F
:1007D0006D3332663478785F6770696F2E6300001E
:1007E00070B504460D46184884421DD0174884420F
:1007F0001AD01748844217D01648844214D016489D
:10080000844211D0154884420ED0154884420BD042
:100810001448844208D01448844205D013488442C6
:1008200002D01348844200D104E040F29F1111A08D
:1008300003F012FBA8B200B104E04FF4D0710DA098
:1008400003F00AFB258370BD000002400004024053
:1008500000080240000C0240001002400014024058
:1008600000180240001C0240002002400024024008
:10087000002802402E2E5C53544D33324634787893
:100880005F5374645065726970685F44726976651D
:10089000725C7372635C73746D3332663478785F44
:1008A0006770696F2E63000002A003F0D9F900BFE2
:1008B000FEE7000048617264204572726F72210D7C
:1008C0000A0000001CB500200090019001210220C8
:1008D00000F0E2FB4FF48070009000208DF80400DF
:1008E0008DF8070069460548FFF756FD4FF4007084
:1008F000009069460148FFF74FFD1CBD000402400F
:100900001CB50020009001900121102000F0C4FBD4
:100910000420009001208DF8040000208DF80600CE
:1009200002208DF8050069460848FFF735FD0820CC
:10093000009069460548FFF72FFD04210348FFF7A3
:100940004FFF08210148FFF74BFF1CBD001002407C
:100950001CB50020009001900121022000F09CFBBA
:100960000121082000F098FB0121102000F094FBE9
:1009700001208DF8040000208DF806008DF8070096
:1009800002208DF805004FF47060009069460C4815
:10099000FFF702FD4FF45840009069460948FFF701
:1009A000FBFC4FF48040009069460548FFF7F4FCDB
:1009B0004FF40050009069460248FFF7EDFC1CBD63
:1009C000000C02400010024010B5FFF7C1FF00F01C
:1009D0000FF84FF480410448FFF702FF4FF4005135
:1009E0000248FFF7FDFE10BD000C0240001002405F
:1009F00000B58BB0002009900A90069007900890EF
:100A0000142101A8FFF7E3FB0121022000F044FBC1
:100A10000121082000F040FB0121022000F07EFBB4
:100A20000121042000F07AFB02208DF8280000202C
:100A30008DF82A000320099000208DF82B00022059
:100A40008DF8290009A93648FFF7A6FC02220021EB
:100A50003348FFF781FD022201213148FFF77CFD79
:100A60004FF44050099009A92E48FFF795FC022247
:100A70000C212C48FFF770FD02220D212948FFF7B9
:100A80006BFD0020ADF82000ADF81A005320ADF842
:100A900018006420079006A9234802F093FA06A9DB
:100AA000224802F08FFA6020ADF804000120ADF872
:100AB00006000020ADF810003220039001A91A486A
:100AC00001F0B2FD01A9184801F0EAFE082116481C
:100AD00001F096FE0821144801F098FF0121124808
:100AE00001F07EF801A9114801F0E2FA01A90F48CE
:100AF00001F044FC08210D4801F0D2FB08210B480D
:100B000001F034FD0121094801F06AF8012106488D
:100B100001F04CF90121054801F048F90BB000BD86
:100B200000040240000C02400004004000080040A5
:100B300010B50446012C06D0022C15D0032C24D06D
:100B4000042C44D132E01921244802F00BF9192178
:100B5000224802F067F91921214802F0AFF9192162
:100B60001F4802F0EDF937E032211C4802F0FAF894
:100B700032211A4802F056F93221194802F09EF942
:100B80003221174802F0DCF926E04B21134802F02D
:100B9000E9F84B21114802F045F94B21104802F0C9
:100BA0008DF94B210E4802F0CBF915E064210B487A
:100BB00002F0D8F86421094802F034F964210848A9
:100BC00002F07CF96421064802F0BAF904E0054914
:100BD00005A003F045F800BF00BF10BD00080040AD
:100BE00000040040CA3F000825733A206172672064
:100BF0006973206572726F720D0A00002DE9F04171
:100C00000446002500270F26E07810B1E07801287F
:100C100000D103E08D2122A003F01EF96078102896
:100C200000DA03E08E211EA003F016F9A078102848
:100C300000DA03E08F211AA003F00EF9E07818B370
:100C40002248006800F4E060C0F5E060C0F30725CA
:100C5000C5F10400C7B22E416078B840C5B2A07893
:100C6000304005432807050E19482178455420785F
:100C700000F01F010120884021784911890001F10D
:100C8000E021C1F8000109E0207800F01F010120F7
:100C9000884010492278521141F82200BDE8F081C5
:100CA0002E2E5C53544D3332463478785F5374643F
:100CB0005065726970685F4472697665725C7372C0
:100CC000635C6D6973632E63000000000CED00E04F
:100CD00000E400E080E100E010B50446B4F5E06F08
:100CE0000BD0B4F5C06F08D0B4F5A06F05D0B4F543
:100CF000806F02D0B4F5407F00D103E0792104A0D9
:100D000003F0AAF80D4820430D49086010BD00000B
:100D10002E2E5C53544D3332463478785F537464CE
:100D20005065726970685F4472697665725C73724F
:100D3000635C6D6973632E63000000000000FA05B8
:100D40000CED00E070B500240CE00021204600F01E
:100D50001DF9002503E0002000F04AF96D1C802DEC
:100D6000F9DD641C072CF0DD70BD2DE9F05F054650
:100D70000E4617469846DDF828A04FF0000B344683
:100D800014E02146284603F0B1F8A9460AE0594686
:100D90000BF1010B1AF8010000F02AF909F101002A
:100DA00000F0FF09B945F2DB601CC4B24445E8DB42
:100DB000BDE8F09F1CB5002000900190012121208A
:100DC00000F06AF94FF48060009002208DF8050071
:100DD00001208DF8040000208DF8060069461748B0
:100DE000FFF7DAFA4FF40070009069461348FFF7F6
:100DF000D3FA4FF48070009069461048FFF7CCFAA0
:100E00002020009002208DF8040069460C48FFF76E
:100E1000C3FA052211460A48FFF79EFB8020009086
:100E200002208DF8040069460548FFF7B5FA05224F
:100E300007210348FFF790FB1CBD0000001402408F
:100E40000000024010B5FFF7B5FF00F06DF800BFDD
:100E50004FF480713348FFF75FFC00BF642002F05D
:100E600069FA00BF4FF480712E48FFF7B9FC00BF4C
:100E7000AE2000F09FF8002000F09CF8102000F059
:100E800099F8402000F096F8812000F093F8CF20E8
:100E900000F090F8A12000F08DF8C82000F08AF84A
:100EA000A62000F087F8A82000F084F83F2000F08A
:100EB00081F8D32000F07EF8002000F07BF8D520E8
:100EC00000F078F8802000F075F8D92000F072F872
:100ED000F12000F06FF8DA2000F06CF8122000F03A
:100EE00069F8DB2000F066F8402000F063F820206D
:100EF00000F060F8022000F05DF88D2000F05AF854
:100F0000142000F057F8A42000F054F8A62000F0B8
:100F100051F8AF2000F04EF8AF2000F04BF8FFF78B
:100F200011FF10BD0014024000B585B014216846C1
:100F3000FFF74DF90121080300F030F90020ADF86A
:100F400000004FF48270ADF802000020ADF80400FC
:100F50000220ADF806000120ADF808004002ADF80F
:100F60000A000020ADF80C00ADF80E000120ADF82D
:100F700010006946044800F069FC0121024800F0B5
:100F80001DFA05B000BD00000030014070B50546F7
:100F90000C4605F1B001C8B200F00CF8C4F303111F
:100FA00041F0100000F006F804F00F0000F002F825
:100FB00070BD000010B5044600BF4FF480610B48BF
:100FC000FFF7AAFB00BF00BF4FF400710748FFF70F
:100FD000A3FB00BF204600F017FD00BF4FF4806167
:100FE0000248FFF7FDFB00BF10BD000000140240E7
:100FF00010B5044600BF4FF480610B48FFF78CFB2F
:1010000000BF00BF4FF400710748FFF7E9FB00BFC6
:10101000204600F0F9FC00BF4FF480610248FFF762
:10102000DFFB00BF10BD0000001402401CB5002013
:10103000009001900121022000F02EF84FF4804032
:10104000009000208DF8040002208DF8070069460A
:101050001048FFF7A1F94FF40040009001208DF8EF
:10106000040000208DF8060002208DF80500694676
:101070000848FFF791F94FF4005000906946054881
:10108000FFF78AF94FF48050009069460148FFF756
:1010900083F91CBD0004024070B504460D4610489B
:1010A000204008B904B104E040F63B010DA002F075
:1010B000D3FE0DB1012D00D104E040F63D0109A0A1
:1010C00002F0CAFE2DB1144800682043124908609E
:1010D00004E011480068A0430F49086070BD00009B
:1010E00000E80B012E2E5C53544D33324634787891
:1010F0005F5374645065726970685F4472697665A5
:10110000725C7372635C73746D3332663478785FCB
:101110007263632E630000003038024070B50446ED
:101120000D4604F4585008B904B104E040F6B20189
:101130000CA002F091FE0DB1012D00D104E040F6AB
:10114000B30108A002F088FE2DB1134800682043C7
:101150001149086004E010480068A0430E49086087
:1011600070BD00002E2E5C53544D333246347878D7
:101170005F5374645065726970685F447269766524
:10118000725C7372635C73746D3332663478785F4B
:101190007263632E630000004038024070B504465D
:1011A0000D461048204008B904B104E040F6E601BD
:1011B0000DA002F051FE0DB1012D00D104E040F66A
:1011C000E70109A002F048FE2DB114480068204351
:1011D0001249086004E011480068A0430F49086004
:1011E00070BD00000C0008F02E2E5C53544D3332BD
:1011F000463478785F5374645065726970685F44F0
:1012000072697665725C7372635C73746D33326697
:101210003478785F7263632E6300000044380240C4
:10122000F0B5002100220024022500260223324FBF
:101230003F6807F00C0121B1042905D0082937D1F6
:1012400005E02E4F076036E02D4F076033E02A4F50
:101250003F1F3F68C7F38056274F3F1F3F6807F087
:101260003F036EB1264FB7FBF3F7DFF88CC0ACF14C
:10127000040CDCF800C0CCF3881C07FB0CF40CE079
:101280001E4FB7FBF3F7DFF870C0ACF1040CDCF8CD
:1012900000C0CCF3881C07FB0CF4174F3F1F3F68BE
:1012A000C7F301477F1C7D00B4FBF5F7076002E040
:1012B000124F076000BF00BF0F4F3F6807F0F001FB
:1012C0000909104F7A5C0768D74047600A4F3F68AA
:1012D00007F4E051890A0B4F7A5C4768D740876072
:1012E000054F3F6807F46041490B064F7A5C476839
:1012F000D740C760F0BD0000083802400024F40069
:1013000040787D01000000201CB500200090019075
:1013100001213820FFF7C0FE4020009001208DF809
:10132000040000208DF8060002208DF805006946B3
:101330000F48FFF731F84FF40070009069460D48F0
:10134000FFF72AF84FF40040009069460A48FFF77B
:1013500023F840210648FFF7DFF94FF400710548F4
:10136000FFF7DAF94FF400410348FFF739FA1CBDE3
:101370000014024000100240000C024010B5602131
:101380000C4800F0DDF898B10A4800F0C9F9C1B284
:101390000948C278C078401C074BD8701846815461
:1013A000C078032804DB00201946C87001200871AA
:1013B00010BD0000003C00409205002070B50446BE
:1013C0000D46164884420ED0154884420BD015486D
:1013D000844208D01448844205D01448844202D084
:1013E0001348844200D104E040F22B2111A002F006
:1013F00033FD0DB1012D00D104E04FF40B710DA0B0
:1014000002F02AFD25B1208840F04000208004E051
:1014100020884FF6BF710840208070BD0030014029
:1014200000380040003C00400034014000500140C2
:10143000005401402E2E5C53544D3332463478789C
:101440005F5374645065726970685F447269766551
:10145000725C7372635C73746D3332663478785F78
:101460007370692E6300000070B505460C460026B7
:101470001F48854214D01F48854211D01E4885421E
:101480000ED01E4885420BD01D48854208D01D480D
:10149000854205D01C48854202D0B5F1402F00D1CD
:1014A00004E040F29C4119A002F0D6FC802C10D040
:1014B000402C0ED0202C0CD0102C0AD0082C08D098
:1014C000042C06D0022C04D0012C02D0B4F5807F6D
:1014D00000D104E040F29D410CA002F0BDFC28893F
:1014E000204008B1012600E00026304670BD000013
:1014F0000030014000380040003C00400034014012
:101500000050014000540140003400402E2E5C5336
:10151000544D3332463478785F5374645065726941
:1015200070685F4472697665725C7372635C737431
:101530006D3332663478785F7370692E6300000013
:101540002DE9F04704460D460027B8460026B1466F
:101550002548844214D02548844211D0244884422E
:101560000ED0244884420BD02348844208D023481C
:10157000844205D02248844202D0B4F1402F00D1E9
:1015800004E04FF49C611FA002F066FC602D0BD0BC
:10159000712D09D0542D07D0552D05D0562D03D0CF
:1015A000532D01D0582D00D104E040F2E14115A0A7
:1015B00002F052FC05F00F01012088401FFA80F86C
:1015C0002E110120B04086B2A08800EA06092089C9
:1015D00000EA080020B1B9F1000F01D0012700E0B6
:1015E00000273846BDE8F087003001400038004051
:1015F000003C0040003401400050014000540140D4
:10160000003400402E2E5C53544D333246347878EB
:101610005F5374645065726970685F44726976657F
:10162000725C7372635C73746D3332663478785FA6
:101630007370692E630000002DE9F04104460D46E9
:1016400016464FF0000800272148844214D0214854
:10165000844211D0204884420ED0204884420BD0CE
:101660001F48844208D01F48844205D01E48844247
:1016700002D0B4F1402F00D104E040F271411BA030
:1016800002F0EAFB0EB1012E00D104E040F27241FB
:1016900016A002F0E1FB712D03D0602D01D0502D7A
:1016A00000D104E040F2734110A002F0D5FB4FEAF4
:1016B0002518012000FA08F087B21EB1A08838432F
:1016C000A08002E0A088B843A080BDE8F0810000BF
:1016D0000030014000380040003C00400034014030
:1016E0000050014000540140003400402E2E5C5355
:1016F000544D3332463478785F5374645065726960
:1017000070685F4472697665725C7372635C73744F
:101710006D3332663478785F7370692E6300000031
:1017200010B504460F48844214D00F48844211D0AB
:101730000E4884420ED00E4884420BD00D4884429D
:1017400008D00D48844205D00C48844202D0B4F140
:10175000402F00D104E040F2333109A002F07CFBBD
:10176000A08910BD0030014000380040003C00401E
:10177000003401400050014000540140003400405A
:101780002E2E5C53544D3332463478785F53746454
:101790005065726970685F4472697665725C7372D5
:1017A000635C73746D3332663478785F7370692E5E
:1017B0006300000070B504460D461048844214D002
:1017C0000F48844211D00F4884420ED00E48844204
:1017D0000BD00E48844208D00D48844205D00D48F5
:1017E000844202D0B4F1402F00D104E040F24331F2
:1017F00009A002F031FBA58170BD0000003001405E
:1018000000380040003C00400034014000500140DE
:1018100000540140003400402E2E5C53544D3332AE
:10182000463478785F5374645065726970685F44B9
:1018300072697665725C7372635C73746D33326661
:101840003478785F7370692E6300000070B50546C8
:101850000C460026594885420ED0594885420BD087
:101860005848854208D05848854205D05748854297
:1018700002D05748854200D104E040F2211155A022
:1018800002F0EAFA208858B12088B0F5806F07D0BE
:101890002088B0F5004F03D02088B0F5404F00D12C
:1018A00004E04FF492714BA002F0D6FA6088B0F5D4
:1018B000827F01D0608800B904E040F2251145A084
:1018C00002F0CAFAA088B0F5006F01D0A08800B974
:1018D00004E04FF493713FA002F0BEFAE08810B12B
:1018E000E088022800D104E040F2271139A002F07C
:1018F000B3FA208910B12089012800D104E04FF407
:10190000947134A002F0A8FA6089B0F5007F01D08C
:10191000608900B904E040F229112EA002F09CFA7F
:10192000A089A0B1A089082811D0A08910280ED0C4
:10193000A08918280BD0A089202808D0A0892828A1
:1019400005D0A089302802D0A089382800D104E031
:101950004FF495711FA002F07FFAE08910B1E08981
:10196000802800D104E040F22B111AA002F074FA92
:10197000208A012800DB04E04FF4967115A002F0E4
:101980006BFA2E8806F44156208861880843A188A6
:101990000843E18808432189084361890843A189F4
:1019A0000843E189084306432E80A88B4FF2FF715C
:1019B0000840A883208A288270BD000000300140C2
:1019C00000380040003C004000340140005001401D
:1019D000005401402E2E5C53544D333246347878F7
:1019E0005F5374645065726970685F4472697665AC
:1019F000725C7372635C73746D3332663478785FD3
:101A00007370692E6300000070B50446002505E080
:101A1000681CC5B2C82D01DDFF2070BD022105483C
:101A2000FFF722FD0028F3D021460248FFF7C2FE4F
:101A30000020F2E7003001400CB50020019000903A
:101A40003448006840F480303249086000BF3148B3
:101A5000006800F4003000900198401C019000984C
:101A600018B90198B0F5A04FF1D12A48006800F4E8
:101A7000003010B10120009001E00020009000989B
:101A8000012846D123484030006840F08050214969
:101A9000403108602048006840F440401E4908601A
:101AA0001C48083000681B49083108600846006877
:101AB00040F4004008600846006840F4A050086008
:101AC0001648091F0860081F006840F08070091F51
:101AD000086000BF0F48006800F000700028F9D0CF
:101AE00040F205700E4908600A480830006820F08E
:101AF00003000849083108600846006840F0020009
:101B0000086000BF03480830006800F00C00082897
:101B1000F8D10CBD00380240007000401954400755
:101B2000003C024010B51548006840F470001349AD
:101B300008601348006840F0010011490860002067
:101B40000F49083108600E4800680E4908400C49EA
:101B500008600D48091D0860081F006820F48020F7
:101B6000091F0860002006490C310860FFF764FF78
:101B70004FF0006001498039086010BD88ED00E039
:101B800000380240FFFFF6FE103000240EB50020A2
:101B900000900190029001211020FFF7BFFA002071
:101BA000ADF80800ADF8020069460C4801F00AFAE9
:101BB00001210A4800F014F80021084800F0EEFF67
:101BC0000021064801F03AFB0021044801F0BAFA6E
:101BD0000021024800F0EAF80EBD000000100040AD
:101BE00070B504460D462248844226D0B4F1804F99
:101BF00023D02048844220D01F4884421DD01F4853
:101C000084421AD01E48844217D01E48844214D001
:101C10001D48844211D01D4884420ED01C48844285
:101C20000BD01C48844208D01B48844205D01B4876
:101C3000844202D01A48844200D104E040F20D21CF
:101C400018A002F009F90DB1012D00D104E040F215
:101C50000E2114A002F000F925B1208840F0800088
:101C6000208004E020884FF67F710840208070BDFE
:101C7000000001400004004000080040000C00404B
:101C800000100040001400400004014000400140EA
:101C9000004401400048014000180040001C004082
:101CA000002000402E2E5C53544D33324634787859
:101CB0005F5374645065726970685F4472697665D9
:101CC000725C7372635C73746D3332663478785F00
:101CD00074696D2E6300000070B504460D46194806
:101CE000844226D0B4F1804F23D01748844220D0BC
:101CF000164884421DD0164884421AD015488442A2
:101D000017D01548844214D01448844211D0144886
:101D100084420ED0134884420BD01348844208D02A
:101D20001248844205D01248844202D011488442AD
:101D300000D104E040F6B8110FA002F08DF8E8439E
:101D4000208270BD000001400004004000080040F7
:101D5000000C00400010004000140040000401404E
:101D6000004001400044014000480140001800408C
:101D7000001C0040002000402E2E5C53544D333296
:101D8000463478785F5374645065726970685F4454
:101D900072697665725C7372635C73746D333266FC
:101DA0003478785F74696D2E6300000070B5044666
:101DB0000D462248844226D0B4F1804F23D02048DB
:101DC000844220D01F4884421DD01F4884421AD02C
:101DD0001E48844217D01E48844214D01D488442B5
:101DE00011D01D4884420ED01C4884420BD01C48A0
:101DF000844208D01B48844205D01B48844202D04C
:101E00001A48844200D104E040F2532118A002F0A5
:101E100023F80DB1012D00D104E04FF4157114A089
:101E200002F01AF825B1208840F00100208004E07B
:101E300020884FF6FE710840208070BD00000140F0
:101E40000004004000080040000C0040001000406A
:101E500000140040000401400040014000440140E3
:101E60000048014000180040001C004000200040D5
:101E70002E2E5C53544D3332463478785F5374645D
:101E80005065726970685F4472697665725C7372DE
:101E9000635C73746D3332663478785F74696D2E69
:101EA0006300000070B504460D461E48844226D0EB
:101EB000B4F1804F23D01C48844220D01B48844278
:101EC0001DD01B4884421AD01A48844217D01A48A1
:101ED000844214D01948844211D0194884420ED04B
:101EE000184884420BD01848844208D017488442CE
:101EF00005D01748844202D01648844200D104E03D
:101F000040F66D1114A001F0A7FF05F47F4008B959
:101F100005B104E040F66E110FA001F09DFFA5820F
:101F200070BD0000000001400004004000080040B7
:101F3000000C00400010004000140040000401406C
:101F400000400140004401400048014000180040AA
:101F5000001C0040002000402E2E5C53544D3332B4
:101F6000463478785F5374645065726970685F4472
:101F700072697665725C7372635C73746D3332661A
:101F80003478785F74696D2E6300000070B5044684
:101F90000D4600262C48844226D0B4F1804F23D031
:101FA0002A48844220D02A4884421DD029488442AD
:101FB0001AD02948844217D02848844214D028488F
:101FC000844211D0274884420ED0274884420BD047
:101FD0002648844208D02648844205D025488442B9
:101FE00002D02548844200D104E040F68F1123A09E
:101FF00001F032FF012D19D0022D17D0042D15D07C
:10200000082D13D0102D11D0202D0FD0402D0DD024
:10201000802D0BD0B5F5007F08D0B5F5806F05D0C9
:10202000B5F5006F02D0B5F5805F00D104E04FF444
:10203000196112A001F010FF208A284008B1012682
:1020400000E00026304670BD000001400004004062
:1020500000080040000C0040001000400014004048
:10206000000401400040014000440140004801409C
:1020700000180040001C0040002000402E2E5C5341
:10208000544D3332463478785F53746450657269C6
:1020900070685F4472697665725C7372635C7374B6
:1020A0006D3332663478785F74696D2E630000009A
:1020B0002DE9F04105460C464FF0000800260027A8
:1020C0005F48854220D0B5F1804F1DD05D488542E4
:1020D0001AD05D48854217D05C48854214D05C48D0
:1020E000854211D05B4885420ED05B4885420BD0BB
:1020F0005A48854208D05A48854205D059488542F9
:1021000002D05948854200D104E040F2A62157A0F0
:1021100001F0A2FE208870B1208810280BD0208802
:10212000202808D02088302805D02088602802D0B8
:102130002088702800D104E040F2A7214BA001F0D4
:102140008BFE608810B16088012800D104E04FF454
:102150002A7146A001F080FEA08910B1A089022852
:1021600000D104E040F2A92140A001F075FE288CC6
:102170004FF6FE71084028842E8CAF88B5F8188081
:102180004FF68F7008EA0008881E08EA00082088C9
:1021900040EA0808481E0640A089064360880643B6
:1021A0002748854202D02A48854241D1A08810B1F3
:1021B000A088042800D104E040F2C6212BA001F041
:1021C0004BFEE08910B1E089082800D104E040F21C
:1021D000C72126A001F040FE608AB0F5007F01D043
:1021E000608A00B904E04FF4327120A001F034FE9F
:1021F000208AB0F5807F01D0208A00B904E040F247
:10220000C9211AA001F028FE4FF6F7700640E089B8
:1022100006434FF6FB700640A08806434FF6FF606A
:1022200007404FF6FF500740208A0743608A074364
:10223000AF80A5F81880A06868632E84BDE8F0819F
:10224000000001400004004000080040000C004075
:1022500000040140004001400044014000480140AA
:1022600000180040001C0040002000402E2E5C534F
:10227000544D3332463478785F53746450657269D4
:1022800070685F4472697665725C7372635C7374C4
:102290006D3332663478785F74696D2E63000000A8
:1022A00070B504460D4600261C48844220D0B4F187
:1022B000804F1DD01A4884421AD01A48844217D041
:1022C0001948844214D01948844211D018488442D5
:1022D0000ED0184884420BD01748844208D01748C3
:1022E000844205D01648844202D01648844200D168
:1022F00004E040F2DB4114A001F0AEFD082D00D057
:1023000005B904E040F2DC410FA001F0A5FD268BE9
:102310004FF6F77006402E43268370BD0000014043
:102320000004004000080040000C00400004014090
:1023300000400140004401400048014000180040B6
:10234000001C0040002000402E2E5C53544D3332C0
:10235000463478785F5374645065726970685F447E
:1023600072697665725C7372635C73746D33326626
:102370003478785F74696D2E630000002DE9F041B8
:1023800005460C464FF000080026002763488542AA
:1023900014D0B5F1804F11D0614885420ED061480C
:1023A00085420BD06048854208D06048854205D000
:1023B0005F48854202D05F48854200D104E040F288
:1023C000F7215DA001F048FD208870B12088102819
:1023D0000BD02088202808D02088302805D02088DD
:1023E000602802D02088702800D104E04FF43E71AC
:1023F00051A001F031FD608810B16088012800D142
:1024000004E040F2F9214CA001F026FDA08910B1B2
:10241000A089022800D104E040F2FA2146A001F090
:102420001BFD288C4FF6EF71084028842E8CAF8856
:10243000B5F8188048F6FF7008EA00084FF6FF402C
:1024400008EA000820884FF6FF7101EA002040EA00
:1024500008084FF6DF700640A08901EA0010064325
:10246000608801EA001006432C48854202D02F48BC
:1024700085424BD1A08810B1A088042800D104E087
:102480004FF446712CA001F0E7FCE08910B1E0891F
:10249000082800D104E040F2193127A001F0DCFC4B
:1024A000608AB0F5007F01D0608A00B904E040F294
:1024B0001A3121A001F0D0FC208AB0F5807F01D034
:1024C000208A00B904E040F21B311BA001F0C4FCDB
:1024D0004FF67F700640E0894FF6FF7101EA001069
:1024E00006434FF6BF700640A08801EA001006437D
:1024F0004FF6FF3007404FF2FF700740208A01EA95
:1025000080000743608A01EA80000743AF80A5F896
:102510001880A068A8632E84BDE8F0810000014007
:102520000004004000080040000C0040000401408E
:1025300000400140001800402E2E5C53544D3332B1
:10254000463478785F5374645065726970685F448C
:1025500072697665725C7372635C73746D33326634
:102560003478785F74696D2E6300000070B504469E
:102570000D4600261848844214D0B4F1804F11D083
:10258000164884420ED0164884420BD01548844227
:1025900008D01548844205D01448844202D014481B
:1025A000844200D104E040F2F94112A001F054FC51
:1025B000082D00D005B904E040F2FA410DA001F069
:1025C0004BFC268B4FF2FF7006404FF6FF7000EA7F
:1025D00005200643268370BD000001400004004032
:1025E00000080040000C0040000401400040014091
:1025F000001800402E2E5C53544D33324634787808
:102600005F5374645065726970685F44726976657F
:10261000725C7372635C73746D3332663478785FA6
:1026200074696D2E630000002DE9F04105460C46EB
:102630004FF00008002600275F4885420ED0B5F114
:10264000804F0BD05D48854208D05D48854205D05B
:102650005C48854202D05C48854200D104E04FF4DA
:1026600052715AA001F0F8FB208870B12088102820
:102670000BD02088202808D02088302805D020883A
:10268000602802D02088702800D104E040F249314F
:102690004EA001F0E1FB608810B16088012800D1F4
:1026A00004E040F24A3149A001F0D6FBA08910B104
:1026B000A089022800D104E040F24B3143A001F090
:1026C000CBFB288C4FF6FF61084028842E8CAF8806
:1026D000B5F81C804FF68F7008EA00084FF6FC70C2
:1026E00008EA0008208840EA08084FF6FF50064034
:1026F000A0894FF6FF7101EA00200643608801EAD5
:10270000002006432C48854202D02F4885424BD1F9
:10271000A08810B1A088042800D104E04FF45A71B9
:102720002AA001F099FBE08910B1E089082800D1C6
:1027300004E040F2693125A001F08EFB608AB0F51B
:10274000007F01D0608A00B904E040F26A311FA026
:1027500001F082FB208AB0F5807F01D0208A00B989
:1027600004E040F26B3119A001F076FB4FF2FF70EC
:102770000640E0894FF6FF7101EA002006434FF65C
:10278000FF300640A08801EA002006434EF6FF70A5
:1027900007404DF6FF700740208A01EA001007430A
:1027A000608A01EA00100743AF80A5F81C80A0688A
:1027B000E8632E84BDE8F081000001400004004081
:1027C00000080040000C0040000401402E2E5C5325
:1027D000544D3332463478785F537464506572696F
:1027E00070685F4472697665725C7372635C73745F
:1027F0006D3332663478785F74696D2E6300000043
:1028000070B504460D460026134884420ED0B4F13C
:10281000804F0BD01148844208D01148844205D023
:102820001048844202D01048844200D104E040F2B3
:1028300016510EA001F010FB082D00D005B904E0E0
:1028400040F2175109A001F007FBA68B4FF6F77075
:1028500006402E43A68370BD0000014000040040E6
:1028600000080040000C0040000401402E2E5C5384
:10287000544D3332463478785F53746450657269CE
:1028800070685F4472697665725C7372635C7374BE
:102890006D3332663478785F74696D2E63000000A2
:1028A0002DE9F04104460D4600270026B046454874
:1028B00084420ED0B4F1804F0BD04348844208D0FC
:1028C0004248844205D04248844202D04148844272
:1028D00000D104E04FF466713FA001F0BDFA2888F2
:1028E00070B1288810280BD02888202808D0288884
:1028F000302805D02888602802D02888702800D188
:1029000004E040F2993134A001F0A6FA688810B1D1
:102910006888012800D104E040F29A312EA001F02D
:102920009BFAA88910B1A889022800D104E040F2DE
:102930009B3129A001F090FA208C4EF6FF710840DF
:102940002084268CB4F80480A78B48F6FF700740DB
:102950004FF6FF40074028884FF6FF7101EA00203C
:1029600007434DF6FF700640A88901EA0030064390
:10297000688801EA003006431248844202D01548B4
:10298000844216D1288AB0F5807F01D0288A00B908
:1029900004E040F2B93110A001F05EFA4BF6FF708E
:1029A00008EA0008288A4FF6FF7101EA801040EA21
:1029B0000808A4F80480A783A86820642684BDE8DA
:1029C000F0810000000001400004004000080040C9
:1029D000000C0040000401402E2E5C53544D333255
:1029E000463478785F5374645065726970685F44E8
:1029F00072697665725C7372635C73746D33326690
:102A00003478785F74696D2E6300000070B50446F9
:102A10000D460026154884420ED0B4F1804F0BD0ED
:102A20001348844208D01348844205D01248844297
:102A300002D01248844200D104E040F2335110A089
:102A400001F00AFA082D00D005B904E040F2345133
:102A50000BA001F001FAA68B4FF2FF7006404FF673
:102A6000FF7000EA05200643A68370BD0000014008
:102A70000004004000080040000C00400004014039
:102A80002E2E5C53544D3332463478785F53746441
:102A90005065726970685F4472697665725C7372C2
:102AA000635C73746D3332663478785F74696D2E4D
:102AB0006300000070B504460E4615461D4884426A
:102AC00026D0B4F1804F23D01B48844220D01B482D
:102AD00084421DD01A4884421AD01A48844217D022
:102AE0001948844214D01948844211D018488442AD
:102AF0000ED0184884420BD01748844208D017489B
:102B0000844205D01648844202D01648844200D13F
:102B100004E040F26B1114A001F09EF90DB1012DFB
:102B200000D104E04FF4B6710FA001F095F92685AD
:102B3000A58270BD00000140000400400008004074
:102B4000000C004000100040001400400004014050
:102B5000004001400044014000480140001800408E
:102B6000001C0040002000402E2E5C53544D333298
:102B7000463478785F5374645065726970685F4456
:102B800072697665725C7372635C73746D333266FE
:102B90003478785F74696D2E6300000070B5044668
:102BA0000D462148844226D0B4F1804F23D01F48DF
:102BB000844220D01E4884421DD01E4884421AD030
:102BC0001D48844217D01D48844214D01C488442BA
:102BD00011D01C4884420ED01B4884420BD01B48A5
:102BE000844208D01A48844205D01A48844202D050
:102BF0001948844200D104E04FF40A7117A001F093
:102C00002BF9082D00D005B904E040F2292113A0CA
:102C100001F022F920884FF6F771084020802088C3
:102C20002843208070BD00000000014000040040E7
:102C300000080040000C004000100040001400405C
:102C400000040140004001400044014000480140B0
:102C500000180040001C0040002000402E2E5C5355
:102C6000544D3332463478785F53746450657269DA
:102C700070685F4472697665725C7372635C7374CA
:102C80006D3332663478785F74696D2E63000000AE
:102C900070B504460D461948844226D0B4F1804FE1
:102CA00023D01748844220D0164884421DD01648AD
:102CB00084421AD01548844217D01548844214D053
:102CC0001448844211D0144884420ED013488442E0
:102CD0000BD01348844208D01248844205D01248D1
:102CE000844202D01148844200D104E040F2AB118A
:102CF0000FA001F0B1F8E56270BD000000000140D6
:102D00000004004000080040000C0040001000409B
:102D10000014004000040140004001400044014014
:102D20000048014000180040001C00400020004006
:102D30002E2E5C53544D3332463478785F5374648E
:102D40005065726970685F4472697665725C73720F
:102D5000635C73746D3332663478785F74696D2E9A
:102D60006300000070B504460D461648844220D02A
:102D7000B4F1804F1DD0144884421AD013488442C5
:102D800017D01348844214D01248844211D01248FC
:102D900084420ED0114884420BD01148844208D09E
:102DA0001048844205D01048844202D00F48844223
:102DB00000D104E040F227410DA001F04DF8656319
:102DC00070BD000000000140000400400008004009
:102DD000000C00400004014000400140004401405C
:102DE0000048014000180040001C00400020004046
:102DF0002E2E5C53544D3332463478785F537464CE
:102E00005065726970685F4472697665725C73724E
:102E1000635C73746D3332663478785F74696D2ED9
:102E20006300000070B504460D461048844214D07B
:102E3000B4F1804F11D00E4884420ED00D48844228
:102E40000BD00D48844208D00C48844205D00C4871
:102E5000844202D00B48844200D104E040F2374162
:102E600009A000F0F9FFA56370BD0000000001405B
:102E70000004004000080040000C00400004014035
:102E800000400140001800402E2E5C53544D333258
:102E9000463478785F5374645065726970685F4433
:102EA00072697665725C7372635C73746D333266DB
:102EB0003478785F74696D2E6300000070B5044645
:102EC0000D460D4884420ED0B4F1804F0BD00B4814
:102ED000844208D00A48844205D00A48844202D07D
:102EE0000948844200D104E040F2464107A000F0C6
:102EF000B3FFE56370BD0000000001400004004026
:102F000000080040000C0040000401402E2E5C53DD
:102F1000544D3332463478785F5374645065726927
:102F200070685F4472697665725C7372635C737417
:102F30006D3332663478785F74696D2E63000000FB
:102F400070B504460D460D4884420ED0B4F1804F52
:102F50000BD00B48844208D00A48844205D00A4866
:102F6000844202D00948844200D104E040F2554135
:102F700007A000F071FF256470BD00000000014053
:102F80000004004000080040000C00400004014024
:102F90002E2E5C53544D3332463478785F5374642C
:102FA0005065726970685F4472697665725C7372AD
:102FB000635C73746D3332663478785F74696D2E38
:102FC0006300000070B504460D4600264348844265
:102FD00026D0B4F1804F23D04148844220D04148CC
:102FE00084421DD0404884421AD04048844217D0C1
:102FF0003F48844214D03F48844211D03E48844226
:103000000ED03E4884420BD03D48844208D03D4813
:10301000844205D03C48844202D03C48844200D1DE
:1030200004E040F225113AA000F016FF688858B17C
:103030006888102808D06888202805D0688840282B
:1030400002D06888602800D104E04FF4937130A06A
:1030500000F002FF288938B12889B0F5807F03D0BD
:103060002889B0F5007F00D104E040F2271128A0A4
:1030700000F0F2FE2688194884420ED01D48844292
:103080000BD0B4F1804F08D01548844205D01548C4
:10309000844202D01448844204D14FF68F70064017
:1030A000688806431148844207D01148844204D0FE
:1030B0004FF6FF4006402889064326806868E06294
:1030C000288820850548844202D00A48844201D1DC
:1030D000A87A20860120A08270BD00000000014077
:1030E0000004004000080040000C004000100040B8
:1030F0000014004000040140004001400044014031
:103100000048014000180040001C00400020004022
:103110002E2E5C53544D3332463478785F537464AA
:103120005065726970685F4472697665725C73722B
:10313000635C73746D3332663478785F74696D2EB6
:103140006300000070B504460D462248844226D034
:10315000B4F1804F23D02048844220D01F488442BD
:103160001DD01F4884421AD01E48844217D01E48E2
:10317000844214D01D48844211D01D4884420ED090
:103180001C4884420BD01C48844208D01B4884420F
:1031900005D01B48844202D01A48844200D104E082
:1031A00040F2D71118A000F057FE0DB1012D00D14B
:1031B00004E04FF4EC7114A000F04EFE25B120881D
:1031C00040F00200208004E020884FF6FD710840A6
:1031D000208070BD00000140000400400008004055
:1031E000000C0040001000400014004000040140AA
:1031F00000400140004401400048014000180040E8
:10320000001C0040002000402E2E5C53544D3332F1
:10321000463478785F5374645065726970685F44AF
:1032200072697665725C7372635C73746D33326657
:103230003478785F74696D2E6300000070B50446C1
:103240000D462248844226D0B4F1804F23D0204836
:10325000844220D01F4884421DD01F4884421AD087
:103260001E48844217D01E48844214D01D48844210
:1032700011D01D4884420ED01C4884420BD01C48FB
:10328000844208D01B48844205D01B48844202D0A7
:103290001A48844200D104E04FF4FA7118A000F0FB
:1032A000DBFD0DB1012D00D104E040F2F51114A0B9
:1032B00000F0D2FD25B1208840F00400208004E019
:1032C00020884FF6FB710840208070BD000001404F
:1032D0000004004000080040000C004000100040C6
:1032E000001400400004014000400140004401403F
:1032F0000048014000180040001C00400020004031
:103300002E2E5C53544D3332463478785F537464B8
:103310005065726970685F4472697665725C737239
:10332000635C73746D3332663478785F74696D2EC4
:103330006300000010B50446002242F2CF0112489B
:10334000FFF7B8FB04EB840041000F48FFF7A0FC37
:1033500001210D48FEF7A6FD01210B48FEF7BCFC3C
:1033600001210948FEF722FD00BF01210648FEF7B2
:103370000DFE0028F9D001210348FEF7ADFC002125
:103380000148FEF713FD10BD0010004010B540F2DB
:103390002551134800F0B2F980B1114800F09AFBB2
:1033A000C1B2104802780078401C0E4B18700E48CD
:1033B000815440F225510A4800F01AF840F22441A5
:1033C000074800F09BF950B1002006490870012021
:1033D00006490870024800880148001D008810BD99
:1033E0000048004090050020AA050020910500201B
:1033F0002DE9F04104460D46002600272B48844263
:103400001AD02B48844217D02A48844214D02A4824
:10341000844211D0294884420ED0294884420BD0DE
:103420002848844208D02848844205D0274884424E
:1034300002D02748844200D104E04FF4B66125A0B1
:1034400000F00AFD40F2266085420BD040F2255084
:10345000854207D040F64600854203D040F66A1008
:10346000854200D104E040F2B1511AA000F0F4FC12
:1034700040F66A10854211D10C48844208D00C48AD
:10348000844205D00B48844202D00D48844200D1CA
:1034900004E040F2B6510FA000F0DEFC2E12012035
:1034A000B04087B2F8432080BDE8F08100100140B1
:1034B0000044004000480040004C004000500040E4
:1034C0000014014000780040007C004000180140DA
:1034D000001C01402E2E5C53544D33324634787814
:1034E0005F5374645065726970685F447269766591
:1034F000725C7372635C73746D3332663478785FB8
:1035000075736172742E630070B504460D461C48D5
:1035100084421AD01B48844217D01B48844214D0DE
:103520001A48844211D01A4884420ED01948844265
:103530000BD01948844208D01848844205D0184856
:10354000844202D01748844200D104E04FF4D7717E
:1035500015A000F081FC0DB1012D00D104E040F276
:10356000AF1111A000F078FC25B1A08940F4005003
:10357000A08104E0A0894DF6FF710840A08170BDD4
:10358000001001400044004000480040004C004052
:10359000005000400014014000780040007C0040D2
:1035A00000180140001C01402E2E5C53544D333254
:1035B000463478785F5374645065726970685F440C
:1035C00072697665725C7372635C73746D333266B4
:1035D0003478785F75736172742E630070B5044639
:1035E0000D4600262E4884421AD02E48844217D019
:1035F0002D48844214D02D48844211D02C48844256
:103600000ED02C4884420BD02B48844208D02B4843
:10361000844205D02A48844202D02A48844200D1FC
:1036200004E040F2135128A000F016FC012D13D045
:10363000802D11D0402D0FD0202D0DD0102D0BD06E
:10364000B5F5807F08D0B5F5007F05D0082D03D0F3
:10365000042D01D0022D00D104E040F214511AA033
:1036600000F0FAFBB5F5007F11D10D48844208D077
:103670000C48844205D00C48844202D00D48844254
:1036800000D104E040F219510FA000F0E5FB2088C2
:10369000284008B1012600E00026304670BD000039
:1036A000001001400044004000480040004C004031
:1036B000005000400014014000780040007C0040B1
:1036C00000180140001C01402E2E5C53544D333233
:1036D000463478785F5374645065726970685F44EB
:1036E00072697665725C7372635C73746D33326693
:1036F0003478785F75736172742E63002DE9F0473A
:1037000004460D4600270026B046B146474884428D
:103710001AD04748844217D04648844214D04648BD
:10372000844211D0454884420ED0454884420BD093
:103730004448844208D04448844205D043488442E7
:1037400002D04348844200D104E040F2675141A0D6
:1037500000F082FB282D27D040F22770854223D02D
:1037600040F2266085421FD040F2255085421BD092
:1037700040F22440854217D040F64600854213D0DF
:1037800040F66A1085420FD0B5F5587F0CD040F254
:103790002530854208D0B5F5587F05D0B5F5187F9E
:1037A00002D0B5F5B07F00D104E04FF4AD6129A09F
:1037B00000F052FB40F66A10854211D11B4884424A
:1037C00008D01B48844205D01A48844202D01C48C5
:1037D000844200D104E040F26D511EA000F03CFB99
:1037E000C5F3421805F01F06012000FA06F6B8F1ED
:1037F000010F02D1A089064007E0B8F1020F02D103
:10380000208A064001E0A08A06402F12012000FA1B
:1038100007F7208807401EB117B14FF0010901E0FA
:103820004FF000094846BDE8F08700000010014055
:103830000044004000480040004C00400050004060
:103840000014014000780040007C00400018014056
:10385000001C01402E2E5C53544D33324634787890
:103860005F5374645065726970685F44726976650D
:10387000725C7372635C73746D3332663478785F34
:1038800075736172742E63002DE9FF4704460D467F
:103890000026B14600BFB046764884421AD076482A
:1038A000844217D07548844214D07548844211D0A0
:1038B000744884420ED0744884420BD073488442CA
:1038C00008D07348844205D07248844202D07248BE
:1038D000844200D103E0FE2170A000F0BDFA286808
:1038E00020B17B492868884200D203E0FF216BA009
:1038F00000F0B2FAA88818B1A888B0F5805F00D1AE
:1039000004E04FF4807165A000F0A6FAE88858B191
:10391000E888B0F5805F07D0E888B0F5005F03D095
:10392000E888B0F5405F00D104E040F201115BA0EF
:1039300000F092FA288938B12889B0F5806F03D059
:103940002889B0F5C06F00D104E04FF4817153A015
:1039500000F082FA68894FF6F371084010B968895F
:1039600000B104E040F203114CA000F075FAA88900
:1039700058B1A889B0F5807F07D0A889B0F5007F3D
:1039800003D0A889B0F5407F00D104E04FF48271E4
:1039900042A000F061FAA88988B13648844208D074
:1039A0003548844205D03548844202D036488442A6
:1039B00000D104E040F2091138A000F04DFA268A47
:1039C00026F44056E88806432682A68941F20C6018
:1039D0008643A88829890843698908430643A68144
:1039E000A68A26F44076A8890643A6826846FDF793
:1039F00017FC2048844202D02348844202D1DDF8DB
:103A00000C9001E0DDF80890A08900F4004040B17E
:103A100009EBC90000EB091029684900B0FBF1F778
:103A200007E009EBC90000EB091029688900B0FB29
:103A3000F1F76420B7FBF0F006013009642101FBC7
:103A40001078A08900F4004040B1322000EBC8009B
:103A5000B0FBF1F000F00700064308E0322000EB75
:103A600008106421B0FBF1F000F00F00064326813E
:103A7000BDE8FF87001001400044004000480040BE
:103A8000004C00400050004000140140007800400D
:103A9000007C004000180140001C01402E2E5C53A9
:103AA000544D3332463478785F537464506572698C
:103AB00070685F4472697665725C7372635C73747C
:103AC0006D3332663478785F75736172742E63007B
:103AD000E170720010B50446134884421AD01348AE
:103AE000844217D01248844214D01248844211D024
:103AF000114884420ED0114884420BD010488442B1
:103B000008D01048844205D00F48844202D00F48A4
:103B1000844200D104E04FF410710DA000F09CF934
:103B2000A088C0F3080010BD001001400044004010
:103B300000480040004C004000500040001401408C
:103B400000780040007C004000180140001C01404B
:103B50002E2E5C53544D3332463478785F53746460
:103B60005065726970685F4472697665725C7372E1
:103B7000635C73746D3332663478785F7573617229
:103B8000742E630070B504460D46184884421AD05E
:103B90001748844217D01748844214D016488442EC
:103BA00011D0164884420ED0154884420BD01548D7
:103BB000844208D01448844205D01448844202D07C
:103BC0001348844200D104E04FF40C7111A000F0BE
:103BD00043F9B5F5007F00DA04E040F231210DA091
:103BE00000F03AF9C5F30800A08070BD0010014054
:103BF0000044004000480040004C0040005000409D
:103C00000014014000780040007C00400018014092
:103C1000001C01402E2E5C53544D333246347878CC
:103C20005F5374645065726970685F447269766549
:103C3000725C7372635C73746D3332663478785F70
:103C400075736172742E63004FF416510160002188
:103C50008180C18001810C214181002181817047D7
:103C60000FB4054B10B503A9044A029800F018F8E8
:103C700010BC5DF814FB00008D3E00089C05002080
:103C800002E008C8121F08C1002AFAD17047704725
:103C9000002001E001C1121F002AFBD17047000083
:103CA0002DE9FF4F8BB09A460F460546002606E0E9
:103CB00025280BD052460D9990476D1C761C28780C
:103CC0000028F5D10FB03046BDE8F08F0024A046A3
:103CD0000122604900E0044315F8013F203B02FA4D
:103CE00003F00842F7D128782E2817D115F8010FD4
:103CF00044F004042A280ED06FF02F022878A0F197
:103D0000300109290AD808EB880102EB410100EBD8
:103D100001086D1CF2E757F8048B6D1C28786928A0
:103D20003ED006DC0028CDD063280BD0642804D117
:103D300036E0732810D075284BD052460D99904725
:103D4000761C85E017F8040B8DF8000000208DF834
:103D50000100E946012003E057F8049B4FF0FF30D3
:103D600061074FF0000401D40AE0641C44450DDAF9
:103D70008442FADB19F804100029F6D106E0641C2D
:103D80008442FCDB19F804100029F8D1264404E031
:103D900019F8010B52460D999047641EF8D257E06E
:103DA00001CF4FF00A0B002802DA40422D2102E039
:103DB000210504D52B218DF82410012103E0E10712
:103DC00005D02021F7E70DF1200908910CE0002132
:103DD000F9E701CF4FF00A0BF9E75946FCF702FA71
:103DE00001F1300209F8012D0028F6D1ADEB0900F0
:103DF00000F1200B600701D44FF00108D84502DD27
:103E0000A8EB0B0000E000208046002406E009A893
:103E10005246005D0D999047641C761C08988442B8
:103E2000F5DB04E0302052460D999047761CB8F13E
:103E30000001A8F10108F5DC05E019F8010B524674
:103E40000D999047761CBBF10001ABF1010BF4DC3E
:103E50006D1C34E70928010004460D462B46224616
:103E6000024903A0FFF7FCFEAFF30080BC3F00084F
:103E700025733A2066696C65202573206F6E206C6F
:103E8000696E652025640D0A0000000070B50446C7
:103E90000D46E0B200F082F8204670BD08B54FF440
:103EA000A060FCF719FFFCF72BFDFDF72DFAFDF7DD
:103EB0006DFEFCF707FDFCF787FD0320FCF738FEDD
:103EC0004FF4E13000F028F8FCF71EFAFCF7BAFFD7
:103ED000FDF7ACF804480723402200210090084673
:103EE000FCF743FF00BFFEE79001002070B50446D9
:103EF0000D46A01CC4B2102141EA1410FDF75AF877
:103F0000102141EA1410FDF755F805F1B001C8B2CF
:103F1000FDF750F870BD000010B586B004460020D3
:103F200004900590009001900290039001210846B2
:103F3000FDF7B2F801211020FDF730F90722092121
:103F40001448FCF709FB07220A211248FCF704FB7E
:103F500002208DF8140000208DF816004FF4C06088
:103F6000049000208DF8170003208DF8150004A997
:103F70000848FCF711FA6846FFF766FE00946946A8
:103F80000548FFF781FC01210348FFF7BDFA06B0A1
:103F900010BD0000000002400010014010B50446B2
:103FA00000BF80210448FFF719FB0028F9D0214603
:103FB0000148FFF7E7FD10BD001001406173736514
:103FC00072745F6661696C6564004D6F746F725FD7
:103FD000536574537065656400000000FC3F000881
:103FE00000000020A005000034020008E4410008A1
:103FF000A005002018600000903C0008412D01023F
:104000000304040593060708091EC0E0E0E08001F0
:104010001BC0C00501312810010706030101F1F39F
:10402000373F1D313161C1440930466C0207074FEB
:1040300049017910017C4F6020C0E0E0E0D22B8084
:10404000800C0559E0C0E020BA800B280FE4F8FC92
:104050000CD6EBEBEDED6DDEC202607B11180DC1ED
:1040600005839B86CCF8F2E4DCC0C09611024E407A
:1040700018193EBFFFFF7F7F7FBFBFBEBFD1DBD818
:10408000B9BFBFB898E82C2C2C2D01180B2C2C4C48
:104090003C3C3E3E3F0F1F011A3F01000A437F7E1A
:1040A000E0F1FFDFC73304100B90E070BB1D661614
:1040B0001B1D0505270203030328100206050D0337
:1040C000162E4D1A30E0F0F07060011A7001062AC9
:1040D000F080B07040480880F0FC1FE70902751BB3
:1040E00020C04B4AF80114F070081B408001416A5F
:1040F0006017C009F0F0E0D0A060C0C01201101E2F
:1041000001073EFDFB1BDB1B3F3B37485C1C9B87CD
:10411000FE7CB0A07078F8FCFCFCF8FA74021C304D
:10412000141FFFFF3AC1642128080403072F2F0F33
:104130000F04180807090C060F30180C150D181875
:104140001012025C09172F014D171B3803AFB11075
:1041500010C0FFFFFEFE0F030B03030717373716D0
:10416000480C070707060605031FFEF20FC20117DA
:10417000180860F8F9FFFFFCF3D503262040BEC005
:10418000E0F0F0F801780BFCFDFEFEFF7F7F3F675B
:104190006001380D28A0B0B0D0583DBEBFBFBE3EB4
:1041A0000102165C58080303060105010301180A01
:1041B000021616040C2C2C0A18011A1001AA300140
:1041C0003AB001380ED0D0D5131B1F1F1F0F0F0F91
:1041D000071701680A1B1B030105050607010101FA
:0441E0002F000000AC
:040000050800018965
:00000001FF
