:020000040800F2
:10000000988800209D010008A5010008210A000829
:10001000A9010008AB010008AD01000800000000C4
:10002000000000000000000000000000AF01000818
:10003000B101000800000000B3010008B50100088C
:10004000B7010008B7010008B7010008B7010008B0
:10005000B7010008B7010008B7010008B7010008A0
:10006000B7010008B7010008B7010008B701000890
:10007000B7010008B7010008B7010008B701000880
:10008000B7010008B7010008B7010008B701000870
:10009000B7010008B7010008B7010008B701000860
:1000A000B7010008B7010008B7010008B701000850
:1000B000B7010008B7010008B7010008B701000840
:1000C000B7010008B7010008B7010008B701000830
:1000D000B7010008B7010008B7010008C13E0008D9
:1000E000B7010008B7010008B7010008B701000810
:1000F000B7010008B7010008B7010008B701000800
:10010000B7010008B7010008B70100085D1E00082C
:10011000B7010008B7010008B7010008B7010008DF
:10012000B7010008B7010008B7010008B7010008CF
:10013000B7010008B7010008B7010008B7010008BF
:10014000B7010008B7010008B7010008B7010008AF
:10015000B7010008B7010008B7010008B70100089F
:10016000B7010008B7010008B7010008B70100088F
:10017000B7010008B7010008B7010008B70100087F
:10018000B7010008B7010008DFF80CD000F052F802
:1001900000480047394A00089888002006488047F0
:1001A00006480047FEE7FEE7FEE7FEE7FEE7FEE75C
:1001B000FEE7FEE7FEE7FEE70526000889010008E6
:1001C00040EA01039B0703D009E008C9121F08C0D9
:1001D000042AFAD203E011F8013B00F8013B521E59
:1001E000F9D27047D2B201E000F8012B491EFBD2D0
:1001F00070470022F6E710B513460A460446194632
:10020000FFF7F0FF204610BD30B50B460146002039
:100210002022012409E021FA02F59D4205D303FAC8
:1002200002F5491B04FA02F52844151EA2F1010249
:10023000F1DC30BD064C074D06E0E06840F00103FC
:1002400094E8070098471034AC42F6D3FFF7A0FFBC
:100250001C5400083C54000870B58D1810F8014B70
:1002600014F0030201D110F8012B231106D110F86C
:10027000013B03E010F8016B01F8016B521EF9D14C
:10028000ABB110F8012B04F00C048A1A0C2C03D02B
:10029000A2EB84129B1C08E010F8014BA2EB042295
:1002A000F8E712F8014B01F8014B5B1EF9D5A942A2
:1002B000D4D3002070BD00001CB500200090019038
:1002C0000121032001F058FC4FF40040009002206F
:1002D0008DF804006946154800F088F806220F21C1
:1002E000124800F063F9202000906946104800F0A1
:1002F0007DF8062205210E4800F058F908200090EC
:1003000069460B4800F072F806220321084800F005
:100310004DF91020009000208DF8040001208DF888
:1003200007006946024800F061F81CBD0000024069
:100330000004024010B5FFF7BFFF00F001F810BD48
:1003400000B587B0142102A8FFF753FF00200190E9
:100350000121C80301F052FC0020ADF80800ADF8FF
:100360000A00ADF80C00ADF80E000120ADF8100049
:100370000020ADF812008020ADF816000720ADF87F
:10038000180002A90E4801F0D1FF01210C4801F02C
:1003900085FD012260210A4801F0BEFE33208DF860
:1003A000040001208DF8050000208DF806000120D2
:1003B0008DF8070001A800F083FF07B000BD000022
:1003C000003C004030B502460B460021002004E00E
:1003D000145C0C44A1B2441CE0B29842F8D34C42E5
:1003E000A1B20C1214541518697030BD2DE9F041FA
:1003F00004460D4600260027B046544884421DD0CE
:10040000534884421AD05348844217D052488442F9
:1004100014D05248844211D0514884420ED05148E1
:1004200084420BD05048844208D05048844205D0C2
:100430004F48844202D04F48844200D103E0CF218C
:100440004DA004F0D7FA288880B200B103E0D02193
:1004500049A004F0CFFA287940B12879012805D0C5
:100460002879022802D02879032800D103E0D1217D
:1004700041A004F0BFFAE87928B1E879012802D058
:10048000E879022800D103E0D2213BA004F0B2FABF
:10049000002657E0012000FA06F7286800EA07085E
:1004A000B8454ED1206872000321914088432060F6
:1004B0002879710088402168084320602879012844
:1004C00002D02879022830D1687940B168790128B2
:1004D00005D06879022802D06879032800D103E0AA
:1004E000E42125A004F086FAA0687200032191405F
:1004F0008843A060687971008840A1680843A060C3
:10050000A87910B1A879012800D103E0EB211AA045
:1005100004F070FA61680120B04081436160616855
:10052000A879B04080B201436160E06872000321A5
:1005300091408843E060E87971008840E1680843B1
:10054000E060761C102EA5D3BDE8F08100000240CB
:100550000004024000080240000C0240001002406B
:100560000014024000180240001C0240002002401B
:1005700000240240002802402E2E5C53544D33329A
:10058000463478785F5374645065726970685F446C
:1005900072697665725C7372635C73746D33326614
:1005A0003478785F6770696F2E6300002DE9F04141
:1005B00006460D4614460027B846544886421DD0CC
:1005C000534886421AD05348864217D05248864232
:1005D00014D05248864211D0514886420ED051481C
:1005E00086420BD05048864208D05048864205D0FB
:1005F0004F48864202D04F48864200D104E040F284
:1006000049214DA004F0F6F9EDB1012D1BD0022DCA
:1006100019D0032D17D0042D15D0052D13D0062D7C
:1006200011D0072D0FD0082D0DD0092D0BD00A2D7C
:1006300009D00B2D07D00C2D05D00D2D03D00E2D7C
:1006400001D00F2D00D104E040F24A213AA004F07D
:10065000D1F9A4B3092C32D08CB384B37CB374B376
:10066000012C2CD02BD0022C29D028D027D0032C21
:1006700025D0042C23D022D021D0052C1FD01ED071
:10068000092C1CD0062C1AD0092C18D0072C16D0F7
:1006900015D014D0082C12D011D010D0092C0ED0A7
:1006A0000DD00A2C0BD00AD00B2C08D00C2C06D065
:1006B00005D00D2C03D00F2C01D00C2C00D104E060
:1006C00040F24B211CA004F095F96807C00E04FA13
:1006D00000F7E91006F1200050F821006907CA0E62
:1006E0000F2191408843EA1006F1200141F82200D1
:1006F000E91006F1200050F8210040EA0708E9104F
:1007000006F1200040F82180BDE8F08100000240A1
:100710000004024000080240000C024000100240A9
:100720000014024000180240001C02400020024059
:1007300000240240002802402E2E5C53544D3332D8
:10074000463478785F5374645065726970685F44AA
:1007500072697665725C7372635C73746D33326652
:100760003478785F6770696F2E63000070B5054656
:100770000C4600262E4885421DD02E4885421AD0B0
:100780002D48854217D02D48854214D02C488542EB
:1007900011D02C4885420ED02B4885420BD02B48D7
:1007A000854208D02A48854205D02A48854202D091
:1007B0002948854200D104E04FF4A47127A004F039
:1007C00019F9012C25D0022C23D0042C21D0082C7F
:1007D0001FD0102C1DD0202C1BD0402C19D0802CC9
:1007E00017D0B4F5807F14D0B4F5007F11D0B4F5E4
:1007F000806F0ED0B4F5006F0BD0B4F5805F08D0D9
:10080000B4F5005F05D0B4F5804F02D0B4F5004FC9
:1008100000D104E040F2491110A004F0EBF828697F
:10082000204008B1012600E00026304670BD0000DF
:10083000000002400004024000080240000C024098
:10084000001002400014024000180240001C024048
:100850000020024000240240002802402E2E5C535B
:10086000544D3332463478785F53746450657269FE
:1008700070685F4472697665725C7372635C7374EE
:100880006D3332663478785F6770696F2E6300006D
:1008900070B504460D46184884421DD0174884425E
:1008A0001AD01748844217D01648844214D01648EC
:1008B000844211D0154884420ED0154884420BD092
:1008C0001448844208D01448844205D01348844216
:1008D00002D01348844200D104E04FF4DA7111A031
:1008E00004F088F8A8B200B104E040F2B5110DA000
:1008F00004F080F8658370BD0000024000040240EF
:1009000000080240000C02400010024000140240A7
:1009100000180240001C0240002002400024024057
:10092000002802402E2E5C53544D333246347878E2
:100930005F5374645065726970685F44726976656C
:10094000725C7372635C73746D3332663478785F93
:100950006770696F2E63000070B504460D46184835
:1009600084421DD0174884421AD01748844217D0B9
:100970001648844214D01648844211D01548844247
:100980000ED0154884420BD01448844208D0144835
:10099000844205D01348844202D01348844200D1D7
:1009A00004E040F29F1111A004F024F8A8B200B1B5
:1009B00004E04FF4D0710DA004F01CF8258370BD45
:1009C000000002400004024000080240000C024007
:1009D000001002400014024000180240001C0240B7
:1009E0000020024000240240002802402E2E5C53CA
:1009F000544D3332463478785F537464506572696D
:100A000070685F4472697665725C7372635C73745C
:100A10006D3332663478785F6770696F2E630000DB
:100A200002A003F0EBFE00BFFEE700004861726425
:100A3000204572726F72210D0A00000010B51B482C
:100A4000007810B101282DD119E010211848FFF7C6
:100A50008DFE98B91748007980B11648007815497D
:100A600049780844FF2803D1124880781249087059
:100A700000201049087101200C49087012E0102173
:100A80000B48FFF773FE38B90B480078442803D0B1
:100A900009480078402804D100200449087006491C
:100AA000087000BF00BF0448007810BD4328002034
:100AB000000402403D2800204228002010B5FFF726
:100AC000BDFF0446192C62D008DC082C23D0102C62
:100AD00049D0142C51D0182C63D108E01C2C2ED0F6
:100AE000522C0ED05A2C20D05E2C5AD131E000F07E
:100AF000E1F800BF01220021032003F04BFE00BFFC
:100B000059E000F0A1F800BF02220021032003F009
:100B100041FE00BF4FE000F053F900BF0322002167
:100B2000104603F037FE00BF45E000F07FF900BF3C
:100B300004220021032003F02DFE00BF3BE000F063
:100B4000B1FA00BF05220021032003F023FE00BFFD
:100B500031E000F0DDFA00BF06220021032003F09F
:100B600019FE00BF27E000F03FFB00BF0722002175
:100B7000032003F00FFE00BF1DE000F06BFB00BF81
:100B800008220021032003F005FE00BF13E000F05F
:100B9000F5FA00BF09220021032003F0FBFD00BF8E
:100BA00009E000F0EBFA00BF09220021032003F066
:100BB000F1FD00BF00BF00BF10BD00001CB500204C
:100BC000009001900121022000F0D6FF4FF48070C8
:100BD000009000208DF804008DF807006946054854
:100BE000FFF704FC4FF40070009069460148FFF7DE
:100BF000FDFB1CBD000402401CB5002000900190CC
:100C00000121102000F0B8FF0420009001208DF891
:100C1000040000208DF8060002208DF805006946CA
:100C20000848FFF7E3FB0820009069460548FFF7F6
:100C3000DDFB04210348FFF78FFE08210148FFF781
:100C40008BFE1CBD0010024010B500BF4FF40061C8
:100C50001648FFF71DFE4FF480611448FFF77CFE35
:100C600000BF00BF4FF480711048FFF711FE4FF432
:100C700000710E48FFF770FE00BF00BF4FF4004147
:100C80000B48FFF705FE4FF480410948FFF764FE6B
:100C900000BF00BF4FF480510548FFF75DFE4FF4E1
:100CA00000610348FFF7F4FD00BF10BD000C0240D7
:100CB0000010024010B500BF4FF400611648FFF766
:100CC0004BFE4FF480611448FFF7E2FD00BF00BF08
:100CD0004FF480711048FFF73FFE4FF400710E484B
:100CE000FFF7D6FD00BF00BF4FF400410B48FFF7F0
:100CF00033FE4FF480410948FFF7CAFD00BF00BF33
:100D00004FF480510548FFF7C3FD4FF400610348DD
:100D1000FFF722FE00BF10BD000C02400010024091
:100D20001CB50020009001900121022000F024FF5A
:100D30000121082000F020FF0121102000F01CFFFD
:100D400001208DF8040000208DF806008DF80700C2
:100D500002208DF805004FF47060009069460C4841
:100D6000FFF744FB4FF45840009069460948FFF7ED
:100D70003DFB4FF48040009069460548FFF736FB85
:100D80004FF40050009069460248FFF72FFB1CBD4E
:100D9000000C02400010024010B5FFF7C1FF00F048
:100DA0007BF84FF480410448FFF7D6FD4FF4005123
:100DB0000248FFF7D1FD10BD000C024000100240B8
:100DC00010B500BF4FF400611648FFF761FD4FF406
:100DD00080611448FFF7C0FD00BF00BF4FF4807171
:100DE0001048FFF7B9FD4FF400710E48FFF750FDB2
:100DF00000BF00BF4FF400410B48FFF7ADFD4FF4BB
:100E000080410948FFF744FD00BF00BF4FF4805107
:100E10000548FFF7A1FD4FF400610348FFF738FDD7
:100E200000BF10BD000C02400010024010B500BF12
:100E30004FF400611648FFF78FFD4FF480611448AE
:100E4000FFF726FD00BF00BF4FF480711048FFF789
:100E50001FFD4FF400710E48FFF77EFD00BF00BF7D
:100E60004FF400410B48FFF713FD4FF48041094850
:100E7000FFF772FD00BF00BF4FF480510548FFF738
:100E800007FD4FF400610348FFF766FD00BF10BD8A
:100E9000000C02400010024000B58BB00020099009
:100EA0000A90069007900890142101A8FFF7A1F975
:100EB0000121022000F060FE0121082000F05CFE0C
:100EC0000121022000F09AFE0121042000F096FE8C
:100ED00002208DF8280000208DF82A0003200990B8
:100EE00000208DF82B0002208DF8290009A9364832
:100EF000FFF77CFA022200213348FFF757FB02225A
:100F000001213148FFF752FB4FF44050099009A9E5
:100F10002E48FFF76BFA02220C212C48FFF746FB04
:100F200002220D212948FFF741FB0020ADF82000E7
:100F3000ADF81A005320ADF818006420079006A9F8
:100F4000234802F0AFFD06A9224802F0ABFD602065
:100F5000ADF804000120ADF806000020ADF8100047
:100F60003220039001A91A4802F0CEF801A91848CE
:100F700002F006FA0821164802F0B2F908211448D6
:100F800002F0B4FA0121124801F09AFB01A91148BC
:100F900001F0FEFD01A90F4801F060FF08210D4896
:100FA00001F0EEFE08210B4802F050F8012109483B
:100FB00001F086FB0121064801F068FC012105488B
:100FC00001F064FC0BB000BD00040240000C0240C4
:100FD000000400400008004010B50446012C06D073
:100FE000022C15D0032C24D0042C44D132E019213A
:100FF000244802F027FC1921224802F083FC192121
:10100000214802F0CBFC19211F4802F009FD37E00E
:1010100032211C4802F016FC32211A4802F072FC00
:101020003221194802F0BAFC3221174802F0F8FCCC
:1010300026E04B21134802F005FC4B21114802F039
:1010400061FC4B21104802F0A9FC4B210E4802F034
:10105000E7FC15E064210B4802F0F4FB6421094829
:1010600002F050FC6421084802F098FC6421064814
:1010700002F0D6FC04E0054905A003F0BFFB00BF69
:1010800000BF10BD0008004000040040464C0008AE
:1010900025733A20617267206973206572726F72DE
:1010A0000D0A000010B500BF4FF400611648FFF7AD
:1010B000EFFB4FF480611448FFF74EFC00BF00BF08
:1010C0004FF480711048FFF7E3FB4FF400710E48B6
:1010D000FFF742FC00BF00BF4FF400410B48FFF791
:1010E0003BFC4FF480410948FFF7D2FB00BF00BF33
:1010F0004FF480510548FFF7CBFB4FF400610348E4
:10110000FFF72AFC00BF10BD000C02400010024097
:1011100010B500BF4FF400611648FFF71DFC4FF4F7
:1011200080611448FFF7B4FB00BF00BF4FF480712B
:101130001048FFF711FC4FF400710E48FFF7A8FBB1
:1011400000BF00BF4FF400410B48FFF7A1FB4FF475
:1011500080410948FFF700FC00BF00BF4FF48051F9
:101160000548FFF7F9FB4FF400610348FFF790FBD8
:1011700000BF10BD000C02400010024010B500BFBF
:101180004FF400711648FFF7E7FB4FF480711448E5
:10119000FFF7E2FB00BF00BF4FF480611048FFF78C
:1011A000DBFB4FF400610E48FFF7D6FB00BF00BF2A
:1011B0004FF480410B48FFF7CFFB4FF40041094843
:1011C000FFF7CAFB00BF00BF4FF480510548FFF78F
:1011D000C3FB4FF400610348FFF7BEFB00BF10BD27
:1011E000000C02400010024010B500BF4FF4007127
:1011F0001648FFF7B1FB4FF480711448FFF7ACFBC2
:1012000000BF00BF4FF480611048FFF7A5FB4FF40B
:1012100000610E48FFF7A0FB00BF00BF4FF4004184
:101220000B48FFF799FB4FF480410948FFF730FB6B
:1012300000BF00BF4FF480510548FFF729FB4FF472
:1012400000610348FFF788FB00BF10BD000C02409F
:101250000010024010B500BF4FF400611648FFF7C0
:101260007BFB4FF480611448FFF712FB00BF00BF07
:101270004FF480711048FFF76FFB4FF400710E4878
:10128000FFF706FB00BF00BF4FF480410B48FFF79C
:1012900063FB4FF400410948FFF75EFB00BF00BF4E
:1012A0004FF480510548FFF757FB4FF400610348A6
:1012B000FFF752FB00BF10BD000C024000100240BF
:1012C0002DE9F0410446002500270F26E07810B1F3
:1012D000E078012800D103E08D2122A003F08AFBF1
:1012E0006078102800DA03E08E211EA003F082FB54
:1012F000A078102800DA03E08F211AA003F07AFB0F
:10130000E07818B32248006800F4E060C0F5E060BF
:10131000C0F30725C5F10400C7B22E416078B8407C
:10132000C5B2A078304005432807050E194821783A
:101330004554207800F01F01012088402178491190
:10134000890001F1E021C1F8000109E0207800F0F6
:101350001F010120884010492278521141F82200D3
:10136000BDE8F0812E2E5C53544D333246347878EC
:101370005F5374645065726970685F447269766522
:10138000725C7372635C6D6973632E6300000000AE
:101390000CED00E000E400E080E100E010B5044660
:1013A000B4F5E06F0BD0B4F5C06F08D0B4F5A06F02
:1013B00005D0B4F5806F02D0B4F5407F00D103E0D2
:1013C000792104A003F016FB0D4820430D49086065
:1013D00010BD00002E2E5C53544D333246347878C5
:1013E0005F5374645065726970685F4472697665B2
:1013F000725C7372635C6D6973632E63000000003E
:101400000000FA050CED00E070B500240CE00021AE
:10141000204600F01DF9002503E0002000F04AF905
:101420006D1C802DF9DD641C072CF0DD70BD2DE9ED
:10143000F05F05460E4617469846DDF828A04FF0A7
:10144000000B344614E02146284603F053FBA9461E
:101450000AE059460BF1010B1AF8010000F02AF9D5
:1014600009F1010000F0FF09B945F2DB601CC4B2CC
:101470004445E8DBBDE8F09F1CB5002000900190DA
:101480000121212000F078FB4FF4806000900220C1
:101490008DF8050001208DF8040000208DF806006D
:1014A00069461748FEF7A2FF4FF4007000906946A6
:1014B0001348FEF79BFF4FF4807000906946104878
:1014C000FEF794FF2020009002208DF8040069466A
:1014D0000C48FEF78BFF052211460A48FFF766F815
:1014E0008020009002208DF8040069460548FEF730
:1014F0007DFF052207210348FFF758F81CBD0000B7
:10150000001402400000024010B5FFF7B5FF00F0E4
:101510006DF800BF4FF480713348FFF7B9F900BF91
:10152000642002F077FC00BF4FF480712E48FFF773
:1015300013FA00BFAE2000F09FF8002000F09CF8E6
:10154000102000F099F8402000F096F8812000F07B
:1015500093F8CF2000F090F8A12000F08DF8C8207B
:1015600000F08AF8A62000F087F8A82000F084F8A0
:101570003F2000F081F8D32000F07EF8002000F03A
:101580007BF8D52000F078F8802000F075F8D9209D
:1015900000F072F8F12000F06FF8DA2000F06CF83B
:1015A000122000F069F8DB2000F066F8402000F01F
:1015B00063F8202000F060F8022000F05DF88D2034
:1015C00000F05AF8142000F057F8A42000F054F866
:1015D000A62000F051F8AF2000F04EF8AF2000F048
:1015E0004BF8FFF711FF10BD0014024000B585B0A5
:1015F00014216846FEF7FDFD0121080300F03EFBC3
:101600000020ADF800004FF48270ADF80200002019
:10161000ADF804000220ADF806000120ADF8080086
:101620004002ADF80A000020ADF80C00ADF80E0045
:101630000120ADF810006946044800F077FE012152
:10164000024800F02BFC05B000BD00000030014056
:1016500070B505460C4605F1B001C8B200F00CF8B3
:10166000C4F3031141F0100000F006F804F00F007D
:1016700000F002F870BD000010B5044600BF4FF442
:1016800080610B48FFF704F900BF00BF4FF4007101
:101690000748FFF7FDF800BF204600F025FF00BF18
:1016A0004FF480610248FFF757F900BF10BD0000FA
:1016B0000014024010B5044600BF4FF480610B488F
:1016C000FFF7E6F800BF00BF4FF400710748FFF7CF
:1016D00043F900BF204600F007FF00BF4FF48061D0
:1016E0000248FFF739F900BF10BD000000140240A6
:1016F0002DE9FF41074688461446A4F12000C4B2F4
:101700000F4800EB041110226846FEF759FD002532
:1017100012E078194146FFF79BFF002608E00821F8
:1017200001FB05611DF80100FFF7C4FF701CC6B284
:10173000082EF4DB681CC5B2022DEADBBDE8FF8190
:10174000554C00082DE9F04389B08046894616467D
:10175000202101A8FEF74DFD00242EE03078194924
:1017600011F81410884226D17078012101EB440150
:10177000144A515C88421ED11348202202FB040106
:1017800001A8FEF71DFD002513E008EB0500494602
:10179000FFF75EFF002708E0102101FB057101AA99
:1017A000505CFFF787FF781CC7B2102FF4DB681C72
:1017B000C5B2022DE9DB601CC4B20C2CCEDB09B033
:1017C000BDE8F083555200086E5200082DE9F04143
:1017D00007460D46164600241FE0305DA0280EDCAB
:1017E000325D29463846FFF783FF05F10800C5B290
:1017F000641C7F2D11DB0025B81CC7B20DE0321927
:1018000029463846FFF79EFF05F11000C5B2A41C1B
:101810007F2D02DB0025B81CC7B2305D0028DCD16B
:10182000BDE8F081002004E00021034A1154411C6E
:10183000C8B20928F8DB70475C28002038B5044698
:10184000012000900020224948700120009037E0DC
:10185000BDF80000204028B14FF400411D48FFF7BB
:101860007BF804E04FF400411A48FFF711F84FF4F9
:1018700000511848FFF770F80A2002F0F7FA4FF409
:1018800000511448FFF704F80A2002F0EFFA4FF471
:1018900000511048FFF760F84FF480410D48FEF703
:1018A00065FF30B10A484078BDF800100843084988
:1018B0004870BDF800004FF6FF7101EA400000904B
:1018C000BDF80000FF28C3DD102002F0CFFA38BDBC
:1018D0005C2800200004024010B5FFF7A3FF00F0D1
:1018E00077F81C48C0781B49097940EA01201A4959
:1018F00008800846008808B9002010BD002422E0B6
:10190000164810F81400401E012101FA00F0124997
:1019100009880840A8B9601C012806D11048007841
:1019200018B901200E49087008E0601C012805D193
:101930000B480078012801D10020DEE7601CC0B20E
:10194000DBE7601CC4B2102CDADB0020044908700D
:1019500000BFD2E75C2800201428002018280020AF
:101960003C2800201CB5002000900190012102209D
:1019700000F002F94FF48040009000208DF8040040
:1019800002208DF8070069461048FEF72FFD4FF43E
:101990000040009001208DF8040000208DF8060022
:1019A00002208DF8050069460848FEF71FFD4FF438
:1019B0000050009069460548FEF718FD4FF480502E
:1019C000009069460148FEF711FD1CBD000402406D
:1019D0001CB5002001900120009001032948FEF76A
:1019E00057FF29490878FFF729FF27494878FFF76B
:1019F00025FF022001903BE0012000902CE04FF4F5
:101A000000512048FEF7A8FF0A2002F02FFA4FF4F9
:101A100000511C48FEF73CFF0A2002F027FA4FF461
:101A200000511848FEF798FF4FF480411548FEF723
:101A30009DFE50B115489DF80410405CBDF80010A3
:101A4000084312499DF804208854BDF800004FF661
:101A5000FF7101EA40000090BDF80000FF28CEDDD4
:101A6000102002F003FA9DF80400401CC0B201905F
:101A70009DF804000928BFDB4FF480510148FEF7B0
:101A80006BFF1CBD00040240162800205C280020CB
:101A900010B503F045F80A21B0FBF1F201FB12008A
:101AA00000B110BDFFF718FF0446601F082855D28B
:101AB000DFE800F004220E184A40362CFFF7FAF84F
:101AC00000BF01220021032002F064FE00BF4FE0AE
:101AD000FFF7BAF800BF02220021032002F05AFEED
:101AE00000BF45E0FFF76CF900BF0322002110465C
:101AF00002F050FE00BF3BE0FFF798F900BF042260
:101B00000021032002F046FE00BF31E0FFF7A2FBF8
:101B100000BF08220021032002F03CFE00BF27E0A6
:101B2000FFF762FB00BF07220021032002F032FE14
:101B300000BF1DE0FFF7ECFA00BF062200210320E2
:101B400002F028FE00BF13E0FFF7ACFA00BF052249
:101B50000021032002F01EFE00BF09E0FFF70EFB8C
:101B600000BF09220021032002F014FE00BF00BFC5
:101B700000BF00BF95E7000070B504460D46104851
:101B8000204008B904B104E040F63B010DA002F08A
:101B900031FF0DB1012D00D104E040F63D0109A057
:101BA00002F028FF2DB11448006820431249086054
:101BB00004E011480068A0430F49086070BD0000B0
:101BC00000E80B012E2E5C53544D333246347878A6
:101BD0005F5374645065726970685F4472697665BA
:101BE000725C7372635C73746D3332663478785FE1
:101BF0007263632E630000003038024070B5044603
:101C00000D4604F4585008B904B104E040F6B2019E
:101C10000CA002F0EFFE0DB1012D00D104E040F662
:101C2000B30108A002F0E6FE2DB11348006820437E
:101C30001149086004E010480068A0430E4908609C
:101C400070BD00002E2E5C53544D333246347878EC
:101C50005F5374645065726970685F447269766539
:101C6000725C7372635C73746D3332663478785F60
:101C70007263632E630000004038024070B5044672
:101C80000D461048204008B904B104E040F6E601D2
:101C90000DA002F0AFFE0DB1012D00D104E040F621
:101CA000E70109A002F0A6FE2DB114480068204308
:101CB0001249086004E011480068A0430F49086019
:101CC00070BD00000C0008F02E2E5C53544D3332D2
:101CD000463478785F5374645065726970685F4405
:101CE00072697665725C7372635C73746D333266AD
:101CF0003478785F7263632E6300000044380240DA
:101D0000F0B5002100220024022500260223324FD4
:101D10003F6807F00C0121B1042905D0082937D10B
:101D200005E02E4F076036E02D4F076033E02A4F65
:101D30003F1F3F68C7F38056274F3F1F3F6807F09C
:101D40003F036EB1264FB7FBF3F7DFF88CC0ACF161
:101D5000040CDCF800C0CCF3881C07FB0CF40CE08E
:101D60001E4FB7FBF3F7DFF870C0ACF1040CDCF8E2
:101D700000C0CCF3881C07FB0CF4174F3F1F3F68D3
:101D8000C7F301477F1C7D00B4FBF5F7076002E055
:101D9000124F076000BF00BF0F4F3F6807F0F00110
:101DA0000909104F7A5C0768D74047600A4F3F68BF
:101DB00007F4E051890A0B4F7A5C4768D740876087
:101DC000054F3F6807F46041490B064F7A5C47684E
:101DD000D740C760F0BD0000083802400024F4007E
:101DE00040787D01000000201CB50020009001908B
:101DF00001213820FFF7C0FE4020009001208DF81F
:101E0000040000208DF8060002208DF805006946C8
:101E10000F48FEF7EBFA4FF40070009069460D484A
:101E2000FEF7E4FA4FF40040009069460A48FEF7D6
:101E3000DDFA40210648FEF72BFD4FF400710548FE
:101E4000FEF726FD4FF400410348FEF785FD1CBD5B
:101E50000014024000100240000C024010B5602146
:101E60000C4800F0DDF898B10A4800F0C9F9C1B299
:101E70000948C278C078401C074BD8701846815476
:101E8000C078032804DB00201946C87001200871BF
:101E900010BD0000003C00403D28002070B5044605
:101EA0000D46164884420ED0154884420BD0154882
:101EB000844208D01448844205D01448844202D099
:101EC0001348844200D104E040F22B2111A002F01B
:101ED00091FD0DB1012D00D104E04FF40B710DA067
:101EE00002F088FD25B1208840F04000208004E009
:101EF00020884FF6BF710840208070BD003001403F
:101F000000380040003C00400034014000500140D7
:101F1000005401402E2E5C53544D333246347878B1
:101F20005F5374645065726970685F447269766566
:101F3000725C7372635C73746D3332663478785F8D
:101F40007370692E6300000070B505460C460026CC
:101F50001F48854214D01F48854211D01E48854233
:101F60000ED01E4885420BD01D48854208D01D4822
:101F7000854205D01C48854202D0B5F1402F00D1E2
:101F800004E040F29C4119A002F034FD802C10D0F6
:101F9000402C0ED0202C0CD0102C0AD0082C08D0AD
:101FA000042C06D0022C04D0012C02D0B4F5807F82
:101FB00000D104E040F29D410CA002F01BFD2889F5
:101FC000204008B1012600E00026304670BD000028
:101FD0000030014000380040003C00400034014027
:101FE0000050014000540140003400402E2E5C534C
:101FF000544D3332463478785F5374645065726957
:1020000070685F4472697665725C7372635C737446
:102010006D3332663478785F7370692E6300000028
:102020002DE9F04704460D460027B8460026B14684
:102030002548844214D02548844211D02448844243
:102040000ED0244884420BD02348844208D0234831
:10205000844205D02248844202D0B4F1402F00D1FE
:1020600004E04FF49C611FA002F0C4FC602D0BD073
:10207000712D09D0542D07D0552D05D0562D03D0E4
:10208000532D01D0582D00D104E040F2E14115A0BC
:1020900002F0B0FC05F00F01012088401FFA80F823
:1020A0002E110120B04086B2A08800EA06092089DE
:1020B00000EA080020B1B9F1000F01D0012700E0CB
:1020C00000273846BDE8F087003001400038004066
:1020D000003C0040003401400050014000540140E9
:1020E000003400402E2E5C53544D33324634787801
:1020F0005F5374645065726970685F447269766595
:10210000725C7372635C73746D3332663478785FBB
:102110007370692E630000002DE9F04104460D46FE
:1021200016464FF0000800272148844214D0214869
:10213000844211D0204884420ED0204884420BD0E3
:102140001F48844208D01F48844205D01E4884425C
:1021500002D0B4F1402F00D104E040F271411BA045
:1021600002F048FC0EB1012E00D104E040F27241B1
:1021700016A002F03FFC712D03D0602D01D0502D30
:1021800000D104E040F2734110A002F033FC4FEAAA
:102190002518012000FA08F087B21EB1A088384344
:1021A000A08002E0A088B843A080BDE8F0810000D4
:1021B0000030014000380040003C00400034014045
:1021C0000050014000540140003400402E2E5C536A
:1021D000544D3332463478785F5374645065726975
:1021E00070685F4472697665725C7372635C737465
:1021F0006D3332663478785F7370692E6300000047
:1022000010B504460F48844214D00F48844211D0C0
:102210000E4884420ED00E4884420BD00D488442B2
:1022200008D00D48844205D00C48844202D0B4F155
:10223000402F00D104E040F2333109A002F0DAFB74
:10224000A08910BD0030014000380040003C004033
:10225000003401400050014000540140003400406F
:102260002E2E5C53544D3332463478785F53746469
:102270005065726970685F4472697665725C7372EA
:10228000635C73746D3332663478785F7370692E73
:102290006300000070B504460D461048844214D017
:1022A0000F48844211D00F4884420ED00E48844219
:1022B0000BD00E48844208D00D48844205D00D480A
:1022C000844202D0B4F1402F00D104E040F2433107
:1022D00009A002F08FFBA58170BD00000030014015
:1022E00000380040003C00400034014000500140F4
:1022F00000540140003400402E2E5C53544D3332C4
:10230000463478785F5374645065726970685F44CE
:1023100072697665725C7372635C73746D33326676
:102320003478785F7370692E6300000070B50546DD
:102330000C460026594885420ED0594885420BD09C
:102340005848854208D05848854205D057488542AC
:1023500002D05748854200D104E040F2211155A037
:1023600002F048FB208858B12088B0F5806F07D074
:102370002088B0F5004F03D02088B0F5404F00D141
:1023800004E04FF492714BA002F034FB6088B0F58A
:10239000827F01D0608800B904E040F2251145A099
:1023A00002F028FBA088B0F5006F01D0A08800B92A
:1023B00004E04FF493713FA002F01CFBE08810B1E1
:1023C000E088022800D104E040F2271139A002F091
:1023D00011FB208910B12089012800D104E04FF4BD
:1023E000947134A002F006FB6089B0F5007F01D043
:1023F000608900B904E040F229112EA002F0FAFA37
:10240000A089A0B1A089082811D0A08910280ED0D9
:10241000A08918280BD0A089202808D0A0892828B6
:1024200005D0A089302802D0A089382800D104E046
:102430004FF495711FA002F0DDFAE08910B1E08938
:10244000802800D104E040F22B111AA002F0D2FA49
:10245000208A012800DB04E04FF4967115A002F0F9
:10246000C9FA2E8806F44156208861880843A1885D
:102470000843E18808432189084361890843A18909
:102480000843E189084306432E80A88B4FF2FF7171
:102490000840A883208A288270BD000000300140D7
:1024A00000380040003C0040003401400050014032
:1024B000005401402E2E5C53544D3332463478780C
:1024C0005F5374645065726970685F4472697665C1
:1024D000725C7372635C73746D3332663478785FE8
:1024E0007370692E6300000070B50446002505E096
:1024F000681CC5B2C82D01DDFF2070BD0221054852
:10250000FFF722FD0028F3D021460248FFF7C2FE64
:102510000020F2E7003001400CB50020019000904F
:102520003448006840F480303249086000BF3148C8
:10253000006800F4003000900198401C0190009861
:1025400018B90198B0F5A04FF1D12A48006800F4FD
:10255000003010B10120009001E0002000900098B0
:10256000012846D123484030006840F0805021497E
:10257000403108602048006840F440401E4908602F
:102580001C48083000681B4908310860084600688C
:1025900040F4004008600846006840F4A05008601D
:1025A0001648091F0860081F006840F08070091F66
:1025B000086000BF0F48006800F000700028F9D0E4
:1025C00040F205700E4908600A480830006820F0A3
:1025D00003000849083108600846006840F002001E
:1025E000086000BF03480830006800F00C000828AD
:1025F000F8D10CBD0038024000700040195440076B
:10260000003C024010B51548006840F470001349C2
:1026100008601348006840F001001149086000207C
:102620000F49083108600E4800680E4908400C49FF
:1026300008600D48091D0860081F006820F480200C
:10264000091F0860002006490C310860FFF764FF8D
:102650004FF0006001498039086010BD88ED00E04E
:1026600000380240FFFFF6FE103000240EB50020B7
:1026700000900190029001211020FFF7BFFA002086
:10268000ADF80800ADF8020069460C4801F00AFAFE
:1026900001210A4800F014F80021084800F0EEFF7C
:1026A0000021064801F03AFB0021044801F0BAFA83
:1026B0000021024800F0EAF80EBD000000100040C2
:1026C00070B504460D462248844226D0B4F1804FAE
:1026D00023D02048844220D01F4884421DD01F4868
:1026E00084421AD01E48844217D01E48844214D017
:1026F0001D48844211D01D4884420ED01C4884429B
:102700000BD01C48844208D01B48844205D01B488B
:10271000844202D01A48844200D104E040F20D21E4
:1027200018A002F067F90DB1012D00D104E040F2CC
:102730000E2114A002F05EF925B1208840F080003F
:10274000208004E020884FF67F710840208070BD13
:10275000000001400004004000080040000C004060
:1027600000100040001400400004014000400140FF
:10277000004401400048014000180040001C004097
:10278000002000402E2E5C53544D3332463478786E
:102790005F5374645065726970685F4472697665EE
:1027A000725C7372635C73746D3332663478785F15
:1027B00074696D2E6300000070B504460D4619481B
:1027C000844226D0B4F1804F23D01748844220D0D1
:1027D000164884421DD0164884421AD015488442B7
:1027E00017D01548844214D01448844211D014489C
:1027F00084420ED0134884420BD01348844208D040
:102800001248844205D01248844202D011488442C2
:1028100000D104E040F6B8110FA002F0EBF8E84355
:10282000208270BD0000014000040040000800400C
:10283000000C004000100040001400400004014063
:1028400000400140004401400048014000180040A1
:10285000001C0040002000402E2E5C53544D3332AB
:10286000463478785F5374645065726970685F4469
:1028700072697665725C7372635C73746D33326611
:102880003478785F74696D2E6300000070B504467B
:102890000D462248844226D0B4F1804F23D02048F0
:1028A000844220D01F4884421DD01F4884421AD041
:1028B0001E48844217D01E48844214D01D488442CA
:1028C00011D01D4884420ED01C4884420BD01C48B5
:1028D000844208D01B48844205D01B48844202D061
:1028E0001A48844200D104E040F2532118A002F0BB
:1028F00081F80DB1012D00D104E04FF4157114A041
:1029000002F078F825B1208840F00100208004E032
:1029100020884FF6FE710840208070BD0000014005
:102920000004004000080040000C0040001000407F
:1029300000140040000401400040014000440140F8
:102940000048014000180040001C004000200040EA
:102950002E2E5C53544D3332463478785F53746472
:102960005065726970685F4472697665725C7372F3
:10297000635C73746D3332663478785F74696D2E7E
:102980006300000070B504460D461E48844226D000
:10299000B4F1804F23D01C48844220D01B4884428D
:1029A0001DD01B4884421AD01A48844217D01A48B6
:1029B000844214D01948844211D0194884420ED060
:1029C000184884420BD01848844208D017488442E3
:1029D00005D01748844202D01648844200D104E052
:1029E00040F66D1114A002F005F805F47F4008B917
:1029F00005B104E040F66E110FA001F0FBFFA582C7
:102A000070BD0000000001400004004000080040CC
:102A1000000C004000100040001400400004014081
:102A200000400140004401400048014000180040BF
:102A3000001C0040002000402E2E5C53544D3332C9
:102A4000463478785F5374645065726970685F4487
:102A500072697665725C7372635C73746D3332662F
:102A60003478785F74696D2E6300000070B5044699
:102A70000D4600262C48844226D0B4F1804F23D046
:102A80002A48844220D02A4884421DD029488442C2
:102A90001AD02948844217D02848844214D02848A4
:102AA000844211D0274884420ED0274884420BD05C
:102AB0002648844208D02648844205D025488442CE
:102AC00002D02548844200D104E040F68F1123A0B3
:102AD00001F090FF012D19D0022D17D0042D15D033
:102AE000082D13D0102D11D0202D0FD0402D0DD03A
:102AF000802D0BD0B5F5007F08D0B5F5806F05D0DF
:102B0000B5F5006F02D0B5F5805F00D104E04FF459
:102B1000196112A001F06EFF208A284008B1012639
:102B200000E00026304670BD000001400004004077
:102B300000080040000C004000100040001400405D
:102B400000040140004001400044014000480140B1
:102B500000180040001C0040002000402E2E5C5356
:102B6000544D3332463478785F53746450657269DB
:102B700070685F4472697665725C7372635C7374CB
:102B80006D3332663478785F74696D2E63000000AF
:102B90002DE9F04105460C464FF0000800260027BD
:102BA0005F48854220D0B5F1804F1DD05D488542F9
:102BB0001AD05D48854217D05C48854214D05C48E5
:102BC000854211D05B4885420ED05B4885420BD0D0
:102BD0005A48854208D05A48854205D0594885420E
:102BE00002D05948854200D104E040F2A62157A006
:102BF00001F000FF208870B1208810280BD02088B9
:102C0000202808D02088302805D02088602802D0CD
:102C10002088702800D104E040F2A7214BA001F0E9
:102C2000E9FE608810B16088012800D104E04FF40B
:102C30002A7146A001F0DEFEA08910B1A089022809
:102C400000D104E040F2A92140A001F0D3FE288C7D
:102C50004FF6FE71084028842E8CAF88B5F8188096
:102C60004FF68F7008EA0008881E08EA00082088DE
:102C700040EA0808481E0640A089064360880643CB
:102C80002748854202D02A48854241D1A08810B108
:102C9000A088042800D104E040F2C6212BA001F056
:102CA000A9FEE08910B1E089082800D104E040F2D3
:102CB000C72126A001F09EFE608AB0F5007F01D0FA
:102CC000608A00B904E04FF4327120A001F092FE56
:102CD000208AB0F5807F01D0208A00B904E040F25C
:102CE000C9211AA001F086FE4FF6F7700640E08970
:102CF00006434FF6FB700640A08806434FF6FF6080
:102D000007404FF6FF500740208A0743608A074379
:102D1000AF80A5F81880A06868632E84BDE8F081B4
:102D2000000001400004004000080040000C00408A
:102D300000040140004001400044014000480140BF
:102D400000180040001C0040002000402E2E5C5364
:102D5000544D3332463478785F53746450657269E9
:102D600070685F4472697665725C7372635C7374D9
:102D70006D3332663478785F74696D2E63000000BD
:102D800070B504460D4600261C48844220D0B4F19C
:102D9000804F1DD01A4884421AD01A48844217D056
:102DA0001948844214D01948844211D018488442EA
:102DB0000ED0184884420BD01748844208D01748D8
:102DC000844205D01648844202D01648844200D17D
:102DD00004E040F2DB4114A001F00CFE082D00D00D
:102DE00005B904E040F2DC410FA001F003FE268BA0
:102DF0004FF6F77006402E43268370BD0000014059
:102E00000004004000080040000C004000040140A5
:102E100000400140004401400048014000180040CB
:102E2000001C0040002000402E2E5C53544D3332D5
:102E3000463478785F5374645065726970685F4493
:102E400072697665725C7372635C73746D3332663B
:102E50003478785F74696D2E630000002DE9F041CD
:102E600005460C464FF000080026002763488542BF
:102E700014D0B5F1804F11D0614885420ED0614821
:102E800085420BD06048854208D06048854205D015
:102E90005F48854202D05F48854200D104E040F29D
:102EA000F7215DA001F0A6FD208870B120881028D0
:102EB0000BD02088202808D02088302805D02088F2
:102EC000602802D02088702800D104E04FF43E71C1
:102ED00051A001F08FFD608810B16088012800D1F9
:102EE00004E040F2F9214CA001F084FDA08910B16A
:102EF000A089022800D104E040F2FA2146A001F0A6
:102F000079FD288C4FF6EF71084028842E8CAF880D
:102F1000B5F8188048F6FF7008EA00084FF6FF4041
:102F200008EA000820884FF6FF7101EA002040EA15
:102F300008084FF6DF700640A08901EA001006433A
:102F4000608801EA001006432C48854202D02F48D1
:102F500085424BD1A08810B1A088042800D104E09C
:102F60004FF446712CA001F045FDE08910B1E089D5
:102F7000082800D104E040F2193127A001F03AFD01
:102F8000608AB0F5007F01D0608A00B904E040F2A9
:102F90001A3121A001F02EFD208AB0F5807F01D0EA
:102FA000208A00B904E040F21B311BA001F022FD91
:102FB0004FF67F700640E0894FF6FF7101EA00107E
:102FC00006434FF6BF700640A08801EA0010064392
:102FD0004FF6FF3007404FF2FF700740208A01EAAA
:102FE00080000743608A01EA80000743AF80A5F8AC
:102FF0001880A068A8632E84BDE8F081000001401D
:103000000004004000080040000C004000040140A3
:1030100000400140001800402E2E5C53544D3332C6
:10302000463478785F5374645065726970685F44A1
:1030300072697665725C7372635C73746D33326649
:103040003478785F74696D2E6300000070B50446B3
:103050000D4600261848844214D0B4F1804F11D098
:10306000164884420ED0164884420BD0154884423C
:1030700008D01548844205D01448844202D0144830
:10308000844200D104E040F2F94112A001F0B2FC08
:10309000082D00D005B904E040F2FA410DA001F07E
:1030A000A9FC268B4FF2FF7006404FF6FF7000EA36
:1030B00005200643268370BD000001400004004047
:1030C00000080040000C00400004014000400140A6
:1030D000001800402E2E5C53544D3332463478781D
:1030E0005F5374645065726970685F447269766595
:1030F000725C7372635C73746D3332663478785FBC
:1031000074696D2E630000002DE9F04105460C4600
:103110004FF00008002600275F4885420ED0B5F129
:10312000804F0BD05D48854208D05D48854205D070
:103130005C48854202D05C48854200D104E04FF4EF
:1031400052715AA001F056FC208870B120881028D6
:103150000BD02088202808D02088302805D020884F
:10316000602802D02088702800D104E040F2493164
:103170004EA001F03FFC608810B16088012800D1AA
:1031800004E040F24A3149A001F034FCA08910B1BA
:10319000A089022800D104E040F24B3143A001F0A5
:1031A00029FC288C4FF6FF61084028842E8CAF88BC
:1031B000B5F81C804FF68F7008EA00084FF6FC70D7
:1031C00008EA0008208840EA08084FF6FF50064049
:1031D000A0894FF6FF7101EA00200643608801EAEA
:1031E000002006432C48854202D02F4885424BD10F
:1031F000A08810B1A088042800D104E04FF45A71CF
:103200002AA001F0F7FBE08910B1E089082800D17D
:1032100004E040F2693125A001F0ECFB608AB0F5D2
:10322000007F01D0608A00B904E040F26A311FA03B
:1032300001F0E0FB208AB0F5807F01D0208A00B940
:1032400004E040F26B3119A001F0D4FB4FF2FF70A3
:103250000640E0894FF6FF7101EA002006434FF671
:10326000FF300640A08801EA002006434EF6FF70BA
:1032700007404DF6FF700740208A01EA001007431F
:10328000608A01EA00100743AF80A5F81C80A0689F
:10329000E8632E84BDE8F081000001400004004096
:1032A00000080040000C0040000401402E2E5C533A
:1032B000544D3332463478785F5374645065726984
:1032C00070685F4472697665725C7372635C737474
:1032D0006D3332663478785F74696D2E6300000058
:1032E00070B504460D460026134884420ED0B4F152
:1032F000804F0BD01148844208D01148844205D039
:103300001048844202D01048844200D104E040F2C8
:1033100016510EA001F06EFB082D00D005B904E097
:1033200040F2175109A001F065FBA68B4FF6F7702C
:1033300006402E43A68370BD0000014000040040FB
:1033400000080040000C0040000401402E2E5C5399
:10335000544D3332463478785F53746450657269E3
:1033600070685F4472697665725C7372635C7374D3
:103370006D3332663478785F74696D2E63000000B7
:103380002DE9F04104460D4600270026B046454889
:1033900084420ED0B4F1804F0BD04348844208D011
:1033A0004248844205D04248844202D04148844287
:1033B00000D104E04FF466713FA001F01BFB2888A8
:1033C00070B1288810280BD02888202808D0288899
:1033D000302805D02888602802D02888702800D19D
:1033E00004E040F2993134A001F004FB688810B188
:1033F0006888012800D104E040F29A312EA001F043
:10340000F9FAA88910B1A889022800D104E040F295
:103410009B3129A001F0EEFA208C4EF6FF71084096
:103420002084268CB4F80480A78B48F6FF700740F0
:103430004FF6FF40074028884FF6FF7101EA002051
:1034400007434DF6FF700640A88901EA00300643A5
:10345000688801EA003006431248844202D01548C9
:10346000844216D1288AB0F5807F01D0288A00B91D
:1034700004E040F2B93110A001F0BCFA4BF6FF7045
:1034800008EA0008288A4FF6FF7101EA801040EA36
:103490000808A4F80480A783A86820642684BDE8EF
:1034A000F0810000000001400004004000080040DE
:1034B000000C0040000401402E2E5C53544D33326A
:1034C000463478785F5374645065726970685F44FD
:1034D00072697665725C7372635C73746D333266A5
:1034E0003478785F74696D2E6300000070B504460F
:1034F0000D460026154884420ED0B4F1804F0BD003
:103500001348844208D01348844205D012488442AC
:1035100002D01248844200D104E040F2335110A09E
:1035200001F068FA082D00D005B904E040F23451EA
:103530000BA001F05FFAA68B4FF2FF7006404FF62A
:10354000FF7000EA05200643A68370BD000001401D
:103550000004004000080040000C0040000401404E
:103560002E2E5C53544D3332463478785F53746456
:103570005065726970685F4472697665725C7372D7
:10358000635C73746D3332663478785F74696D2E62
:103590006300000070B504460E4615461D4884427F
:1035A00026D0B4F1804F23D01B48844220D01B4842
:1035B00084421DD01A4884421AD01A48844217D037
:1035C0001948844214D01948844211D018488442C2
:1035D0000ED0184884420BD01748844208D01748B0
:1035E000844205D01648844202D01648844200D155
:1035F00004E040F26B1114A001F0FCF90DB1012DB3
:1036000000D104E04FF4B6710FA001F0F3F9268564
:10361000A58270BD00000140000400400008004089
:10362000000C004000100040001400400004014065
:1036300000400140004401400048014000180040A3
:10364000001C0040002000402E2E5C53544D3332AD
:10365000463478785F5374645065726970685F446B
:1036600072697665725C7372635C73746D33326613
:103670003478785F74696D2E6300000070B504467D
:103680000D462148844226D0B4F1804F23D01F48F4
:10369000844220D01E4884421DD01E4884421AD045
:1036A0001D48844217D01D48844214D01C488442CF
:1036B00011D01C4884420ED01B4884420BD01B48BA
:1036C000844208D01A48844205D01A48844202D065
:1036D0001948844200D104E04FF40A7117A001F0A8
:1036E00089F9082D00D005B904E040F2292113A082
:1036F00001F080F920884FF6F7710840208020887B
:103700002843208070BD00000000014000040040FC
:1037100000080040000C0040001000400014004071
:1037200000040140004001400044014000480140C5
:1037300000180040001C0040002000402E2E5C536A
:10374000544D3332463478785F53746450657269EF
:1037500070685F4472697665725C7372635C7374DF
:103760006D3332663478785F74696D2E63000000C3
:1037700070B504460D461948844226D0B4F1804FF6
:1037800023D01748844220D0164884421DD01648C2
:1037900084421AD01548844217D01548844214D068
:1037A0001448844211D0144884420ED013488442F5
:1037B0000BD01348844208D01248844205D01248E6
:1037C000844202D01148844200D104E040F2AB119F
:1037D0000FA001F00FF9E56270BD0000000001408C
:1037E0000004004000080040000C004000100040B1
:1037F000001400400004014000400140004401402A
:103800000048014000180040001C0040002000401B
:103810002E2E5C53544D3332463478785F537464A3
:103820005065726970685F4472697665725C737224
:10383000635C73746D3332663478785F74696D2EAF
:103840006300000070B504460D461648844220D03F
:10385000B4F1804F1DD0144884421AD013488442DA
:1038600017D01348844214D01248844211D0124811
:1038700084420ED0114884420BD01148844208D0B3
:103880001048844205D01048844202D00F48844238
:1038900000D104E040F227410DA001F0ABF86563D0
:1038A00070BD00000000014000040040000800401E
:1038B000000C004000040140004001400044014071
:1038C0000048014000180040001C0040002000405B
:1038D0002E2E5C53544D3332463478785F537464E3
:1038E0005065726970685F4472697665725C737264
:1038F000635C73746D3332663478785F74696D2EEF
:103900006300000070B504460D461048844214D090
:10391000B4F1804F11D00E4884420ED00D4884423D
:103920000BD00D48844208D00C48844205D00C4886
:10393000844202D00B48844200D104E040F2374177
:1039400009A001F057F8A56370BD00000000014018
:103950000004004000080040000C0040000401404A
:1039600000400140001800402E2E5C53544D33326D
:10397000463478785F5374645065726970685F4448
:1039800072697665725C7372635C73746D333266F0
:103990003478785F74696D2E6300000070B504465A
:1039A0000D460D4884420ED0B4F1804F0BD00B4829
:1039B000844208D00A48844205D00A48844202D092
:1039C0000948844200D104E040F2464107A001F0DA
:1039D00011F8E56370BD00000000014000040040E4
:1039E00000080040000C0040000401402E2E5C53F3
:1039F000544D3332463478785F537464506572693D
:103A000070685F4472697665725C7372635C73742C
:103A10006D3332663478785F74696D2E6300000010
:103A200070B504460D460D4884420ED0B4F1804F67
:103A30000BD00B48844208D00A48844205D00A487B
:103A4000844202D00948844200D104E040F255414A
:103A500007A000F0CFFF256470BD0000000001400A
:103A60000004004000080040000C00400004014039
:103A70002E2E5C53544D3332463478785F53746441
:103A80005065726970685F4472697665725C7372C2
:103A9000635C73746D3332663478785F74696D2E4D
:103AA0006300000070B504460D460026434884427A
:103AB00026D0B4F1804F23D04148844220D04148E1
:103AC00084421DD0404884421AD04048844217D0D6
:103AD0003F48844214D03F48844211D03E4884423B
:103AE0000ED03E4884420BD03D48844208D03D4829
:103AF000844205D03C48844202D03C48844200D1F4
:103B000004E040F225113AA000F074FF688858B133
:103B10006888102808D06888202805D06888402840
:103B200002D06888602800D104E04FF4937130A07F
:103B300000F060FF288938B12889B0F5807F03D074
:103B40002889B0F5007F00D104E040F2271128A0B9
:103B500000F050FF2688194884420ED01D48844248
:103B60000BD0B4F1804F08D01548844205D01548D9
:103B7000844202D01448844204D14FF68F7006402C
:103B8000688806431148844207D01148844204D013
:103B90004FF6FF4006402889064326806868E062A9
:103BA000288820850548844202D00A48844201D1F1
:103BB000A87A20860120A08270BD0000000001408C
:103BC0000004004000080040000C004000100040CD
:103BD0000014004000040140004001400044014046
:103BE0000048014000180040001C00400020004038
:103BF0002E2E5C53544D3332463478785F537464C0
:103C00005065726970685F4472697665725C737240
:103C1000635C73746D3332663478785F74696D2ECB
:103C20006300000070B504460D462248844226D049
:103C3000B4F1804F23D02048844220D01F488442D2
:103C40001DD01F4884421AD01E48844217D01E48F7
:103C5000844214D01D48844211D01D4884420ED0A5
:103C60001C4884420BD01C48844208D01B48844224
:103C700005D01B48844202D01A48844200D104E097
:103C800040F2D71118A000F0B5FE0DB1012D00D102
:103C900004E04FF4EC7114A000F0ACFE25B12088D4
:103CA00040F00200208004E020884FF6FD710840BB
:103CB000208070BD0000014000040040000800406A
:103CC000000C0040001000400014004000040140BF
:103CD00000400140004401400048014000180040FD
:103CE000001C0040002000402E2E5C53544D333207
:103CF000463478785F5374645065726970685F44C5
:103D000072697665725C7372635C73746D3332666C
:103D10003478785F74696D2E6300000070B50446D6
:103D20000D462248844226D0B4F1804F23D020484B
:103D3000844220D01F4884421DD01F4884421AD09C
:103D40001E48844217D01E48844214D01D48844225
:103D500011D01D4884420ED01C4884420BD01C4810
:103D6000844208D01B48844205D01B48844202D0BC
:103D70001A48844200D104E04FF4FA7118A000F010
:103D800039FE0DB1012D00D104E040F2F51114A06F
:103D900000F030FE25B1208840F00400208004E0CF
:103DA00020884FF6FB710840208070BD0000014064
:103DB0000004004000080040000C004000100040DB
:103DC0000014004000040140004001400044014054
:103DD0000048014000180040001C00400020004046
:103DE0002E2E5C53544D3332463478785F537464CE
:103DF0005065726970685F4472697665725C73724F
:103E0000635C73746D3332663478785F74696D2ED9
:103E10006300000010B50446002242F2CF011248B0
:103E2000FFF7B8FB04EB840041000F48FFF7A0FC4C
:103E300001210D48FEF7A6FD01210B48FEF7BCFC51
:103E400001210948FEF722FD00BF01210648FEF7C7
:103E50000DFE0028F9D001210348FEF7ADFC00213A
:103E60000148FEF713FD10BD0010004010B50446D8
:103E7000002253211148FFF78DFB21460F48FFF721
:103E800077FC01210D48FEF77DFD01210B48FEF76F
:103E900093FC01210948FEF7F9FC00BF0121074806
:103EA000FEF7E4FD0028F9D001210448FEF784FC68
:103EB00000210248FEF7EAFC10BD0000001000409F
:103EC00010B540F22551134800F0B2F980B1114805
:103ED00000F09AFBC1B2104802780078401C0E4BEB
:103EE00018700E48815440F225510A4800F01AF823
:103EF00040F22441074800F09BF950B100200649E8
:103F00000870012006490870024800880148001D19
:103F1000008810BD004800401028002052280020D2
:103F2000112800202DE9F04104460D460026002707
:103F30002B4884421AD02B48844217D02A48844206
:103F400014D02A48844211D0294884420ED02948EE
:103F500084420BD02848844208D02848844205D0A7
:103F60002748844202D02748844200D104E04FF41D
:103F7000B66125A000F03EFD40F2266085420BD0E0
:103F800040F22550854207D040F64600854203D0D6
:103F900040F66A10854200D104E040F2B1511AA007
:103FA00000F028FD40F66A10854211D10C48844289
:103FB00008D00C48844205D00B48844202D00D48FA
:103FC000844200D104E040F2B6510FA000F012FD8F
:103FD0002E120120B04087B2F8432080BDE8F08166
:103FE000001001400044004000480040004C0040E8
:103FF000005000400014014000780040007C004068
:1040000000180140001C01402E2E5C53544D3332E9
:10401000463478785F5374645065726970685F44A1
:1040200072697665725C7372635C73746D33326649
:104030003478785F75736172742E630070B50446CE
:104040000D461C4884421AD01B48844217D01B4896
:10405000844214D01A48844211D01A4884420ED0A7
:10406000194884420BD01948844208D01848844229
:1040700005D01848844202D01748844200D104E099
:104080004FF4D77115A000F0B5FC0DB1012D00D192
:1040900004E040F2AF1111A000F0ACFC25B1A08902
:1040A00040F40050A08104E0A0894DF6FF71084063
:1040B000A08170BD00100140004400400048004055
:1040C000004C0040005000400014014000780040C7
:1040D000007C004000180140001C01402E2E5C5363
:1040E000544D3332463478785F5374645065726946
:1040F00070685F4472697665725C7372635C737436
:104100006D3332663478785F75736172742E630034
:1041100070B504460D4600262E4884421AD02E481B
:10412000844217D02D48844214D02D48844211D0A7
:104130002C4884420ED02C4884420BD02B48844219
:1041400008D02B48844205D02A48844202D02A480D
:10415000844200D104E040F2135128A000F04AFC50
:10416000012D13D0802D11D0402D0FD0202D0DD03A
:10417000102D0BD0B5F5807F08D0B5F5007F05D0A8
:10418000082D03D0042D01D0022D00D104E040F20F
:1041900014511AA000F02EFCB5F5007F11D10D4886
:1041A000844208D00C48844205D00C48844202D096
:1041B0000D48844200D104E040F219510FA000F0F4
:1041C00019FC2088284008B1012600E0002630466E
:1041D00070BD000000100140004400400048004055
:1041E000004C0040005000400014014000780040A6
:1041F000007C004000180140001C01402E2E5C5342
:10420000544D3332463478785F5374645065726924
:1042100070685F4472697665725C7372635C737414
:104220006D3332663478785F75736172742E630013
:104230002DE9F04704460D4600270026B046B1465A
:10424000474884421AD04748844217D0464884429F
:1042500014D04648844211D0454884420ED0454887
:1042600084420BD04448844208D04448844205D05C
:104270004348844202D04348844200D104E040F2E3
:10428000675141A000F0B6FB282D27D040F22770DF
:10429000854223D040F2266085421FD040F225504F
:1042A00085421BD040F22440854217D040F646009C
:1042B000854213D040F66A1085420FD0B5F5587F7D
:1042C0000CD040F22530854208D0B5F5587F05D096
:1042D000B5F5187F02D0B5F5B07F00D104E04FF4FA
:1042E000AD6129A000F086FB40F66A10854211D12D
:1042F0001B48844208D01B48844205D01A48844297
:1043000002D01C48844200D104E040F26D511EA04E
:1043100000F070FBC5F3421805F01F06012000FAFB
:1043200006F6B8F1010F02D1A089064007E0B8F106
:10433000020F02D1208A064001E0A08A06402F1217
:10434000012000FA07F7208807401EB117B14FF08F
:10435000010901E04FF000094846BDE8F087000080
:10436000001001400044004000480040004C004064
:10437000005000400014014000780040007C0040E4
:1043800000180140001C01402E2E5C53544D333266
:10439000463478785F5374645065726970685F441E
:1043A00072697665725C7372635C73746D333266C6
:1043B0003478785F75736172742E63002DE9FF475E
:1043C00004460D460026B14600BFB04676488442FA
:1043D0001AD07648844217D07548844214D0754864
:1043E000844211D0744884420ED0744884420BD069
:1043F0007348844208D07348844205D0724884428E
:1044000002D07248844200D103E0FE2170A000F087
:10441000F1FA286820B17B492868884200D203E07D
:10442000FF216BA000F0E6FAA88818B1A888B0F5C3
:10443000805F00D104E04FF4807165A000F0DAFAEB
:10444000E88858B1E888B0F5805F07D0E888B0F513
:10445000005F03D0E888B0F5405F00D104E040F28F
:1044600001115BA000F0C6FA288938B12889B0F59F
:10447000806F03D02889B0F5C06F00D104E04FF4FD
:10448000817153A000F0B6FA68894FF6F3710840C5
:1044900010B9688900B104E040F203114CA000F0AB
:1044A000A9FAA88958B1A889B0F5807F07D0A88952
:1044B000B0F5007F03D0A889B0F5407F00D104E0BB
:1044C0004FF4827142A000F095FAA88988B136486D
:1044D000844208D03548844205D03548844202D011
:1044E0003648844200D104E040F2091138A000F0BF
:1044F00081FA268A26F44056E88806432682A68951
:1045000041F20C608643A8882989084369890843D9
:104510000643A681A68A26F44076A8890643A68289
:104520006846FDF7EDFB2048844202D023488442D0
:1045300002D1DDF80C9001E0DDF80890A08900F4CC
:10454000004040B109EBC90000EB0910296849009F
:10455000B0FBF1F707E009EBC90000EB091029688F
:104560008900B0FBF1F76420B7FBF0F006013009D9
:10457000642101FB1078A08900F4004040B1322092
:1045800000EBC800B0FBF1F000F00700064308E0C4
:10459000322000EB08106421B0FBF1F000F00F00B6
:1045A00006432681BDE8FF8700100140004400401B
:1045B00000480040004C0040005000400014014002
:1045C00000780040007C004000180140001C0140C1
:1045D0002E2E5C53544D3332463478785F537464D6
:1045E0005065726970685F4472697665725C737257
:1045F000635C73746D3332663478785F757361729F
:10460000742E6300E170720010B5044613488442B2
:104610001AD01348844217D01248844214D012484A
:10462000844211D0114884420ED0114884420BD0EC
:104630001048844208D01048844205D00F48844274
:1046400002D00F48844200D104E04FF410710DA055
:1046500000F0D0F9A088C0F3080010BD00100140A0
:104660000044004000480040004C00400050004022
:104670000014014000780040007C00400018014018
:10468000001C01402E2E5C53544D33324634787852
:104690005F5374645065726970685F4472697665CF
:1046A000725C7372635C73746D3332663478785FF6
:1046B00075736172742E630070B504460D46184818
:1046C00084421AD01748844217D01748844214D025
:1046D0001648844211D0164884420ED015488442B0
:1046E0000BD01548844208D01448844205D01448A1
:1046F000844202D01348844200D104E04FF40C718C
:1047000011A000F077F9B5F5007F00DA04E040F27F
:1047100031210DA000F06EF9C5F30800A08070BD36
:10472000001001400044004000480040004C0040A0
:10473000005000400014014000780040007C004020
:1047400000180140001C01402E2E5C53544D3332A2
:10475000463478785F5374645065726970685F445A
:1047600072697665725C7372635C73746D33326602
:104770003478785F75736172742E63004FF416514C
:10478000016000218180C18001810C2141810021D3
:10479000818170472DE9F04106460F4614460025F9
:1047A0007E2014490870FF20487006208870084653
:1047B000C6700771201248718C7106210D48401C8B
:1047C000FBF700FEEF200B49487200BF0DE000BF71
:1047D00080210948FFF79CFC0028F9D00548415D7D
:1047E0000548FFF769FF681CC5B20A2DEFDBBDE87D
:1047F000F081000048280020004800400FB4054B1D
:1048000010B503A9044A029800F018F810BC5DF82E
:1048100014FB0000294A00084428002002E008C8D0
:10482000121F08C1002AFAD170477047002001E02A
:1048300001C1121F002AFBD1704700002DE9FF4F74
:104840008BB09A460F460546002606E025280BD079
:1048500052460D9990476D1C761C28780028F5D19A
:104860000FB03046BDE8F08F0024A0460122604919
:1048700000E0044315F8013F203B02FA03F0084230
:10488000F7D128782E2817D115F8010F44F0040429
:104890002A280ED06FF02F022878A0F130010929C4
:1048A0000AD808EB880102EB410100EB01086D1CFE
:1048B000F2E757F8048B6D1C287869283ED006DC97
:1048C0000028CDD063280BD0642804D136E07328AB
:1048D00010D075284BD052460D999047761C85E034
:1048E00017F8040B8DF8000000208DF80100E94650
:1048F000012003E057F8049B4FF0FF3061074FF0B1
:10490000000401D40AE0641C44450DDA8442FADB59
:1049100019F804100029F6D106E0641C8442FCDB7F
:1049200019F804100029F8D1264404E019F8010B05
:1049300052460D999047641EF8D257E001CF4FF0D0
:104940000A0B002802DA40422D2102E0210504D59D
:104950002B218DF82410012103E0E10705D020214F
:10496000F7E70DF1200908910CE00021F9E701CFEC
:104970004FF00A0BF9E75946FBF746FC01F130020C
:1049800009F8012D0028F6D1ADEB090000F1200B4C
:10499000600701D44FF00108D84502DDA8EB0B00F9
:1049A00000E000208046002406E009A85246005D91
:1049B0000D999047641C761C08988442F5DB04E04E
:1049C000302052460D999047761CB8F10001A8F1AD
:1049D0000108F5DC05E019F8010B52460D999047E6
:1049E000761CBBF10001ABF1010BF4DC6D1C34E76C
:1049F0000928010004460D462B462246024903A021
:104A0000FFF7FCFEAFF30080384C000825733A2016
:104A100066696C65202573206F6E206C696E652059
:104A200025640D0A0000000070B504460D46E0B292
:104A300000F0BEF8204670BD9CB04FF4A060FCF7BB
:104A4000ADFCFCF7D9F8FDF7CFF9FDF70FFEFCF749
:104A5000B5F8FCF7A1F90320FCF7BEFA4FF4E130FA
:104A600000F064F8FBF766FC00BF0322002110464B
:104A7000FFF790FE00BFFCF747FDFCF773FF4C22E9
:104A80001B4909A8FBF79CFB062500240FE0FCF757
:104A9000BBFC09A850F82400082340220021009004
:104AA0000846FCF7C4FCC820FFF7B4F9641CAC420C
:104AB000EDDB1C220E494C3102A8FBF781FB0024E0
:104AC0000DE0FCF7A1FC02A850F8242000210846C4
:104AD000FCF77CFE4FF47A70FFF79CF9641C072CFE
:104AE000EFDB03E0FCF7D4FFFBF7E8FFFAE7000099
:104AF000D04B000870B504460D46A01CC4B210216E
:104B000041EA1410FCF7B8FD102141EA1410FCF73B
:104B1000B3FD05F1B001C8B2FCF7AEFD70BD0000F9
:104B200001480068704700003828002010B586B0A2
:104B3000044600200490059000900190029003909C
:104B400001210846FDF718F801211020FDF796F81D
:104B5000072209211448FBF729FD07220A211248E0
:104B6000FBF724FD02208DF8140000208DF81600BC
:104B70004FF4C060049000208DF8170003208DF8DA
:104B8000150004A90848FBF731FC6846FFF7F6FD5D
:104B9000009469460548FFF711FC01210348FFF71F
:104BA0004DFA06B010BD00000000024000100140A8
:104BB00010B5044600BF80210448FFF7A9FA002879
:104BC000F9D021460148FFF777FD10BD00100140E4
:104BD0001002002010040020100600201008002001
:104BE000100A0020100C0020100E002010100020D1
:104BF00010120020101400201016002010180020A1
:104C0000101A0020101C0020101E00201020002070
:104C10001022002010240020102600201454000828
:104C2000F0530008FC530008F45300080454000833
:104C300008540008105400086173736572745F664D
:104C400061696C6564004D6F746F725F5365745376
:104C500070656564000000000000000000000000B6
:104C60000000000000000000F8000000000000004C
:104C7000330000000000100C02100C0200000000C5
:104C800000000000000040C07840C0780000043FF1
:104C900004043F040000708888FC083000001820DD
:104CA00020FF211E00F008F0806018000000310C89
:104CB000031E211E0000F00888700000001E212342
:104CC0002C1927211000120E000000000000000027
:104CD0000000000000000000E018040200000000D6
:104CE000071820400000020418E0000000004020E7
:104CF0001807000000404080F080404000020201A0
:104D00000F0102020000000000E0000000000101AD
:104D1000010F010101000000000000000000907080
:104D20000000000000000000000000000000010181
:104D3000010101010000000000000000000030300F
:104D4000000000000000000000C0380400006018EF
:104D5000070000000000E010080810E000000F103D
:104D60002020100F0000001010F8000000000020AC
:104D7000203F202000007008080808F000003028BC
:104D80002422213000003008080888700000182014
:104D90002121221C000000804030F80000000605A0
:104DA00024243F242400F88888880808000019205B
:104DB0002020110E0000E0108888900000000F11E4
:104DC0002020201F00001808088868180000000034
:104DD0003E010000000070880808887000001C2256
:104DE0002121221C0000F008080810E00000011238
:104DF0002222110F00000000C0C0000000000000CF
:104E000030300000000000008000000000000000C2
:104E1000E0000000000000804020100800000102B7
:104E200004081020000040404040404000000202C2
:104E30000202020200000810204080000000201042
:104E40000804020100007048080888700000000093
:104E50003037000000C030C828E810E000071827ED
:104E6000282F2817000000C038E0000000203C2355
:104E7000020227382008F8888888700000203F2028
:104E80002020110E00C0300808080838000718203C
:104E9000202010080008F808080810E000203F2033
:104EA0002020100F0008F88888E8081000203F2014
:104EB000202320180008F88888E8081000203F20E8
:104EC0000003000000C03008080838000007182060
:104ED00020221E020008F808000008F808203F21E0
:104EE0000101213F20000808F808080000002020E8
:104EF0003F2020000000000808F8080800C080805B
:104F0000807F00000008F888C028180800203F2093
:104F1000012638200008F8080000000000203F208B
:104F2000202020300008F8F800F8F80800203F01A1
:104F30003E013F200008F830C00008F808203F205C
:104F40000007183F00E01008080810E0000F1020CC
:104F50002020100F0008F808080808F000203F2162
:104F60000101010000E01008080810E0000F1028FF
:104F70002830504F0008F8888888887000203F202B
:104F800000030C3020007088080808380000382022
:104F90002121221C00180808F80808180000002029
:104FA0003F2000000008F808000008F808001F2053
:104FB0002020201F000878880000C838080000075B
:104FC000380E01000008F800F800F8080000033E61
:104FD000013E030000081868808068180820302C03
:104FE00003032C30200838C800C83808000000200F
:104FF0003F2000000010080808C8380800203826A4
:105000002120201800000000FE0202020000000023
:105010007F40404000000438C00000000000000055
:10502000010638C00000020202FE000000004040FD
:10503000407F0000000000040202040000000000A5
:1050400000000000000000000000000000808080E0
:1050500080808080800002020400000000000000C8
:105060000000000000000080808000000000192483
:1050700024123F200010F0008080000000003F114B
:105080002020110E000000008080800000000E1122
:105090002020201100000080808090F000001F2060
:1050A0002020103F200000808080800000001F240E
:1050B0002424241700008080E0909020000020200D
:1050C0003F202000000000808080808000006B94E2
:1050D000949493600010F0008080800000203F21B5
:1050E0000000203F20008098980000000000202051
:1050F0003F20200000000000809898000000C08041
:1051000080807F000010F0000080808000203F241D
:105110000629302000001010F800000000002020B8
:105120003F202000008080808080808000203F2001
:10513000003F20003F8080008080800000203F21D1
:105140000000203F200000808080800000001F20A1
:105150002020201F00808000808000000080FF91C0
:105160002020110E000000008080008000000E1141
:10517000202091FF80808080008080800020203F60
:105180002120000100000080808080800000332406
:105190002424241900008080E080800000000000AA
:1051A0001F202010008080000000808000001F2051
:1051B0002020103F20808080008080800000030C31
:1051C000300C0300008080008080008080010E3061
:1051D0000C073806010080808000808000002031AC
:1051E0000E2E31200080808000008080800081862B
:1051F00078180601000080808080808000002130C7
:105200002C222130000000000000FC0202000000FF
:1052100000013E404000000000FF000000000000D0
:1052200000FF0000000202FC000000000040403EC1
:105230000100000000000201020204020000000060
:10524000000000000000000000000000000000005E
:105250000000000000BCC3C4CFD0C5D3AFB4EFC3BF
:10526000F7CCECC4E3BAC3D5C5BEB0B3AC00106094
:10527000028C00040C94A546A4940C0404000404BD
:105280007E010081611E000000FE0101010004E4B6
:10529000242464A4243F24A4642424E4040000FF00
:1052A00000080909097F09090948807F000000807A
:1052B00060F8070004242425262424240400010087
:1052C00000FF000000F94949494949F90000000080
:1052D00082621E0AAA4ABA021A9610F000004041E1
:1052E0007C44447D4444447D44447D4040004040EF
:1052F00042CC00101010907F901010101000004051
:10530000201F2048444241404041424C400000FCA4
:10531000444444FC0000FE22222222FE0000000F32
:105320000404048F40300F020242827F000040409C
:105330004242424242FE424242424240400080805B
:105340004020100C0300030C1020408080000080DF
:1053500060F8074020180F08C80808281800010046
:1053600000FF00100C0340807F00010618001010A1
:10537000F01F10F000808282E2928A868000402234
:1053800015081661000040807F000000000002E266
:1053900022223E8080FF80A090888680800000438B
:1053A00082423E0000FF402106081020400040409D
:1053B000405F555555755555555F4040400000407C
:1053C000200F094989790909090F20400000404848
:1053D0004848FF484842A29E82A2C2BE00008060A8
:1053E0001F207F4444404F484848484F4000000039
:1053F000426F620044617669640000004368617234
:105400006C696500457665004672616E6B00000050
:1054100073000000D5C5BEB0B3AC00003C5400081A
:10542000000000204828000058020008B855000875
:1054300048280020506000002C480008120001207D
:1054400005010203040400069106070809FF015044
:10545000067F3F1F0F1F01000A250F07070F1F3F81
:105460003F3F7F3B10057FFFE781E3500D060600BD
:105470000C0C0E0C0C02070200010223437D0007F6
:1054800013FEFCF9F18000010006210878F3F3F720
:1054900043E0089F8780C0E0E0F0010009FFE0C022
:1054A00080CFFFFBFBFF010925007B3F3F000A2760
:1054B0001F0015C26BC78000BA0600062207FE0B4C
:1054C00018FEFC000807220078F9F9FDFD000A1516
:1054D000C0000AFFC7000D24010459000A333F0031
:1054E0004A83003C04060C0E00046A03000E2003ED
:1054F000FD0312FD01040415F9F9F9FF0C08200061
:1055000038F8FCFCFCFE00042E800004E9011EE0DB
:1055100000040AFFE3000DFF000409FF000DFF0077
:105520000801FF010DFF000401FF010DFF0008014C
:10553000FF010DFF000401FF010DFF000801FF0145
:105540000DFF000401FF010DFF000801FF010DFF29
:10555000000401FF010DFF000801FF010DFF000421
:1055600001FF010DFF000801FF010DFF000401FF15
:10557000010DFF000801FF010DFF000401FF010DF7
:10558000FF000801FF010DFF00040D6E6B034D1CB1
:1055900003FC220142010002000300040005000692
:1055A000000700080009000A000B000C000D000EA7
:0855B000000F001013030000BE
:040000050800018965
:00000001FF
